{
  "contractName": "BlockRecorder",
  "abi": [
    {
      "constant": true,
      "inputs": [],
      "name": "mmrProvider",
      "outputs": [
        {
          "name": "",
          "type": "address"
        }
      ],
      "payable": false,
      "stateMutability": "view",
      "type": "function"
    },
    {
      "constant": true,
      "inputs": [
        {
          "name": "",
          "type": "bytes32"
        }
      ],
      "name": "blockData",
      "outputs": [
        {
          "name": "number",
          "type": "uint256"
        },
        {
          "name": "difficulty",
          "type": "uint256"
        },
        {
          "name": "receiptRoot",
          "type": "bytes32"
        },
        {
          "name": "mmrProved",
          "type": "bool"
        }
      ],
      "payable": false,
      "stateMutability": "view",
      "type": "function"
    },
    {
      "inputs": [
        {
          "name": "_mmrProvider",
          "type": "address"
        }
      ],
      "payable": false,
      "stateMutability": "nonpayable",
      "type": "constructor"
    },
    {
      "constant": false,
      "inputs": [
        {
          "name": "blk",
          "type": "bytes"
        }
      ],
      "name": "recordBlock",
      "outputs": [],
      "payable": false,
      "stateMutability": "nonpayable",
      "type": "function"
    },
    {
      "constant": false,
      "inputs": [
        {
          "name": "blockHash",
          "type": "bytes32"
        },
        {
          "name": "mmrRoot",
          "type": "bytes32"
        }
      ],
      "name": "mmrProved",
      "outputs": [],
      "payable": false,
      "stateMutability": "nonpayable",
      "type": "function"
    },
    {
      "constant": true,
      "inputs": [
        {
          "name": "blockHash",
          "type": "bytes32"
        }
      ],
      "name": "getBlockReceiptRoot",
      "outputs": [
        {
          "name": "",
          "type": "bytes32"
        }
      ],
      "payable": false,
      "stateMutability": "view",
      "type": "function"
    },
    {
      "constant": true,
      "inputs": [
        {
          "name": "blockHash",
          "type": "bytes32"
        }
      ],
      "name": "getBlockMMRProved",
      "outputs": [
        {
          "name": "",
          "type": "bool"
        }
      ],
      "payable": false,
      "stateMutability": "view",
      "type": "function"
    }
  ],
  "bytecode": "0x608060405234801561001057600080fd5b506040516020806117c78339810180604052602081101561003057600080fd5b8101908080519060200190929190505050806000806101000a81548173ffffffffffffffffffffffffffffffffffffffff021916908373ffffffffffffffffffffffffffffffffffffffff16021790555050611736806100916000396000f3fe608060405260043610610078576000357c0100000000000000000000000000000000000000000000000000000000900463ffffffff1680630b80d0221461007d57806331726166146100cc578063808426ae14610107578063abc36f361461015e578063b4468d33146101b1578063b9dc9da414610219575b600080fd5b34801561008957600080fd5b506100b6600480360360208110156100a057600080fd5b81019080803590602001909291905050506102e1565b6040518082815260200191505060405180910390f35b3480156100d857600080fd5b50610105600480360360208110156100ef57600080fd5b8101908080359060200190929190505050610301565b005b34801561011357600080fd5b5061011c61041c565b604051808273ffffffffffffffffffffffffffffffffffffffff1673ffffffffffffffffffffffffffffffffffffffff16815260200191505060405180910390f35b34801561016a57600080fd5b506101976004803603602081101561018157600080fd5b8101908080359060200190929190505050610441565b604051808215151515815260200191505060405180910390f35b3480156101bd57600080fd5b506101ea600480360360208110156101d457600080fd5b810190808035906020019092919050505061046e565b604051808581526020018481526020018381526020018215151515815260200194505050505060405180910390f35b34801561022557600080fd5b506102df6004803603602081101561023c57600080fd5b810190808035906020019064010000000081111561025957600080fd5b82018360208201111561026b57600080fd5b8035906020019184600183028401116401000000008311171561028d57600080fd5b91908080601f016020809104026020016040519081016040528093929190818152602001838380828437600081840152601f19601f8201169050808301925050505050505091929192905050506104ab565b005b600060016000838152602001908152602001600020600201549050919050565b6000809054906101000a900473ffffffffffffffffffffffffffffffffffffffff1673ffffffffffffffffffffffffffffffffffffffff163373ffffffffffffffffffffffffffffffffffffffff161415156103eb576040517f08c379a00000000000000000000000000000000000000000000000000000000081526004018080602001828103825260288152602001807f4f6e6c79204d4d522050726f76696465722063616e2063616c6c20746869732081526020017f66756e6374696f6e00000000000000000000000000000000000000000000000081525060400191505060405180910390fd5b600180600083815260200190815260200160002060030160006101000a81548160ff02191690831515021790555050565b6000809054906101000a900473ffffffffffffffffffffffffffffffffffffffff1681565b60006001600083815260200190815260200160002060030160009054906101000a900460ff169050919050565b60016020528060005260406000206000915090508060000154908060010154908060020154908060030160009054906101000a900460ff16905084565b60008180519060200120905060606104c48360006106ea565b9050600061050b848360078151811015156104db57fe5b90602001906020020151600001518460078151811015156104f857fe5b90602001906020020151602001516107ae565b905060006105528584600881518110151561052257fe5b906020019060200201516000015185600881518110151561053f57fe5b90602001906020020151602001516107ae565b905060606105998685601081518110151561056957fe5b906020019060200201516000015186601081518110151561058657fe5b90602001906020020151602001516107d5565b90506105a58382610887565b151561063f576040517f08c379a00000000000000000000000000000000000000000000000000000000081526004018080602001828103825260298152602001807f426c6f636b20646966666963756c747920646f65736e2774207265616368207481526020017f686520746172676574000000000000000000000000000000000000000000000081525060400191505060405180910390fd5b60606106848786600581518110151561065457fe5b906020019060200201516000015187600581518110151561067157fe5b90602001906020020151602001516107d5565b90506000602082015190508360016000898152602001908152602001600020600001819055508460016000898152602001908152602001600020600101819055508060016000898152602001908152602001600020600201819055505050505050505050565b606060006106f8848461094f565b90508060405190808252806020026020018201604052801561073457816020015b6107216116d6565b8152602001906001900390816107195790505b50915061073f6116f0565b61074985856109be565b905060008160000151905060008090505b838110156107a45761076c87836109be565b925082858281518110151561077d57fe5b9060200190602002018190525082602001518360000151019150808060010191505061075a565b5050505092915050565b6000826020850101519050816020036101000a818115156107cb57fe5b0490509392505050565b606080826040519080825280601f01601f19166020018201604052801561080b5781602001600182028038833980820191505090505b50905060008085602088010191506020830190505b6020851015156108455781518152602081019050602082019150602085039450610820565b600085141561085957829350505050610880565b60006001866020036101000a03905080198351168183511680821784525050839450505050505b9392505050565b600060508251141515610928576040517f08c379a000000000000000000000000000000000000000000000000000000000815260040180806020018281038252602a8152602001807f426974636f696e4d65726765644d696e696e67486561646572206d757374206281526020017f652038302062797465730000000000000000000000000000000000000000000081525060400191505060405180910390fd5b6000610933836109fa565b9050600061094085610b9e565b90508082109250505092915050565b60006109596116f0565b61096384846109be565b905060008160000151905060008260200151836000015101905060008090505b818310156109b157808060010191505061099d87846109be565b935083602001518460000151019250610983565b8094505050505092915050565b6109c66116f0565b6109d08383610bdb565b8160200181815250508181602001516109e98585611009565b030181600001818152505092915050565b60006060600280846040518082805190602001908083835b602083101515610a375780518252602082019150602081019050602083039250610a12565b6001836020036101000a038019825116818451168082178552505050505050905001915050602060405180830381855afa158015610a79573d6000803e3d6000fd5b5050506040513d6020811015610a8e57600080fd5b8101908080519060200190929190505050604051602001808281526020019150506040516020818303038152906040526040518082805190602001908083835b602083101515610af35780518252602082019150602081019050602083039250610ace565b6001836020036101000a038019825116818451168082178552505050505050905001915050602060405180830381855afa158015610b35573d6000803e3d6000fd5b5050506040513d6020811015610b4a57600080fd5b8101908080519060200190929190505050604051602001808281526020019150506040516020818303038152906040529050610b93610b8c82600060206113ea565b600061158a565b915081915050919050565b600080600019905060008390506003811015610bb957600390505b610bcc818361164390919063ffffffff16565b60010292508292505050919050565b6000808383815181101515610bec57fe5b9060200101517f010000000000000000000000000000000000000000000000000000000000000090047f010000000000000000000000000000000000000000000000000000000000000002905060f77f010000000000000000000000000000000000000000000000000000000000000002817effffffffffffffffffffffffffffffffffffffffffffffffffffffffffffff19161115610d6f57600060f7827f010000000000000000000000000000000000000000000000000000000000000090040360ff169050600080600090505b82811015610d63576008829060020a02915086868260010101815181101515610ce157fe5b9060200101517f010000000000000000000000000000000000000000000000000000000000000090047f0100000000000000000000000000000000000000000000000000000000000000027f0100000000000000000000000000000000000000000000000000000000000000900460ff16820191508080600101915050610cbc565b50809350505050611003565b60bf7f010000000000000000000000000000000000000000000000000000000000000002817effffffffffffffffffffffffffffffffffffffffffffffffffffffffffffff19161115610df157600160bf827f01000000000000000000000000000000000000000000000000000000000000009004030360ff16915050611003565b60b77f010000000000000000000000000000000000000000000000000000000000000002817effffffffffffffffffffffffffffffffffffffffffffffffffffffffffffff19161115610f2757600060b7827f010000000000000000000000000000000000000000000000000000000000000090040360ff169050600080600090505b82811015610f1b576008829060020a02915086868260010101815181101515610e9957fe5b9060200101517f010000000000000000000000000000000000000000000000000000000000000090047f0100000000000000000000000000000000000000000000000000000000000000027f0100000000000000000000000000000000000000000000000000000000000000900460ff16820191508080600101915050610e74565b50809350505050611003565b60807f010000000000000000000000000000000000000000000000000000000000000002817effffffffffffffffffffffffffffffffffffffffffffffffffffffffffffff19161115610fa6576080817f010000000000000000000000000000000000000000000000000000000000000090040360ff16915050611003565b60807f010000000000000000000000000000000000000000000000000000000000000002817effffffffffffffffffffffffffffffffffffffffffffffffffffffffffffff19161415610ffd576000915050611003565b60019150505b92915050565b600080838381518110151561101a57fe5b9060200101517f010000000000000000000000000000000000000000000000000000000000000090047f010000000000000000000000000000000000000000000000000000000000000002905060f77f010000000000000000000000000000000000000000000000000000000000000002817effffffffffffffffffffffffffffffffffffffffffffffffffffffffffffff191611156111a257600060f7827f010000000000000000000000000000000000000000000000000000000000000090040360ff169050600080600090505b82811015611191576008829060020a0291508686826001010181518110151561110f57fe5b9060200101517f010000000000000000000000000000000000000000000000000000000000000090047f0100000000000000000000000000000000000000000000000000000000000000027f0100000000000000000000000000000000000000000000000000000000000000900460ff168201915080806001019150506110ea565b5080826001010193505050506113e4565b60bf7f010000000000000000000000000000000000000000000000000000000000000002817effffffffffffffffffffffffffffffffffffffffffffffffffffffffffffff191611156112215760bf817f010000000000000000000000000000000000000000000000000000000000000090040360ff169150506113e4565b60b77f010000000000000000000000000000000000000000000000000000000000000002817effffffffffffffffffffffffffffffffffffffffffffffffffffffffffffff1916111561135c57600060b7827f010000000000000000000000000000000000000000000000000000000000000090040360ff169050600080600090505b8281101561134b576008829060020a029150868682600101018151811015156112c957fe5b9060200101517f010000000000000000000000000000000000000000000000000000000000000090047f0100000000000000000000000000000000000000000000000000000000000000027f0100000000000000000000000000000000000000000000000000000000000000900460ff168201915080806001019150506112a4565b5080826001010193505050506113e4565b60807f010000000000000000000000000000000000000000000000000000000000000002817effffffffffffffffffffffffffffffffffffffffffffffffffffffffffffff191611156113de5760016080827f01000000000000000000000000000000000000000000000000000000000000009004030160ff169150506113e4565b60019150505b92915050565b606081830184511015151561148d576040517f08c379a00000000000000000000000000000000000000000000000000000000081526004018080602001828103825260308152602001807f5265766572736520737461727420706c7573206c656e677468206c617267657281526020017f207468616e2062797465732073697a650000000000000000000000000000000081525060400191505060405180910390fd5b6060826040519080825280601f01601f1916602001820160405280156114c25781602001600182028038833980820191505090505b50905060008090505b8381101561157e57858186018151811015156114e357fe5b9060200101517f010000000000000000000000000000000000000000000000000000000000000090047f0100000000000000000000000000000000000000000000000000000000000000028282600187030381518110151561154157fe5b9060200101907effffffffffffffffffffffffffffffffffffffffffffffffffffffffffffff1916908160001a90535080806001019150506114cb565b50809150509392505050565b60006020820183511015151561162e576040517f08c379a000000000000000000000000000000000000000000000000000000000815260040180806020018281038252602a8152602001807f746f42797465733332206279746573206c656e677468206d757374206265206181526020017f74206c656173742033320000000000000000000000000000000000000000000081525060400191505060405180910390fd5b60008260208501015190508091505092915050565b600080821115156116bc576040517f08c379a000000000000000000000000000000000000000000000000000000000815260040180806020018281038252601a8152602001807f536166654d6174683a206469766973696f6e206279207a65726f00000000000081525060200191505060405180910390fd5b600082848115156116c957fe5b0490508091505092915050565b604080519081016040528060008152602001600081525090565b60408051908101604052806000815260200160008152509056fea165627a7a72305820088922df4148f7329081b939ab2d40e56de201343014e9cc2f69e79f818f2ad60029",
  "source": "pragma solidity >=0.4.21 <0.6.0;\r\n\r\nimport \"./RlpLibrary.sol\";\r\nimport \"./RskPowLibrary.sol\";\r\n\r\ncontract BlockRecorder {\r\n    address public mmrProvider;\r\n    \r\n    struct BlockData {\r\n        uint number;\r\n        uint difficulty;\r\n        bytes32 receiptRoot;\r\n        bool mmrProved;\r\n    }\r\n    \r\n    mapping(bytes32 => BlockData) public blockData;\r\n    \r\n    modifier onlyMMRProvider() {\r\n        require(msg.sender == mmrProvider, \"Only MMR Provider can call this function\");\r\n        _;\r\n    }\r\n    \r\n    constructor(address _mmrProvider) public {\r\n        mmrProvider = _mmrProvider;\r\n    }\r\n    \r\n    function recordBlock(bytes memory blk) public {        \r\n        bytes32 hash = keccak256(blk);   \r\n\r\n        RlpLibrary.RlpItem[] memory items = RlpLibrary.getRlpItems(blk, 0);\r\n        \r\n        uint blockDifficulty = RlpLibrary.rlpItemToUint256(blk, items[7].offset, items[7].length);\r\n        uint blockNumber = RlpLibrary.rlpItemToUint256(blk, items[8].offset, items[8].length);\r\n        \r\n        bytes memory bitcoinMergedMiningHeader = RlpLibrary.rlpItemToBytes(blk, items[16].offset, items[16].length);\r\n        \r\n        require(RskPowLibrary.isValid(blockDifficulty, bitcoinMergedMiningHeader), \"Block difficulty doesn't reach the target\");\r\n        \r\n        bytes memory trrbytes = RlpLibrary.rlpItemToBytes(blk, items[5].offset, items[5].length);\r\n        bytes32 trrhash;\r\n        \r\n        assembly {\r\n            trrhash := mload(add(trrbytes, 0x20))\r\n        }\r\n        \r\n        blockData[hash].number = blockNumber;\r\n        blockData[hash].difficulty = blockDifficulty;\r\n        blockData[hash].receiptRoot = trrhash;\r\n    }\r\n    \r\n    function mmrProved(bytes32 blockHash) public onlyMMRProvider {\r\n        blockData[blockHash].mmrProved = true;\r\n    }\r\n    \r\n    function getBlockReceiptRoot(bytes32 blockHash) public view returns (bytes32) {\r\n        return blockData[blockHash].receiptRoot;\r\n    }\r\n    \r\n    function getBlockMMRProved(bytes32 blockHash) public view returns (bool) {\r\n        return blockData[blockHash].mmrProved;\r\n    }\r\n}\r\n\r\n",
  "sourcePath": "C:\\git\\tokenbridge\\bridge\\contracts\\BlockRecorder.sol",
  "compiler": {
    "name": "solc",
    "version": "0.5.0+commit.1d4f565a.Emscripten.clang"
  },
  "schemaVersion": "3.0.8",
  "updatedAt": "2019-10-12T19:39:35.093Z",
  "devdoc": {
    "methods": {}
  },
  "userdoc": {
    "methods": {}
  }
}