{
  "contractName": "Bridge",
  "abi": [
    {
      "constant": false,
      "inputs": [],
      "name": "unpause",
      "outputs": [],
      "payable": false,
      "stateMutability": "nonpayable",
      "type": "function"
    },
    {
      "constant": true,
      "inputs": [
        {
          "name": "account",
          "type": "address"
        }
      ],
      "name": "isPauser",
      "outputs": [
        {
          "name": "",
          "type": "bool"
        }
      ],
      "payable": false,
      "stateMutability": "view",
      "type": "function"
    },
    {
      "constant": true,
      "inputs": [],
      "name": "manager",
      "outputs": [
        {
          "name": "",
          "type": "address"
        }
      ],
      "payable": false,
      "stateMutability": "view",
      "type": "function"
    },
    {
      "constant": true,
      "inputs": [],
      "name": "paused",
      "outputs": [
        {
          "name": "",
          "type": "bool"
        }
      ],
      "payable": false,
      "stateMutability": "view",
      "type": "function"
    },
    {
      "constant": true,
      "inputs": [
        {
          "name": "",
          "type": "address"
        }
      ],
      "name": "knownTokens",
      "outputs": [
        {
          "name": "",
          "type": "bool"
        }
      ],
      "payable": false,
      "stateMutability": "view",
      "type": "function"
    },
    {
      "constant": true,
      "inputs": [],
      "name": "blocksBetweenCrossEvents",
      "outputs": [
        {
          "name": "",
          "type": "uint256"
        }
      ],
      "payable": false,
      "stateMutability": "view",
      "type": "function"
    },
    {
      "constant": false,
      "inputs": [],
      "name": "renouncePauser",
      "outputs": [],
      "payable": false,
      "stateMutability": "nonpayable",
      "type": "function"
    },
    {
      "constant": true,
      "inputs": [],
      "name": "pendingTransfersCount",
      "outputs": [
        {
          "name": "",
          "type": "uint256"
        }
      ],
      "payable": false,
      "stateMutability": "view",
      "type": "function"
    },
    {
      "constant": true,
      "inputs": [],
      "name": "lastCrossEventBlock",
      "outputs": [
        {
          "name": "",
          "type": "uint256"
        }
      ],
      "payable": false,
      "stateMutability": "view",
      "type": "function"
    },
    {
      "constant": false,
      "inputs": [
        {
          "name": "account",
          "type": "address"
        }
      ],
      "name": "addPauser",
      "outputs": [],
      "payable": false,
      "stateMutability": "nonpayable",
      "type": "function"
    },
    {
      "constant": false,
      "inputs": [],
      "name": "pause",
      "outputs": [],
      "payable": false,
      "stateMutability": "nonpayable",
      "type": "function"
    },
    {
      "constant": true,
      "inputs": [
        {
          "name": "",
          "type": "uint256"
        }
      ],
      "name": "pendingTransferStruct",
      "outputs": [
        {
          "name": "token",
          "type": "address"
        },
        {
          "name": "receiver",
          "type": "address"
        },
        {
          "name": "amount",
          "type": "uint256"
        },
        {
          "name": "symbol",
          "type": "string"
        }
      ],
      "payable": false,
      "stateMutability": "view",
      "type": "function"
    },
    {
      "constant": true,
      "inputs": [],
      "name": "minimumPedingTransfersCount",
      "outputs": [
        {
          "name": "",
          "type": "uint256"
        }
      ],
      "payable": false,
      "stateMutability": "view",
      "type": "function"
    },
    {
      "constant": true,
      "inputs": [
        {
          "name": "",
          "type": "address"
        }
      ],
      "name": "mappedTokens",
      "outputs": [
        {
          "name": "",
          "type": "address"
        }
      ],
      "payable": false,
      "stateMutability": "view",
      "type": "function"
    },
    {
      "constant": true,
      "inputs": [
        {
          "name": "",
          "type": "address"
        }
      ],
      "name": "originalTokens",
      "outputs": [
        {
          "name": "",
          "type": "address"
        }
      ],
      "payable": false,
      "stateMutability": "view",
      "type": "function"
    },
    {
      "constant": true,
      "inputs": [
        {
          "name": "",
          "type": "address"
        }
      ],
      "name": "mappedAddresses",
      "outputs": [
        {
          "name": "",
          "type": "address"
        }
      ],
      "payable": false,
      "stateMutability": "view",
      "type": "function"
    },
    {
      "inputs": [
        {
          "name": "_manager",
          "type": "address"
        },
        {
          "name": "_symbolPrefix",
          "type": "uint8"
        },
        {
          "name": "_blocksBetweenCrossEvents",
          "type": "uint256"
        },
        {
          "name": "_minimumPedingTransfersCount",
          "type": "uint256"
        }
      ],
      "payable": false,
      "stateMutability": "nonpayable",
      "type": "constructor"
    },
    {
      "anonymous": false,
      "inputs": [
        {
          "indexed": true,
          "name": "token",
          "type": "address"
        },
        {
          "indexed": false,
          "name": "symbol",
          "type": "string"
        }
      ],
      "name": "Token",
      "type": "event"
    },
    {
      "anonymous": false,
      "inputs": [
        {
          "indexed": true,
          "name": "_tokenAddress",
          "type": "address"
        },
        {
          "indexed": true,
          "name": "_to",
          "type": "address"
        },
        {
          "indexed": false,
          "name": "_amount",
          "type": "uint256"
        }
      ],
      "name": "Cross",
      "type": "event"
    },
    {
      "anonymous": false,
      "inputs": [
        {
          "indexed": false,
          "name": "account",
          "type": "address"
        }
      ],
      "name": "Paused",
      "type": "event"
    },
    {
      "anonymous": false,
      "inputs": [
        {
          "indexed": false,
          "name": "account",
          "type": "address"
        }
      ],
      "name": "Unpaused",
      "type": "event"
    },
    {
      "anonymous": false,
      "inputs": [
        {
          "indexed": true,
          "name": "account",
          "type": "address"
        }
      ],
      "name": "PauserAdded",
      "type": "event"
    },
    {
      "anonymous": false,
      "inputs": [
        {
          "indexed": true,
          "name": "account",
          "type": "address"
        }
      ],
      "name": "PauserRemoved",
      "type": "event"
    },
    {
      "constant": false,
      "inputs": [
        {
          "name": "to",
          "type": "address"
        },
        {
          "name": "amount",
          "type": "uint256"
        },
        {
          "name": "data",
          "type": "bytes"
        }
      ],
      "name": "onTokenTransfer",
      "outputs": [
        {
          "name": "success",
          "type": "bool"
        }
      ],
      "payable": false,
      "stateMutability": "nonpayable",
      "type": "function"
    },
    {
      "constant": false,
      "inputs": [],
      "name": "emitEvent",
      "outputs": [
        {
          "name": "success",
          "type": "bool"
        }
      ],
      "payable": false,
      "stateMutability": "nonpayable",
      "type": "function"
    },
    {
      "constant": false,
      "inputs": [
        {
          "name": "token",
          "type": "address"
        },
        {
          "name": "symbol",
          "type": "string"
        }
      ],
      "name": "processToken",
      "outputs": [
        {
          "name": "",
          "type": "bool"
        }
      ],
      "payable": false,
      "stateMutability": "nonpayable",
      "type": "function"
    },
    {
      "constant": false,
      "inputs": [
        {
          "name": "tokenAddress",
          "type": "address"
        },
        {
          "name": "receiver",
          "type": "address"
        },
        {
          "name": "amount",
          "type": "uint256"
        }
      ],
      "name": "acceptTransfer",
      "outputs": [
        {
          "name": "",
          "type": "bool"
        }
      ],
      "payable": false,
      "stateMutability": "nonpayable",
      "type": "function"
    },
    {
      "constant": false,
      "inputs": [
        {
          "name": "newmanager",
          "type": "address"
        }
      ],
      "name": "changeManager",
      "outputs": [],
      "payable": false,
      "stateMutability": "nonpayable",
      "type": "function"
    },
    {
      "constant": false,
      "inputs": [
        {
          "name": "from",
          "type": "address"
        },
        {
          "name": "amount",
          "type": "uint256"
        },
        {
          "name": "",
          "type": "bytes"
        }
      ],
      "name": "tokenFallback",
      "outputs": [
        {
          "name": "",
          "type": "bool"
        }
      ],
      "payable": false,
      "stateMutability": "nonpayable",
      "type": "function"
    },
    {
      "constant": false,
      "inputs": [
        {
          "name": "to",
          "type": "address"
        }
      ],
      "name": "mapAddress",
      "outputs": [],
      "payable": false,
      "stateMutability": "nonpayable",
      "type": "function"
    },
    {
      "constant": true,
      "inputs": [
        {
          "name": "account",
          "type": "address"
        }
      ],
      "name": "getMappedAddress",
      "outputs": [
        {
          "name": "",
          "type": "address"
        }
      ],
      "payable": false,
      "stateMutability": "view",
      "type": "function"
    },
    {
      "constant": false,
      "inputs": [
        {
          "name": "tokenToUse",
          "type": "address"
        },
        {
          "name": "amount",
          "type": "uint256"
        }
      ],
      "name": "receiveTokens",
      "outputs": [
        {
          "name": "",
          "type": "bool"
        }
      ],
      "payable": false,
      "stateMutability": "nonpayable",
      "type": "function"
    }
  ],
  "bytecode": "0x60806040523480156200001157600080fd5b506040516080806200652e833981018060405260808110156200003357600080fd5b81019080805190602001909291908051906020019092919080519060200190929190805190602001909291905050506200007c3362000235640100000000026401000000009004565b6000600160006101000a81548160ff021916908315150217905550600073ffffffffffffffffffffffffffffffffffffffff168473ffffffffffffffffffffffffffffffffffffffff16141515156200013d576040517f08c379a000000000000000000000000000000000000000000000000000000000815260040180806020018281038252600d8152602001807f456d707479206d616e616765720000000000000000000000000000000000000081525060200191505060405180910390fd5b60008360ff1614151515620001ba576040517f08c379a00000000000000000000000000000000000000000000000000000000081526004018080602001828103825260138152602001807f456d7074792073796d626f6c207072656669780000000000000000000000000081525060200191505060405180910390fd5b836001806101000a81548173ffffffffffffffffffffffffffffffffffffffff021916908373ffffffffffffffffffffffffffffffffffffffff16021790555082600160156101000a81548160ff021916908360ff1602179055506000600981905550816003819055508060048190555050505050620004b2565b620002598160006200029f64010000000002620038ab179091906401000000009004565b8073ffffffffffffffffffffffffffffffffffffffff167f6719d08c1888103bea251a4ed56406bd0c3e69723c8a1686e017e7bbe159b6f860405160405180910390a250565b620002ba82826200038e640100000000026401000000009004565b15151562000330576040517f08c379a000000000000000000000000000000000000000000000000000000000815260040180806020018281038252601f8152602001807f526f6c65733a206163636f756e7420616c72656164792068617320726f6c650081525060200191505060405180910390fd5b60018260000160008373ffffffffffffffffffffffffffffffffffffffff1673ffffffffffffffffffffffffffffffffffffffff16815260200190815260200160002060006101000a81548160ff0219169083151502179055505050565b60008073ffffffffffffffffffffffffffffffffffffffff168273ffffffffffffffffffffffffffffffffffffffff16141515156200045b576040517f08c379a00000000000000000000000000000000000000000000000000000000081526004018080602001828103825260228152602001807f526f6c65733a206163636f756e7420697320746865207a65726f20616464726581526020017f737300000000000000000000000000000000000000000000000000000000000081525060400191505060405180910390fd5b8260000160008373ffffffffffffffffffffffffffffffffffffffff1673ffffffffffffffffffffffffffffffffffffffff16815260200190815260200160002060009054906101000a900460ff16905092915050565b61606c80620004c26000396000f3fe60806040526004361062000163576000357c0100000000000000000000000000000000000000000000000000000000900463ffffffff1680633395dc7014620001685780633572913014620001ff5780633f4ba83a146200027657806346fbf68e1462000290578063481c6a7514620002fd5780634a270f4714620003575780635c975abb14620003ac5780635d44712914620003de5780636567f4f3146200044b5780636ef8d66d14620004795780637768ef0514620004935780637b0cb83914620004c157806380330ccb14620004f357806382dc1ec414620005215780638456cb59146200057657806396e609f81462000590578063a3fbbaae1462000625578063a4c0ed36146200067a578063c0ee0b8a146200078b578063c1bbf634146200089c578063d0e382e314620009c4578063e44985bf14620009f2578063e6ede14d1462000af9578063f74032f01462000b8e578063f7ae48c41462000c23575b600080fd5b3480156200017557600080fd5b50620001e5600480360360608110156200018e57600080fd5b81019080803573ffffffffffffffffffffffffffffffffffffffff169060200190929190803573ffffffffffffffffffffffffffffffffffffffff1690602001909291908035906020019092919050505062000cb8565b604051808215151515815260200191505060405180910390f35b3480156200020c57600080fd5b506200025c600480360360408110156200022557600080fd5b81019080803573ffffffffffffffffffffffffffffffffffffffff1690602001909291908035906020019092919050505062001026565b604051808215151515815260200191505060405180910390f35b3480156200028357600080fd5b506200028e6200119a565b005b3480156200029d57600080fd5b50620002e360048036036020811015620002b657600080fd5b81019080803573ffffffffffffffffffffffffffffffffffffffff16906020019092919050505062001345565b604051808215151515815260200191505060405180910390f35b3480156200030a57600080fd5b506200031562001364565b604051808273ffffffffffffffffffffffffffffffffffffffff1673ffffffffffffffffffffffffffffffffffffffff16815260200191505060405180910390f35b3480156200036457600080fd5b50620003aa600480360360208110156200037d57600080fd5b81019080803573ffffffffffffffffffffffffffffffffffffffff16906020019092919050505062001389565b005b348015620003b957600080fd5b50620003c462001490565b604051808215151515815260200191505060405180910390f35b348015620003eb57600080fd5b5062000431600480360360208110156200040457600080fd5b81019080803573ffffffffffffffffffffffffffffffffffffffff169060200190929190505050620014a7565b604051808215151515815260200191505060405180910390f35b3480156200045857600080fd5b5062000463620014c7565b6040518082815260200191505060405180910390f35b3480156200048657600080fd5b5062000491620014cd565b005b348015620004a057600080fd5b50620004ab620014da565b6040518082815260200191505060405180910390f35b348015620004ce57600080fd5b50620004d9620014e0565b604051808215151515815260200191505060405180910390f35b3480156200050057600080fd5b506200050b62001bd0565b6040518082815260200191505060405180910390f35b3480156200052e57600080fd5b5062000574600480360360208110156200054757600080fd5b81019080803573ffffffffffffffffffffffffffffffffffffffff16906020019092919050505062001bd6565b005b3480156200058357600080fd5b506200058e62001c8a565b005b3480156200059d57600080fd5b50620005e360048036036020811015620005b657600080fd5b81019080803573ffffffffffffffffffffffffffffffffffffffff16906020019092919050505062001e35565b604051808273ffffffffffffffffffffffffffffffffffffffff1673ffffffffffffffffffffffffffffffffffffffff16815260200191505060405180910390f35b3480156200063257600080fd5b5062000678600480360360208110156200064b57600080fd5b81019080803573ffffffffffffffffffffffffffffffffffffffff16906020019092919050505062001ee4565b005b3480156200068757600080fd5b506200077160048036036060811015620006a057600080fd5b81019080803573ffffffffffffffffffffffffffffffffffffffff1690602001909291908035906020019092919080359060200190640100000000811115620006e857600080fd5b820183602082011115620006fb57600080fd5b803590602001918460018302840111640100000000831117156200071e57600080fd5b91908080601f016020809104026020016040519081016040528093929190818152602001838380828437600081840152601f19601f82011690508083019250505050505050919291929050505062002118565b604051808215151515815260200191505060405180910390f35b3480156200079857600080fd5b506200088260048036036060811015620007b157600080fd5b81019080803573ffffffffffffffffffffffffffffffffffffffff1690602001909291908035906020019092919080359060200190640100000000811115620007f957600080fd5b8201836020820111156200080c57600080fd5b803590602001918460018302840111640100000000831117156200082f57600080fd5b91908080601f016020809104026020016040519081016040528093929190818152602001838380828437600081840152601f19601f820116905080830192505050505050509192919290505050620021b6565b604051808215151515815260200191505060405180910390f35b348015620008a957600080fd5b50620008d960048036036020811015620008c257600080fd5b810190808035906020019092919050505062002416565b604051808573ffffffffffffffffffffffffffffffffffffffff1673ffffffffffffffffffffffffffffffffffffffff1681526020018473ffffffffffffffffffffffffffffffffffffffff1673ffffffffffffffffffffffffffffffffffffffff16815260200183815260200180602001828103825283818151815260200191508051906020019080838360005b838110156200098557808201518184015260208101905062000968565b50505050905090810190601f168015620009b35780820380516001836020036101000a031916815260200191505b509550505050505060405180910390f35b348015620009d157600080fd5b50620009dc62002532565b6040518082815260200191505060405180910390f35b348015620009ff57600080fd5b5062000adf6004803603604081101562000a1857600080fd5b81019080803573ffffffffffffffffffffffffffffffffffffffff1690602001909291908035906020019064010000000081111562000a5657600080fd5b82018360208201111562000a6957600080fd5b8035906020019184600183028401116401000000008311171562000a8c57600080fd5b91908080601f016020809104026020016040519081016040528093929190818152602001838380828437600081840152601f19601f82011690508083019250505050505050919291929050505062002538565b604051808215151515815260200191505060405180910390f35b34801562000b0657600080fd5b5062000b4c6004803603602081101562000b1f57600080fd5b81019080803573ffffffffffffffffffffffffffffffffffffffff169060200190929190505050620029e7565b604051808273ffffffffffffffffffffffffffffffffffffffff1673ffffffffffffffffffffffffffffffffffffffff16815260200191505060405180910390f35b34801562000b9b57600080fd5b5062000be16004803603602081101562000bb457600080fd5b81019080803573ffffffffffffffffffffffffffffffffffffffff16906020019092919050505062002a1a565b604051808273ffffffffffffffffffffffffffffffffffffffff1673ffffffffffffffffffffffffffffffffffffffff16815260200191505060405180910390f35b34801562000c3057600080fd5b5062000c766004803603602081101562000c4957600080fd5b81019080803573ffffffffffffffffffffffffffffffffffffffff16906020019092919050505062002a4d565b604051808273ffffffffffffffffffffffffffffffffffffffff1673ffffffffffffffffffffffffffffffffffffffff16815260200191505060405180910390f35b60006001809054906101000a900473ffffffffffffffffffffffffffffffffffffffff1673ffffffffffffffffffffffffffffffffffffffff163373ffffffffffffffffffffffffffffffffffffffff1614151562000d7f576040517f08c379a00000000000000000000000000000000000000000000000000000000081526004018080602001828103825260198152602001807f53656e646572206973206e6f7420746865206d616e616765720000000000000081525060200191505060405180910390fd5b600160009054906101000a900460ff1615151562000e05576040517f08c379a00000000000000000000000000000000000000000000000000000000081526004018080602001828103825260108152602001807f5061757361626c653a207061757365640000000000000000000000000000000081525060200191505060405180910390fd5b600062000e128462001e35565b905062000e1f8562002a80565b1562000fe6576000600560008773ffffffffffffffffffffffffffffffffffffffff1673ffffffffffffffffffffffffffffffffffffffff16815260200190815260200160002060009054906101000a900473ffffffffffffffffffffffffffffffffffffffff1690508073ffffffffffffffffffffffffffffffffffffffff166340c10f1983866040518363ffffffff167c0100000000000000000000000000000000000000000000000000000000028152600401808373ffffffffffffffffffffffffffffffffffffffff1673ffffffffffffffffffffffffffffffffffffffff16815260200182815260200192505050602060405180830381600087803b15801562000f2d57600080fd5b505af115801562000f42573d6000803e3d6000fd5b505050506040513d602081101562000f5957600080fd5b8101908080519060200190929190505050151562000fdf576040517f08c379a000000000000000000000000000000000000000000000000000000000815260040180806020018281038252601b8152602001807f4572726f72206d696e74696e67206f6e207369646520746f6b656e000000000081525060200191505060405180910390fd5b506200101a565b60008590506200101882858373ffffffffffffffffffffffffffffffffffffffff1662002b189092919063ffffffff16565b505b60019150509392505050565b6000600160009054906101000a900460ff16151515620010ae576040517f08c379a00000000000000000000000000000000000000000000000000000000081526004018080602001828103825260108152602001807f5061757361626c653a207061757365640000000000000000000000000000000081525060200191505060405180910390fd5b620010b98362002c07565b620010e83330848673ffffffffffffffffffffffffffffffffffffffff1662002e98909392919063ffffffff16565b620010f583338462002fbc565b620011008362003291565b1562001190578273ffffffffffffffffffffffffffffffffffffffff166342966c68836040518263ffffffff167c010000000000000000000000000000000000000000000000000000000002815260040180828152602001915050600060405180830381600087803b1580156200117657600080fd5b505af11580156200118b573d6000803e3d6000fd5b505050505b6001905092915050565b620011a53362001345565b151562001240576040517f08c379a00000000000000000000000000000000000000000000000000000000081526004018080602001828103825260308152602001807f506175736572526f6c653a2063616c6c657220646f6573206e6f74206861766581526020017f207468652050617573657220726f6c650000000000000000000000000000000081525060400191505060405180910390fd5b600160009054906101000a900460ff161515620012c5576040517f08c379a00000000000000000000000000000000000000000000000000000000081526004018080602001828103825260148152602001807f5061757361626c653a206e6f742070617573656400000000000000000000000081525060200191505060405180910390fd5b6000600160006101000a81548160ff0219169083151502179055507f5db9ee0a495bf2e6ff9c91a7834c1ba4fdd244a5e8aa4e537bd38aeae4b073aa33604051808273ffffffffffffffffffffffffffffffffffffffff1673ffffffffffffffffffffffffffffffffffffffff16815260200191505060405180910390a1565b60006200135d8260006200332990919063ffffffff16565b9050919050565b6001809054906101000a900473ffffffffffffffffffffffffffffffffffffffff1681565b600160009054906101000a900460ff161515156200140f576040517f08c379a00000000000000000000000000000000000000000000000000000000081526004018080602001828103825260108152602001807f5061757361626c653a207061757365640000000000000000000000000000000081525060200191505060405180910390fd5b80600860003373ffffffffffffffffffffffffffffffffffffffff1673ffffffffffffffffffffffffffffffffffffffff16815260200190815260200160002060006101000a81548173ffffffffffffffffffffffffffffffffffffffff021916908373ffffffffffffffffffffffffffffffffffffffff16021790555050565b6000600160009054906101000a900460ff16905090565b60076020528060005260406000206000915054906101000a900460ff1681565b60035481565b620014d8336200344d565b565b60095481565b6000600160009054906101000a900460ff1615151562001568576040517f08c379a00000000000000000000000000000000000000000000000000000000081526004018080602001828103825260108152602001807f5061757361626c653a207061757365640000000000000000000000000000000081525060200191505060405180910390fd5b60035460025401431180620015805750600454600954115b1562001bc85760008090505b60095481101562001b9c57620015a16200399e565b600a82815481101515620015b157fe5b9060005260206000209060040201608060405190810160405290816000820160009054906101000a900473ffffffffffffffffffffffffffffffffffffffff1673ffffffffffffffffffffffffffffffffffffffff1673ffffffffffffffffffffffffffffffffffffffff1681526020016001820160009054906101000a900473ffffffffffffffffffffffffffffffffffffffff1673ffffffffffffffffffffffffffffffffffffffff1673ffffffffffffffffffffffffffffffffffffffff16815260200160028201548152602001600382018054600181600116156101000203166002900480601f0160208091040260200160405190810160405280929190818152602001828054600181600116156101000203166002900480156200171e5780601f10620016f2576101008083540402835291602001916200171e565b820191906000526020600020905b8154815290600101906020018083116200170057829003601f168201915b5050505050815250509050600081600001519050600073ffffffffffffffffffffffffffffffffffffffff16600660008373ffffffffffffffffffffffffffffffffffffffff1673ffffffffffffffffffffffffffffffffffffffff16815260200190815260200160002060009054906101000a900473ffffffffffffffffffffffffffffffffffffffff1673ffffffffffffffffffffffffffffffffffffffff161415156200183057600660008273ffffffffffffffffffffffffffffffffffffffff1673ffffffffffffffffffffffffffffffffffffffff16815260200190815260200160002060009054906101000a900473ffffffffffffffffffffffffffffffffffffffff16905062001a8c565b600760008273ffffffffffffffffffffffffffffffffffffffff1673ffffffffffffffffffffffffffffffffffffffff16815260200190815260200160002060009054906101000a900460ff16151562001a8b578073ffffffffffffffffffffffffffffffffffffffff167fe10e7fce45693f4d605d212ac900b44fa162e7b2d4c7a475cc2f4e63c6987fed8273ffffffffffffffffffffffffffffffffffffffff166395d89b416040518163ffffffff167c010000000000000000000000000000000000000000000000000000000002815260040160006040518083038186803b1580156200191f57600080fd5b505afa15801562001934573d6000803e3d6000fd5b505050506040513d6000823e3d601f19601f8201168201806040525060208110156200195f57600080fd5b8101908080516401000000008111156200197857600080fd5b828101905060208101848111156200198f57600080fd5b8151856001820283011164010000000082111715620019ad57600080fd5b50509291905050506040518080602001828103825283818151815260200191508051906020019080838360005b83811015620019f7578082015181840152602081019050620019da565b50505050905090810190601f16801562001a255780820380516001836020036101000a031916815260200191505b509250505060405180910390a26001600760008373ffffffffffffffffffffffffffffffffffffffff1673ffffffffffffffffffffffffffffffffffffffff16815260200190815260200160002060006101000a81548160ff0219169083151502179055505b5b62001a9b826020015162001e35565b73ffffffffffffffffffffffffffffffffffffffff168173ffffffffffffffffffffffffffffffffffffffff167fadfbae3b5ea3f4d9d325858fb3ff35602d53b7f91e4d98cc02b2baeb8abc12c984604001516040518082815260200191505060405180910390a3600a8381548110151562001b1357fe5b9060005260206000209060040201600080820160006101000a81549073ffffffffffffffffffffffffffffffffffffffff02191690556001820160006101000a81549073ffffffffffffffffffffffffffffffffffffffff0219169055600282016000905560038201600062001b8a9190620039f3565b5050505080806001019150506200158c565b506000600981905550436002819055506000600a8162001bbd919062003a3f565b506001905062001bcd565b600090505b90565b60025481565b62001be13362001345565b151562001c7c576040517f08c379a00000000000000000000000000000000000000000000000000000000081526004018080602001828103825260308152602001807f506175736572526f6c653a2063616c6c657220646f6573206e6f74206861766581526020017f207468652050617573657220726f6c650000000000000000000000000000000081525060400191505060405180910390fd5b62001c8781620034a9565b50565b62001c953362001345565b151562001d30576040517f08c379a00000000000000000000000000000000000000000000000000000000081526004018080602001828103825260308152602001807f506175736572526f6c653a2063616c6c657220646f6573206e6f74206861766581526020017f207468652050617573657220726f6c650000000000000000000000000000000081525060400191505060405180910390fd5b600160009054906101000a900460ff1615151562001db6576040517f08c379a00000000000000000000000000000000000000000000000000000000081526004018080602001828103825260108152602001807f5061757361626c653a207061757365640000000000000000000000000000000081525060200191505060405180910390fd5b60018060006101000a81548160ff0219169083151502179055507f62e78cea01bee320cd4e420270b5ea74000d11b0c9f74754ebdbfc544b05a25833604051808273ffffffffffffffffffffffffffffffffffffffff1673ffffffffffffffffffffffffffffffffffffffff16815260200191505060405180910390a1565b600080600860008473ffffffffffffffffffffffffffffffffffffffff1673ffffffffffffffffffffffffffffffffffffffff16815260200190815260200160002060009054906101000a900473ffffffffffffffffffffffffffffffffffffffff169050600073ffffffffffffffffffffffffffffffffffffffff168173ffffffffffffffffffffffffffffffffffffffff16141562001eda578291505062001edf565b809150505b919050565b6001809054906101000a900473ffffffffffffffffffffffffffffffffffffffff1673ffffffffffffffffffffffffffffffffffffffff163373ffffffffffffffffffffffffffffffffffffffff1614151562001fa9576040517f08c379a00000000000000000000000000000000000000000000000000000000081526004018080602001828103825260198152602001807f53656e646572206973206e6f7420746865206d616e616765720000000000000081525060200191505060405180910390fd5b600160009054906101000a900460ff161515156200202f576040517f08c379a00000000000000000000000000000000000000000000000000000000081526004018080602001828103825260108152602001807f5061757361626c653a207061757365640000000000000000000000000000000081525060200191505060405180910390fd5b600073ffffffffffffffffffffffffffffffffffffffff168173ffffffffffffffffffffffffffffffffffffffff1614151515620020d5576040517f08c379a000000000000000000000000000000000000000000000000000000000815260040180806020018281038252601c8152602001807f4e6577206d616e61676572206164647265737320697320656d7074790000000081525060200191505060405180910390fd5b806001806101000a81548173ffffffffffffffffffffffffffffffffffffffff021916908373ffffffffffffffffffffffffffffffffffffffff16021790555050565b6000600160009054906101000a900460ff16151515620021a0576040517f08c379a00000000000000000000000000000000000000000000000000000000081526004018080602001828103825260108152602001807f5061757361626c653a207061757365640000000000000000000000000000000081525060200191505060405180910390fd5b620021ad848484620021b6565b90509392505050565b6000600160009054906101000a900460ff161515156200223e576040517f08c379a00000000000000000000000000000000000000000000000000000000081526004018080602001828103825260108152602001807f5061757361626c653a207061757365640000000000000000000000000000000081525060200191505060405180910390fd5b6000600660003373ffffffffffffffffffffffffffffffffffffffff1673ffffffffffffffffffffffffffffffffffffffff16815260200190815260200160002060009054906101000a900473ffffffffffffffffffffffffffffffffffffffff169050600073ffffffffffffffffffffffffffffffffffffffff168173ffffffffffffffffffffffffffffffffffffffff16141515156200236e576040517f08c379a00000000000000000000000000000000000000000000000000000000081526004018080602001828103825260308152602001807f53656e646572206973206e6f74206f6e65206f66207468652063726f7373656481526020017f20746f6b656e20636f6e7472616374730000000000000000000000000000000081525060400191505060405180910390fd5b60003390506200238082878762002fbc565b8073ffffffffffffffffffffffffffffffffffffffff166342966c68866040518263ffffffff167c010000000000000000000000000000000000000000000000000000000002815260040180828152602001915050600060405180830381600087803b158015620023f057600080fd5b505af115801562002405573d6000803e3d6000fd5b505050506001925050509392505050565b600a818154811015156200242657fe5b90600052602060002090600402016000915090508060000160009054906101000a900473ffffffffffffffffffffffffffffffffffffffff16908060010160009054906101000a900473ffffffffffffffffffffffffffffffffffffffff1690806002015490806003018054600181600116156101000203166002900480601f016020809104026020016040519081016040528092919081815260200182805460018160011615610100020316600290048015620025285780601f10620024fc5761010080835404028352916020019162002528565b820191906000526020600020905b8154815290600101906020018083116200250a57829003601f168201915b5050505050905084565b60045481565b60006001809054906101000a900473ffffffffffffffffffffffffffffffffffffffff1673ffffffffffffffffffffffffffffffffffffffff163373ffffffffffffffffffffffffffffffffffffffff16141515620025ff576040517f08c379a00000000000000000000000000000000000000000000000000000000081526004018080602001828103825260198152602001807f53656e646572206973206e6f7420746865206d616e616765720000000000000081525060200191505060405180910390fd5b600160009054906101000a900460ff1615151562002685576040517f08c379a00000000000000000000000000000000000000000000000000000000081526004018080602001828103825260108152602001807f5061757361626c653a207061757365640000000000000000000000000000000081525060200191505060405180910390fd5b6000600560008573ffffffffffffffffffffffffffffffffffffffff1673ffffffffffffffffffffffffffffffffffffffff16815260200190815260200160002060009054906101000a900473ffffffffffffffffffffffffffffffffffffffff169050600073ffffffffffffffffffffffffffffffffffffffff168173ffffffffffffffffffffffffffffffffffffffff161415620029dc576060600160159054906101000a900460ff1684604051602001808360ff1660ff167f010000000000000000000000000000000000000000000000000000000000000002815260010182805190602001908083835b6020831015156200279a578051825260208201915060208101905060208303925062002773565b6001836020036101000a0380198251168184511680821785525050505050509050019250505060405160208183030381529060405290508081620027dd62003a74565b808060200180602001838103835285818151815260200191508051906020019080838360005b838110156200282057808201518184015260208101905062002803565b50505050905090810190601f1680156200284e5780820380516001836020036101000a031916815260200191505b50838103825284818151815260200191508051906020019080838360005b83811015620028895780820151818401526020810190506200286c565b50505050905090810190601f168015620028b75780820380516001836020036101000a031916815260200191505b50945050505050604051809103906000f080158015620028db573d6000803e3d6000fd5b50915081600560008773ffffffffffffffffffffffffffffffffffffffff1673ffffffffffffffffffffffffffffffffffffffff16815260200190815260200160002060006101000a81548173ffffffffffffffffffffffffffffffffffffffff021916908373ffffffffffffffffffffffffffffffffffffffff16021790555084600660008473ffffffffffffffffffffffffffffffffffffffff1673ffffffffffffffffffffffffffffffffffffffff16815260200190815260200160002060006101000a81548173ffffffffffffffffffffffffffffffffffffffff021916908373ffffffffffffffffffffffffffffffffffffffff160217905550505b600191505092915050565b60056020528060005260406000206000915054906101000a900473ffffffffffffffffffffffffffffffffffffffff1681565b60066020528060005260406000206000915054906101000a900473ffffffffffffffffffffffffffffffffffffffff1681565b60086020528060005260406000206000915054906101000a900473ffffffffffffffffffffffffffffffffffffffff1681565b60008073ffffffffffffffffffffffffffffffffffffffff16600560008473ffffffffffffffffffffffffffffffffffffffff1673ffffffffffffffffffffffffffffffffffffffff16815260200190815260200160002060009054906101000a900473ffffffffffffffffffffffffffffffffffffffff1673ffffffffffffffffffffffffffffffffffffffff1614159050919050565b62002c02838473ffffffffffffffffffffffffffffffffffffffff1663a9059cbb90507c0100000000000000000000000000000000000000000000000000000000028484604051602401808373ffffffffffffffffffffffffffffffffffffffff1673ffffffffffffffffffffffffffffffffffffffff16815260200182815260200192505050604051602081830303815290604052907bffffffffffffffffffffffffffffffffffffffffffffffffffffffff19166020820180517bffffffffffffffffffffffffffffffffffffffffffffffffffffffff838183161783525050505062003505565b505050565b60128173ffffffffffffffffffffffffffffffffffffffff1663313ce5676040518163ffffffff167c010000000000000000000000000000000000000000000000000000000002815260040160206040518083038186803b15801562002c6c57600080fd5b505afa15801562002c81573d6000803e3d6000fd5b505050506040513d602081101562002c9857600080fd5b810190808051906020019092919050505060ff1614151562002d22576040517f08c379a00000000000000000000000000000000000000000000000000000000081526004018080602001828103825260208152602001807f546f6b656e2068617320646563696d616c73206f74686572207468616e20313881525060200191505060405180910390fd5b60008173ffffffffffffffffffffffffffffffffffffffff166395d89b416040518163ffffffff167c010000000000000000000000000000000000000000000000000000000002815260040160006040518083038186803b15801562002d8757600080fd5b505afa15801562002d9c573d6000803e3d6000fd5b505050506040513d6000823e3d601f19601f82011682018060405250602081101562002dc757600080fd5b81019080805164010000000081111562002de057600080fd5b8281019050602081018481111562002df757600080fd5b815185600182028301116401000000008211171562002e1557600080fd5b5050929190505050511415151562002e95576040517f08c379a00000000000000000000000000000000000000000000000000000000081526004018080602001828103825260198152602001807f546f6b656e20646f65736e277420686176652073796d626f6c0000000000000081525060200191505060405180910390fd5b50565b62002fb6848573ffffffffffffffffffffffffffffffffffffffff166323b872dd90507c010000000000000000000000000000000000000000000000000000000002858585604051602401808473ffffffffffffffffffffffffffffffffffffffff1673ffffffffffffffffffffffffffffffffffffffff1681526020018373ffffffffffffffffffffffffffffffffffffffff1673ffffffffffffffffffffffffffffffffffffffff1681526020018281526020019350505050604051602081830303815290604052907bffffffffffffffffffffffffffffffffffffffffffffffffffffffff19166020820180517bffffffffffffffffffffffffffffffffffffffffffffffffffffffff838183161783525050505062003505565b50505050565b600160009054906101000a900460ff1615151562003042576040517f08c379a00000000000000000000000000000000000000000000000000000000081526004018080602001828103825260108152602001807f5061757361626c653a207061757365640000000000000000000000000000000081525060200191505060405180910390fd5b6200304d8362002c07565b600a6080604051908101604052808573ffffffffffffffffffffffffffffffffffffffff1681526020018473ffffffffffffffffffffffffffffffffffffffff1681526020018381526020018573ffffffffffffffffffffffffffffffffffffffff166395d89b416040518163ffffffff167c010000000000000000000000000000000000000000000000000000000002815260040160006040518083038186803b158015620030fc57600080fd5b505afa15801562003111573d6000803e3d6000fd5b505050506040513d6000823e3d601f19601f8201168201806040525060208110156200313c57600080fd5b8101908080516401000000008111156200315557600080fd5b828101905060208101848111156200316c57600080fd5b81518560018202830111640100000000821117156200318a57600080fd5b50509291905050508152509080600181540180825580915050906001820390600052602060002090600402016000909192909190915060008201518160000160006101000a81548173ffffffffffffffffffffffffffffffffffffffff021916908373ffffffffffffffffffffffffffffffffffffffff16021790555060208201518160010160006101000a81548173ffffffffffffffffffffffffffffffffffffffff021916908373ffffffffffffffffffffffffffffffffffffffff1602179055506040820151816002015560608201518160030190805190602001906200327692919062003a85565b50505050600960008154809291906001019190505550505050565b60008073ffffffffffffffffffffffffffffffffffffffff16600660008473ffffffffffffffffffffffffffffffffffffffff1673ffffffffffffffffffffffffffffffffffffffff16815260200190815260200160002060009054906101000a900473ffffffffffffffffffffffffffffffffffffffff1673ffffffffffffffffffffffffffffffffffffffff1614159050919050565b60008073ffffffffffffffffffffffffffffffffffffffff168273ffffffffffffffffffffffffffffffffffffffff1614151515620033f6576040517f08c379a00000000000000000000000000000000000000000000000000000000081526004018080602001828103825260228152602001807f526f6c65733a206163636f756e7420697320746865207a65726f20616464726581526020017f737300000000000000000000000000000000000000000000000000000000000081525060400191505060405180910390fd5b8260000160008373ffffffffffffffffffffffffffffffffffffffff1673ffffffffffffffffffffffffffffffffffffffff16815260200190815260200160002060009054906101000a900460ff16905092915050565b62003463816000620037a690919063ffffffff16565b8073ffffffffffffffffffffffffffffffffffffffff167fcd265ebaf09df2871cc7bd4133404a235ba12eff2041bb89d9c714a2621c7c7e60405160405180910390a250565b620034bf816000620038ab90919063ffffffff16565b8073ffffffffffffffffffffffffffffffffffffffff167f6719d08c1888103bea251a4ed56406bd0c3e69723c8a1686e017e7bbe159b6f860405160405180910390a250565b620035268273ffffffffffffffffffffffffffffffffffffffff166200398b565b15156200359b576040517f08c379a000000000000000000000000000000000000000000000000000000000815260040180806020018281038252601f8152602001807f5361666545524332303a2063616c6c20746f206e6f6e2d636f6e74726163740081525060200191505060405180910390fd5b600060608373ffffffffffffffffffffffffffffffffffffffff16836040518082805190602001908083835b602083101515620035ee5780518252602082019150602081019050602083039250620035c7565b6001836020036101000a0380198251168184511680821785525050505050509050019150506000604051808303816000865af19150503d806000811462003652576040519150601f19603f3d011682016040523d82523d6000602084013e62003657565b606091505b5091509150811515620036d2576040517f08c379a00000000000000000000000000000000000000000000000000000000081526004018080602001828103825260208152602001807f5361666545524332303a206c6f772d6c6576656c2063616c6c206661696c656481525060200191505060405180910390fd5b600081511115620037a057808060200190516020811015620036f357600080fd5b810190808051906020019092919050505015156200379f576040517f08c379a000000000000000000000000000000000000000000000000000000000815260040180806020018281038252602a8152602001807f5361666545524332303a204552433230206f7065726174696f6e20646964206e81526020017f6f7420737563636565640000000000000000000000000000000000000000000081525060400191505060405180910390fd5b5b50505050565b620037b2828262003329565b15156200384d576040517f08c379a00000000000000000000000000000000000000000000000000000000081526004018080602001828103825260218152602001807f526f6c65733a206163636f756e7420646f6573206e6f74206861766520726f6c81526020017f650000000000000000000000000000000000000000000000000000000000000081525060400191505060405180910390fd5b60008260000160008373ffffffffffffffffffffffffffffffffffffffff1673ffffffffffffffffffffffffffffffffffffffff16815260200190815260200160002060006101000a81548160ff0219169083151502179055505050565b620038b7828262003329565b1515156200392d576040517f08c379a000000000000000000000000000000000000000000000000000000000815260040180806020018281038252601f8152602001807f526f6c65733a206163636f756e7420616c72656164792068617320726f6c650081525060200191505060405180910390fd5b60018260000160008373ffffffffffffffffffffffffffffffffffffffff1673ffffffffffffffffffffffffffffffffffffffff16815260200190815260200160002060006101000a81548160ff0219169083151502179055505050565b600080823b905060008111915050919050565b608060405190810160405280600073ffffffffffffffffffffffffffffffffffffffff168152602001600073ffffffffffffffffffffffffffffffffffffffff16815260200160008152602001606081525090565b50805460018160011615610100020316600290046000825580601f1062003a1b575062003a3c565b601f01602090049060005260206000209081019062003a3b919062003b0c565b5b50565b81548183558181111562003a6f5760040281600402836000526020600020918201910162003a6e919062003b34565b5b505050565b6040516124828062003bbf83390190565b828054600181600116156101000203166002900490600052602060002090601f016020900481019282601f1062003ac857805160ff191683800117855562003af9565b8280016001018555821562003af9579182015b8281111562003af857825182559160200191906001019062003adb565b5b50905062003b08919062003b0c565b5090565b62003b3191905b8082111562003b2d57600081600090555060010162003b13565b5090565b90565b62003bbb91905b8082111562003bb757600080820160006101000a81549073ffffffffffffffffffffffffffffffffffffffff02191690556001820160006101000a81549073ffffffffffffffffffffffffffffffffffffffff0219169055600282016000905560038201600062003bad9190620039f3565b5060040162003b3b565b5090565b9056fe60806040523480156200001157600080fd5b506040516200248238038062002482833981018060405260408110156200003757600080fd5b8101908080516401000000008111156200005057600080fd5b828101905060208101848111156200006757600080fd5b81518560018202830111640100000000821117156200008557600080fd5b50509291906020018051640100000000811115620000a257600080fd5b82810190506020810184811115620000b957600080fd5b8151856001820283011164010000000082111715620000d757600080fd5b5050929190505050818160128260009080519060200190620000fb929190620003d2565b50816001908051906020019062000114929190620003d2565b5080600260006101000a81548160ff021916908360ff1602179055505050506200014d3362000155640100000000026401000000009004565b505062000481565b62000179816006620001bf6401000000000262001de6179091906401000000009004565b8073ffffffffffffffffffffffffffffffffffffffff167f6ae172837ea30b801fbfcdd4108aa1d5bf8ff775444fd70256b44e6bf3dfc3f660405160405180910390a250565b620001da8282620002ae640100000000026401000000009004565b15151562000250576040517f08c379a000000000000000000000000000000000000000000000000000000000815260040180806020018281038252601f8152602001807f526f6c65733a206163636f756e7420616c72656164792068617320726f6c650081525060200191505060405180910390fd5b60018260000160008373ffffffffffffffffffffffffffffffffffffffff1673ffffffffffffffffffffffffffffffffffffffff16815260200190815260200160002060006101000a81548160ff0219169083151502179055505050565b60008073ffffffffffffffffffffffffffffffffffffffff168273ffffffffffffffffffffffffffffffffffffffff16141515156200037b576040517f08c379a00000000000000000000000000000000000000000000000000000000081526004018080602001828103825260228152602001807f526f6c65733a206163636f756e7420697320746865207a65726f20616464726581526020017f737300000000000000000000000000000000000000000000000000000000000081525060400191505060405180910390fd5b8260000160008373ffffffffffffffffffffffffffffffffffffffff1673ffffffffffffffffffffffffffffffffffffffff16815260200190815260200160002060009054906101000a900460ff16905092915050565b828054600181600116156101000203166002900490600052602060002090601f016020900481019282601f106200041557805160ff191683800117855562000446565b8280016001018555821562000446579182015b828111156200044557825182559160200191906001019062000428565b5b50905062000455919062000459565b5090565b6200047e91905b808211156200047a57600081600090555060010162000460565b5090565b90565b611ff180620004916000396000f3fe6080604052600436106100fc576000357c0100000000000000000000000000000000000000000000000000000000900463ffffffff16806306fdde0314610101578063095ea7b31461019157806318160ddd1461020457806323b872dd1461022f578063313ce567146102c257806339509351146102f35780634000aea01461036657806340c10f191461047057806342966c68146104e357806370a082311461051e57806379cc67901461058357806395d89b41146105de578063983b2d561461066e57806398650275146106bf578063a457c2d7146106d6578063a9059cbb14610749578063aa271e1a146107bc578063dd62ed3e14610825575b600080fd5b34801561010d57600080fd5b506101166108aa565b6040518080602001828103825283818151815260200191508051906020019080838360005b8381101561015657808201518184015260208101905061013b565b50505050905090810190601f1680156101835780820380516001836020036101000a031916815260200191505b509250505060405180910390f35b34801561019d57600080fd5b506101ea600480360360408110156101b457600080fd5b81019080803573ffffffffffffffffffffffffffffffffffffffff1690602001909291908035906020019092919050505061094c565b604051808215151515815260200191505060405180910390f35b34801561021057600080fd5b50610219610963565b6040518082815260200191505060405180910390f35b34801561023b57600080fd5b506102a86004803603606081101561025257600080fd5b81019080803573ffffffffffffffffffffffffffffffffffffffff169060200190929190803573ffffffffffffffffffffffffffffffffffffffff1690602001909291908035906020019092919050505061096d565b604051808215151515815260200191505060405180910390f35b3480156102ce57600080fd5b506102d7610a1e565b604051808260ff1660ff16815260200191505060405180910390f35b3480156102ff57600080fd5b5061034c6004803603604081101561031657600080fd5b81019080803573ffffffffffffffffffffffffffffffffffffffff16906020019092919080359060200190929190505050610a35565b604051808215151515815260200191505060405180910390f35b34801561037257600080fd5b506104566004803603606081101561038957600080fd5b81019080803573ffffffffffffffffffffffffffffffffffffffff16906020019092919080359060200190929190803590602001906401000000008111156103d057600080fd5b8201836020820111156103e257600080fd5b8035906020019184600183028401116401000000008311171561040457600080fd5b91908080601f016020809104026020016040519081016040528093929190818152602001838380828437600081840152601f19601f820116905080830192505050505050509192919290505050610ada565b604051808215151515815260200191505060405180910390f35b34801561047c57600080fd5b506104c96004803603604081101561049357600080fd5b81019080803573ffffffffffffffffffffffffffffffffffffffff16906020019092919080359060200190929190505050610d2b565b604051808215151515815260200191505060405180910390f35b3480156104ef57600080fd5b5061051c6004803603602081101561050657600080fd5b8101908080359060200190929190505050610de4565b005b34801561052a57600080fd5b5061056d6004803603602081101561054157600080fd5b81019080803573ffffffffffffffffffffffffffffffffffffffff169060200190929190505050610df1565b6040518082815260200191505060405180910390f35b34801561058f57600080fd5b506105dc600480360360408110156105a657600080fd5b81019080803573ffffffffffffffffffffffffffffffffffffffff16906020019092919080359060200190929190505050610e3a565b005b3480156105ea57600080fd5b506105f3610e48565b6040518080602001828103825283818151815260200191508051906020019080838360005b83811015610633578082015181840152602081019050610618565b50505050905090810190601f1680156106605780820380516001836020036101000a031916815260200191505b509250505060405180910390f35b34801561067a57600080fd5b506106bd6004803603602081101561069157600080fd5b81019080803573ffffffffffffffffffffffffffffffffffffffff169060200190929190505050610eea565b005b3480156106cb57600080fd5b506106d4610f99565b005b3480156106e257600080fd5b5061072f600480360360408110156106f957600080fd5b81019080803573ffffffffffffffffffffffffffffffffffffffff16906020019092919080359060200190929190505050610fa4565b604051808215151515815260200191505060405180910390f35b34801561075557600080fd5b506107a26004803603604081101561076c57600080fd5b81019080803573ffffffffffffffffffffffffffffffffffffffff16906020019092919080359060200190929190505050611049565b604051808215151515815260200191505060405180910390f35b3480156107c857600080fd5b5061080b600480360360208110156107df57600080fd5b81019080803573ffffffffffffffffffffffffffffffffffffffff169060200190929190505050611060565b604051808215151515815260200191505060405180910390f35b34801561083157600080fd5b506108946004803603604081101561084857600080fd5b81019080803573ffffffffffffffffffffffffffffffffffffffff169060200190929190803573ffffffffffffffffffffffffffffffffffffffff16906020019092919050505061107d565b6040518082815260200191505060405180910390f35b606060008054600181600116156101000203166002900480601f0160208091040260200160405190810160405280929190818152602001828054600181600116156101000203166002900480156109425780601f1061091757610100808354040283529160200191610942565b820191906000526020600020905b81548152906001019060200180831161092557829003601f168201915b5050505050905090565b6000610959338484611104565b6001905092915050565b6000600554905090565b600061097a848484611385565b610a138433610a0e85600460008a73ffffffffffffffffffffffffffffffffffffffff1673ffffffffffffffffffffffffffffffffffffffff16815260200190815260200160002060003373ffffffffffffffffffffffffffffffffffffffff1673ffffffffffffffffffffffffffffffffffffffff168152602001908152602001600020546116af90919063ffffffff16565b611104565b600190509392505050565b6000600260009054906101000a900460ff16905090565b6000610ad03384610acb85600460003373ffffffffffffffffffffffffffffffffffffffff1673ffffffffffffffffffffffffffffffffffffffff16815260200190815260200160002060008973ffffffffffffffffffffffffffffffffffffffff1673ffffffffffffffffffffffffffffffffffffffff1681526020019081526020016000205461173a90919063ffffffff16565b611104565b6001905092915050565b600080610ae78585611049565b9050801515610afa576000915050610d24565b8473ffffffffffffffffffffffffffffffffffffffff163373ffffffffffffffffffffffffffffffffffffffff167fe19260aff97b920c7df27010903aeb9c8d2be5d310a2c67824cf3f15396e4c1686866040518083815260200180602001828103825283818151815260200191508051906020019080838360005b83811015610b91578082015181840152602081019050610b76565b50505050905090810190601f168015610bbe5780820380516001836020036101000a031916815260200191505b50935050505060405180910390a360008590508073ffffffffffffffffffffffffffffffffffffffff1663c0ee0b8a3387876040518463ffffffff167c0100000000000000000000000000000000000000000000000000000000028152600401808473ffffffffffffffffffffffffffffffffffffffff1673ffffffffffffffffffffffffffffffffffffffff16815260200183815260200180602001828103825283818151815260200191508051906020019080838360005b83811015610c93578082015181840152602081019050610c78565b50505050905090810190601f168015610cc05780820380516001836020036101000a031916815260200191505b50945050505050602060405180830381600087803b158015610ce157600080fd5b505af1158015610cf5573d6000803e3d6000fd5b505050506040513d6020811015610d0b57600080fd5b8101908080519060200190929190505050506001925050505b9392505050565b6000610d3633611060565b1515610dd0576040517f08c379a00000000000000000000000000000000000000000000000000000000081526004018080602001828103825260308152602001807f4d696e746572526f6c653a2063616c6c657220646f6573206e6f74206861766581526020017f20746865204d696e74657220726f6c650000000000000000000000000000000081525060400191505060405180910390fd5b610dda83836117c4565b6001905092915050565b610dee3382611983565b50565b6000600360008373ffffffffffffffffffffffffffffffffffffffff1673ffffffffffffffffffffffffffffffffffffffff168152602001908152602001600020549050919050565b610e448282611b68565b5050565b606060018054600181600116156101000203166002900480601f016020809104026020016040519081016040528092919081815260200182805460018160011615610100020316600290048015610ee05780601f10610eb557610100808354040283529160200191610ee0565b820191906000526020600020905b815481529060010190602001808311610ec357829003601f168201915b5050505050905090565b610ef333611060565b1515610f8d576040517f08c379a00000000000000000000000000000000000000000000000000000000081526004018080602001828103825260308152602001807f4d696e746572526f6c653a2063616c6c657220646f6573206e6f74206861766581526020017f20746865204d696e74657220726f6c650000000000000000000000000000000081525060400191505060405180910390fd5b610f9681611c0f565b50565b610fa233611c69565b565b600061103f338461103a85600460003373ffffffffffffffffffffffffffffffffffffffff1673ffffffffffffffffffffffffffffffffffffffff16815260200190815260200160002060008973ffffffffffffffffffffffffffffffffffffffff1673ffffffffffffffffffffffffffffffffffffffff168152602001908152602001600020546116af90919063ffffffff16565b611104565b6001905092915050565b6000611056338484611385565b6001905092915050565b6000611076826006611cc390919063ffffffff16565b9050919050565b6000600460008473ffffffffffffffffffffffffffffffffffffffff1673ffffffffffffffffffffffffffffffffffffffff16815260200190815260200160002060008373ffffffffffffffffffffffffffffffffffffffff1673ffffffffffffffffffffffffffffffffffffffff16815260200190815260200160002054905092915050565b600073ffffffffffffffffffffffffffffffffffffffff168373ffffffffffffffffffffffffffffffffffffffff16141515156111cf576040517f08c379a00000000000000000000000000000000000000000000000000000000081526004018080602001828103825260248152602001807f45524332303a20617070726f76652066726f6d20746865207a65726f2061646481526020017f726573730000000000000000000000000000000000000000000000000000000081525060400191505060405180910390fd5b600073ffffffffffffffffffffffffffffffffffffffff168273ffffffffffffffffffffffffffffffffffffffff161415151561129a576040517f08c379a00000000000000000000000000000000000000000000000000000000081526004018080602001828103825260228152602001807f45524332303a20617070726f766520746f20746865207a65726f20616464726581526020017f737300000000000000000000000000000000000000000000000000000000000081525060400191505060405180910390fd5b80600460008573ffffffffffffffffffffffffffffffffffffffff1673ffffffffffffffffffffffffffffffffffffffff16815260200190815260200160002060008473ffffffffffffffffffffffffffffffffffffffff1673ffffffffffffffffffffffffffffffffffffffff168152602001908152602001600020819055508173ffffffffffffffffffffffffffffffffffffffff168373ffffffffffffffffffffffffffffffffffffffff167f8c5be1e5ebec7d5bd14f71427d1e84f3dd0314c0f7b2291e5b200ac8c7c3b925836040518082815260200191505060405180910390a3505050565b600073ffffffffffffffffffffffffffffffffffffffff168373ffffffffffffffffffffffffffffffffffffffff1614151515611450576040517f08c379a00000000000000000000000000000000000000000000000000000000081526004018080602001828103825260258152602001807f45524332303a207472616e736665722066726f6d20746865207a65726f20616481526020017f647265737300000000000000000000000000000000000000000000000000000081525060400191505060405180910390fd5b600073ffffffffffffffffffffffffffffffffffffffff168273ffffffffffffffffffffffffffffffffffffffff161415151561151b576040517f08c379a00000000000000000000000000000000000000000000000000000000081526004018080602001828103825260238152602001807f45524332303a207472616e7366657220746f20746865207a65726f206164647281526020017f657373000000000000000000000000000000000000000000000000000000000081525060400191505060405180910390fd5b61156d81600360008673ffffffffffffffffffffffffffffffffffffffff1673ffffffffffffffffffffffffffffffffffffffff168152602001908152602001600020546116af90919063ffffffff16565b600360008573ffffffffffffffffffffffffffffffffffffffff1673ffffffffffffffffffffffffffffffffffffffff1681526020019081526020016000208190555061160281600360008573ffffffffffffffffffffffffffffffffffffffff1673ffffffffffffffffffffffffffffffffffffffff1681526020019081526020016000205461173a90919063ffffffff16565b600360008473ffffffffffffffffffffffffffffffffffffffff1673ffffffffffffffffffffffffffffffffffffffff168152602001908152602001600020819055508173ffffffffffffffffffffffffffffffffffffffff168373ffffffffffffffffffffffffffffffffffffffff167fddf252ad1be2c89b69c2b068fc378daa952ba7f163c4a11628f55a4df523b3ef836040518082815260200191505060405180910390a3505050565b6000828211151515611729576040517f08c379a000000000000000000000000000000000000000000000000000000000815260040180806020018281038252601e8152602001807f536166654d6174683a207375627472616374696f6e206f766572666c6f77000081525060200191505060405180910390fd5b600082840390508091505092915050565b60008082840190508381101515156117ba576040517f08c379a000000000000000000000000000000000000000000000000000000000815260040180806020018281038252601b8152602001807f536166654d6174683a206164646974696f6e206f766572666c6f77000000000081525060200191505060405180910390fd5b8091505092915050565b600073ffffffffffffffffffffffffffffffffffffffff168273ffffffffffffffffffffffffffffffffffffffff1614151515611869576040517f08c379a000000000000000000000000000000000000000000000000000000000815260040180806020018281038252601f8152602001807f45524332303a206d696e7420746f20746865207a65726f20616464726573730081525060200191505060405180910390fd5b61187e8160055461173a90919063ffffffff16565b6005819055506118d681600360008573ffffffffffffffffffffffffffffffffffffffff1673ffffffffffffffffffffffffffffffffffffffff1681526020019081526020016000205461173a90919063ffffffff16565b600360008473ffffffffffffffffffffffffffffffffffffffff1673ffffffffffffffffffffffffffffffffffffffff168152602001908152602001600020819055508173ffffffffffffffffffffffffffffffffffffffff16600073ffffffffffffffffffffffffffffffffffffffff167fddf252ad1be2c89b69c2b068fc378daa952ba7f163c4a11628f55a4df523b3ef836040518082815260200191505060405180910390a35050565b600073ffffffffffffffffffffffffffffffffffffffff168273ffffffffffffffffffffffffffffffffffffffff1614151515611a4e576040517f08c379a00000000000000000000000000000000000000000000000000000000081526004018080602001828103825260218152602001807f45524332303a206275726e2066726f6d20746865207a65726f2061646472657381526020017f730000000000000000000000000000000000000000000000000000000000000081525060400191505060405180910390fd5b611a63816005546116af90919063ffffffff16565b600581905550611abb81600360008573ffffffffffffffffffffffffffffffffffffffff1673ffffffffffffffffffffffffffffffffffffffff168152602001908152602001600020546116af90919063ffffffff16565b600360008473ffffffffffffffffffffffffffffffffffffffff1673ffffffffffffffffffffffffffffffffffffffff16815260200190815260200160002081905550600073ffffffffffffffffffffffffffffffffffffffff168273ffffffffffffffffffffffffffffffffffffffff167fddf252ad1be2c89b69c2b068fc378daa952ba7f163c4a11628f55a4df523b3ef836040518082815260200191505060405180910390a35050565b611b728282611983565b611c0b8233611c0684600460008873ffffffffffffffffffffffffffffffffffffffff1673ffffffffffffffffffffffffffffffffffffffff16815260200190815260200160002060003373ffffffffffffffffffffffffffffffffffffffff1673ffffffffffffffffffffffffffffffffffffffff168152602001908152602001600020546116af90919063ffffffff16565b611104565b5050565b611c23816006611de690919063ffffffff16565b8073ffffffffffffffffffffffffffffffffffffffff167f6ae172837ea30b801fbfcdd4108aa1d5bf8ff775444fd70256b44e6bf3dfc3f660405160405180910390a250565b611c7d816006611ec390919063ffffffff16565b8073ffffffffffffffffffffffffffffffffffffffff167fe94479a9f7e1952cc78f2d6baab678adc1b772d936c6583def489e524cb6669260405160405180910390a250565b60008073ffffffffffffffffffffffffffffffffffffffff168273ffffffffffffffffffffffffffffffffffffffff1614151515611d8f576040517f08c379a00000000000000000000000000000000000000000000000000000000081526004018080602001828103825260228152602001807f526f6c65733a206163636f756e7420697320746865207a65726f20616464726581526020017f737300000000000000000000000000000000000000000000000000000000000081525060400191505060405180910390fd5b8260000160008373ffffffffffffffffffffffffffffffffffffffff1673ffffffffffffffffffffffffffffffffffffffff16815260200190815260200160002060009054906101000a900460ff16905092915050565b611df08282611cc3565b151515611e65576040517f08c379a000000000000000000000000000000000000000000000000000000000815260040180806020018281038252601f8152602001807f526f6c65733a206163636f756e7420616c72656164792068617320726f6c650081525060200191505060405180910390fd5b60018260000160008373ffffffffffffffffffffffffffffffffffffffff1673ffffffffffffffffffffffffffffffffffffffff16815260200190815260200160002060006101000a81548160ff0219169083151502179055505050565b611ecd8282611cc3565b1515611f67576040517f08c379a00000000000000000000000000000000000000000000000000000000081526004018080602001828103825260218152602001807f526f6c65733a206163636f756e7420646f6573206e6f74206861766520726f6c81526020017f650000000000000000000000000000000000000000000000000000000000000081525060400191505060405180910390fd5b60008260000160008373ffffffffffffffffffffffffffffffffffffffff1673ffffffffffffffffffffffffffffffffffffffff16815260200190815260200160002060006101000a81548160ff021916908315150217905550505056fea165627a7a723058205b0a55da938edbf7fbe9a52ed506fc57040770a478a49e9915c3c740a3456cd70029a165627a7a723058209d8555f204cd72b9a46eecb044e1e3ab476457ace5260c27590b66afa1dfe71b0029",
  "source": "pragma solidity >=0.4.21 <0.6.0;\r\n\r\nimport \"./zeppelin/token/ERC20/ERC20Detailed.sol\";\r\nimport \"./zeppelin/token/ERC20/SafeERC20.sol\";\r\nimport \"./zeppelin/lifecycle/Pausable.sol\";\r\nimport \"./zeppelin/math/SafeMath.sol\";\r\nimport \"./ERC677TransferReceiver.sol\";\r\nimport \"./Transferable.sol\";\r\nimport \"./SideToken.sol\";\r\n\r\ncontract Bridge is Transferable, ERC677TransferReceiver, Pausable {\r\n    using SafeMath for uint256;\r\n    using SafeERC20 for ERC20Detailed;\r\n\r\n    address public manager;\r\n    uint8 symbolPrefix;\r\n    uint256 public lastCrossEventBlock;\r\n    uint256 public blocksBetweenCrossEvents;\r\n    uint256 public minimumPedingTransfersCount;\r\n\r\n    mapping (address => SideToken) public mappedTokens;\r\n    mapping (address => address) public originalTokens;\r\n    mapping (address => bool) public knownTokens;\r\n    \r\n    mapping (address => address) public mappedAddresses;\r\n\r\n    struct TransferStruct {\r\n        address token;\r\n        address receiver;\r\n        uint256 amount;\r\n        string symbol;\r\n    }\r\n    \r\n    uint256 public pendingTransfersCount;\r\n    TransferStruct[] public pendingTransferStruct;\r\n    \r\n    event Token(address indexed token, string symbol);\r\n    event Cross(address indexed _tokenAddress, address indexed _to, uint256 _amount);\r\n\r\n    modifier onlyManager() {\r\n        require(msg.sender == manager, \"Sender is not the manager\");\r\n        _;\r\n    }\r\n\r\n    constructor(address _manager, uint8 _symbolPrefix, uint256 _blocksBetweenCrossEvents, uint256 _minimumPedingTransfersCount) public {\r\n        require(_manager != address(0), \"Empty manager\");\r\n        require(_symbolPrefix != 0, \"Empty symbol prefix\");\r\n        manager = _manager;\r\n        symbolPrefix = _symbolPrefix;\r\n        pendingTransfersCount = 0;\r\n        blocksBetweenCrossEvents = _blocksBetweenCrossEvents;\r\n        minimumPedingTransfersCount = _minimumPedingTransfersCount;\r\n    }\r\n\r\n    function onTokenTransfer(address to, uint256 amount, bytes memory data) public whenNotPaused returns (bool success) {\r\n        return tokenFallback(to, amount, data);\r\n    }\r\n\r\n    function addPendingTransfer(ERC20Detailed fromToken, address to, uint256 amount) private whenNotPaused {\r\n        validateToken(fromToken);\r\n        //TODO should group by address and sender\r\n        pendingTransferStruct.push(TransferStruct(address(fromToken), to, amount, fromToken.symbol()));\r\n        pendingTransfersCount++;\r\n    }\r\n\r\n    function emitEvent() public whenNotPaused returns (bool success) {\r\n        //TODO add validations\r\n        if(block.number > lastCrossEventBlock + blocksBetweenCrossEvents || pendingTransfersCount > minimumPedingTransfersCount ) {\r\n            for(uint256 i = 0; i < pendingTransfersCount; i++) {\r\n                TransferStruct memory transfer = pendingTransferStruct[i];\r\n                address token = transfer.token;\r\n                \r\n                if (originalTokens[token] != address(0))\r\n                    token = originalTokens[token];\r\n                else if (!knownTokens[token]) {\r\n                    emit Token(token, ERC20Detailed(token).symbol());\r\n                    knownTokens[token] = true;\r\n                }\r\n                    \r\n                emit Cross(token, getMappedAddress(transfer.receiver), transfer.amount);\r\n                \r\n                delete pendingTransferStruct[i];\r\n            }\r\n            \r\n            pendingTransfersCount = 0;\r\n            lastCrossEventBlock = block.number;\r\n            \r\n            pendingTransferStruct.length = 0;\r\n            \r\n            return true;\r\n        }\r\n        \r\n        return false;\r\n    }\r\n    \r\n    function processToken(address token, string memory symbol) public onlyManager whenNotPaused returns (bool) {\r\n        SideToken sideToken = mappedTokens[token];\r\n        \r\n        if (address(sideToken) == address(0)) {\r\n            string memory newSymbol = string(abi.encodePacked(symbolPrefix, symbol));\r\n            sideToken = new SideToken(newSymbol, newSymbol);\r\n            mappedTokens[token] = sideToken;\r\n            originalTokens[address(sideToken)] = token;\r\n        }\r\n        \r\n        return true;\r\n    }\r\n\r\n    function acceptTransfer(address tokenAddress, address receiver, uint256 amount)\r\n        public onlyManager whenNotPaused returns(bool) {\r\n        address to = getMappedAddress(receiver);\r\n\r\n        if (isMappedToken(tokenAddress)) {\r\n            SideToken sideToken = mappedTokens[tokenAddress];\r\n            require(sideToken.mint(to, amount), \"Error minting on side token\");\r\n        }\r\n        else {\r\n            ERC20Detailed token = ERC20Detailed(tokenAddress);\r\n            token.safeTransfer(to, amount);\r\n        }\r\n        \r\n        return true;\r\n    }\r\n\r\n    function changeManager(address newmanager) public onlyManager whenNotPaused {\r\n        require(newmanager != address(0), \"New manager address is empty\");\r\n        \r\n        manager = newmanager;\r\n    }\r\n\r\n    function tokenFallback(address from, uint256 amount, bytes memory) public whenNotPaused returns (bool) {\r\n        //TODO add validations and manage callback from contracts correctly\r\n        //TODO If its a mirror contract created by us we should brun the tokens and sent then back. If not we shoulld add it to the pending trasnfer\r\n        address originalTokenAddress = originalTokens[msg.sender];\r\n        require(originalTokenAddress != address(0), \"Sender is not one of the crossed token contracts\");\r\n        SideToken sideToken = SideToken(msg.sender);\r\n        addPendingTransfer(ERC20Detailed(originalTokenAddress), from, amount);\r\n        sideToken.burn(amount);\r\n        return true;\r\n    }\r\n\r\n    function mapAddress(address to) public whenNotPaused {\r\n        mappedAddresses[msg.sender] = to;\r\n    }\r\n\r\n    function getMappedAddress(address account) public view returns (address) {\r\n        address mapped = mappedAddresses[account];\r\n\r\n        if (mapped == address(0))\r\n            return account;\r\n\r\n        return mapped;\r\n    }\r\n\r\n    function validateToken(ERC20Detailed tokenToUse) private view {\r\n        require(tokenToUse.decimals() == 18, \"Token has decimals other than 18\");\r\n        require(bytes(tokenToUse.symbol()).length != 0, \"Token doesn't have symbol\");\r\n    }\r\n\r\n    function receiveTokens(ERC20Detailed tokenToUse, uint256 amount) public whenNotPaused returns (bool) {\r\n        //TODO should we accept  that people call receiveTokens with the SideToken???\r\n        validateToken(tokenToUse);\r\n        tokenToUse.safeTransferFrom(msg.sender, address(this), amount);\r\n        addPendingTransfer(tokenToUse, msg.sender, amount);\r\n        \r\n        if (isSideToken(address(tokenToUse)))\r\n            SideToken(address(tokenToUse)).burn(amount);\r\n            \r\n        return true;\r\n    }\r\n    \r\n    function isSideToken(address token) private view returns (bool) {\r\n        return originalTokens[token] != address(0);\r\n    }\r\n    \r\n    function isMappedToken(address token) private view returns (bool) {\r\n        return address(mappedTokens[token]) != address(0);\r\n    }\r\n}\r\n\r\n",
  "sourcePath": "C:/git/tokenbridge/bridge/contracts/Bridge.sol",
  "compiler": {
    "name": "solc",
    "version": "0.5.0+commit.1d4f565a.Emscripten.clang"
  },
  "schemaVersion": "3.0.8",
  "updatedAt": "2019-10-12T19:39:35.140Z",
  "devdoc": {
    "methods": {
      "pause()": {
        "details": "Called by a pauser to pause, triggers stopped state.\r"
      },
      "paused()": {
        "details": "Returns true if the contract is paused, and false otherwise.\r"
      },
      "unpause()": {
        "details": "Called by a pauser to unpause, returns to normal state.\r"
      }
    }
  },
  "userdoc": {
    "methods": {}
  }
}