{
  "contractName": "CallNoReturn",
  "abi": [
    {
      "constant": true,
      "inputs": [],
      "name": "noreturn",
      "outputs": [],
      "payable": false,
      "stateMutability": "pure",
      "type": "function"
    }
  ],
  "bytecode": "0x6080604052348015600f57600080fd5b50606c80601d6000396000f3fe6080604052348015600f57600080fd5b506004361060285760003560e01c80630f965a4114602d575b600080fd5b60336035565b005b56fea265627a7a72315820d7ba7f1673bf66c9098db657e12fbe27fb6e63a651f2b593a36699b22d7320ba64736f6c63430005100032",
  "source": "pragma solidity >=0.5.0 <0.6.0;\r\n\r\ncontract CallNoReturn {\r\n    function noreturn() public pure {\r\n    }\r\n}\r\n\r\n",
  "sourcePath": "C:\\git\\RskApi\\samples\\commands\\contracts\\CallNoReturn.sol",
  "compiler": {
    "name": "solc",
    "version": "0.5.16+commit.9c3226ce.Emscripten.clang"
  },
  "schemaVersion": "3.0.23",
  "updatedAt": "2020-12-10T22:55:43.976Z",
  "devdoc": {
    "methods": {}
  },
  "userdoc": {
    "methods": {}
  }
}