{
  "contractName": "CallWithGas",
  "abi": [
    {
      "constant": false,
      "inputs": [
        {
          "internalType": "contract Counter",
          "name": "counter",
          "type": "address"
        }
      ],
      "name": "increment",
      "outputs": [],
      "payable": false,
      "stateMutability": "nonpayable",
      "type": "function"
    }
  ],
  "bytecode": "0x608060405234801561001057600080fd5b50610109806100206000396000f3fe6080604052348015600f57600080fd5b506004361060285760003560e01c806345f43dd814602d575b600080fd5b606c60048036036020811015604157600080fd5b81019080803573ffffffffffffffffffffffffffffffffffffffff169060200190929190505050606e565b005b8073ffffffffffffffffffffffffffffffffffffffff1663d09de08a620f42406040518263ffffffff1660e01b8152600401600060405180830381600088803b15801560b957600080fd5b5087f115801560cc573d6000803e3d6000fd5b50505050505056fea265627a7a72315820e96af1af7578dcbde031d591ab83216acb57935b1b2eb1bc68388b1f0991402d64736f6c63430005100032",
  "source": "pragma solidity >=0.5.0 <0.6.0;\r\n\r\nimport \"./Counter.sol\";\r\n\r\ncontract CallWithGas {\r\n    function increment(Counter counter) public {\r\n        counter.increment.gas(1000000)();\r\n    }\r\n}\r\n\r\n",
  "sourcePath": "C:\\git\\RskApi\\samples\\commands\\contracts\\CallWithGas.sol",
  "compiler": {
    "name": "solc",
    "version": "0.5.16+commit.9c3226ce.Emscripten.clang"
  },
  "schemaVersion": "3.0.23",
  "updatedAt": "2021-02-25T17:44:48.981Z",
  "devdoc": {
    "methods": {}
  },
  "userdoc": {
    "methods": {}
  }
}