{
  "contractName": "ContractA",
  "abi": [
    {
      "inputs": [],
      "payable": false,
      "stateMutability": "nonpayable",
      "type": "constructor"
    },
    {
      "payable": true,
      "stateMutability": "payable",
      "type": "fallback"
    },
    {
      "constant": false,
      "inputs": [],
      "name": "invoke",
      "outputs": [],
      "payable": false,
      "stateMutability": "nonpayable",
      "type": "function"
    },
    {
      "constant": false,
      "inputs": [
        {
          "internalType": "address payable",
          "name": "receiver",
          "type": "address"
        },
        {
          "internalType": "uint256",
          "name": "amount",
          "type": "uint256"
        }
      ],
      "name": "transfer",
      "outputs": [],
      "payable": false,
      "stateMutability": "nonpayable",
      "type": "function"
    },
    {
      "constant": false,
      "inputs": [
        {
          "internalType": "address payable",
          "name": "receiver",
          "type": "address"
        }
      ],
      "name": "kill",
      "outputs": [],
      "payable": false,
      "stateMutability": "nonpayable",
      "type": "function"
    },
    {
      "constant": true,
      "inputs": [
        {
          "internalType": "uint256",
          "name": "value",
          "type": "uint256"
        }
      ],
      "name": "success",
      "outputs": [],
      "payable": false,
      "stateMutability": "view",
      "type": "function"
    },
    {
      "constant": false,
      "inputs": [
        {
          "internalType": "uint256",
          "name": "times",
          "type": "uint256"
        }
      ],
      "name": "lotofwork",
      "outputs": [],
      "payable": false,
      "stateMutability": "nonpayable",
      "type": "function"
    }
  ],
  "bytecode": "0x608060405234801561001057600080fd5b5060405161001d906100e7565b604051809103906000f080158015610039573d6000803e3d6000fd5b506000806101000a81548173ffffffffffffffffffffffffffffffffffffffff021916908373ffffffffffffffffffffffffffffffffffffffff160217905550604051610085906100f4565b604051809103906000f0801580156100a1573d6000803e3d6000fd5b50600160006101000a81548173ffffffffffffffffffffffffffffffffffffffff021916908373ffffffffffffffffffffffffffffffffffffffff160217905550610101565b6104158061058583390190565b61014a8061099a83390190565b610475806101106000396000f3fe60806040526004361061004a5760003560e01c806385f7893f1461004c578063888ea24314610087578063a9059cbb146100c2578063cab7f5211461011d578063cbf0b0c014610134575b005b34801561005857600080fd5b506100856004803603602081101561006f57600080fd5b8101908080359060200190929190505050610185565b005b34801561009357600080fd5b506100c0600480360360208110156100aa57600080fd5b81019080803590602001909291905050506101d1565b005b3480156100ce57600080fd5b5061011b600480360360408110156100e557600080fd5b81019080803573ffffffffffffffffffffffffffffffffffffffff169060200190929190803590602001909291905050506102d7565b005b34801561012957600080fd5b50610132610322565b005b34801561014057600080fd5b506101836004803603602081101561015757600080fd5b81019080803573ffffffffffffffffffffffffffffffffffffffff169060200190929190505050610427565b005b60008090505b818110156101cd57806040516020018082815260200191505060405160208183030381529060405280519060200120600281905550808060010191505061018b565b5050565b60008111610247576040517f08c379a00000000000000000000000000000000000000000000000000000000081526004018080602001828103825260188152602001807f76616c75652073686f756c6420626520706f736974697665000000000000000081525060200191505060405180910390fd5b6000809054906101000a900473ffffffffffffffffffffffffffffffffffffffff1673ffffffffffffffffffffffffffffffffffffffff1663888ea243600183036040518263ffffffff1660e01b81526004018082815260200191505060006040518083038186803b1580156102bc57600080fd5b505afa1580156102d0573d6000803e3d6000fd5b5050505050565b8173ffffffffffffffffffffffffffffffffffffffff166108fc829081150290604051600060405180830381858888f1935050505015801561031d573d6000803e3d6000fd5b505050565b6000809054906101000a900473ffffffffffffffffffffffffffffffffffffffff1673ffffffffffffffffffffffffffffffffffffffff1663cab7f5216040518163ffffffff1660e01b8152600401600060405180830381600087803b15801561038b57600080fd5b505af115801561039f573d6000803e3d6000fd5b50505050600160009054906101000a900473ffffffffffffffffffffffffffffffffffffffff1673ffffffffffffffffffffffffffffffffffffffff1663cab7f5216040518163ffffffff1660e01b8152600401600060405180830381600087803b15801561040d57600080fd5b505af1158015610421573d6000803e3d6000fd5b50505050565b8073ffffffffffffffffffffffffffffffffffffffff16fffea265627a7a723158200de56e88b84f82b85e4c21a939b96a2eebd2486f4c73b5058a2c048424e5f86e64736f6c63430005100032608060405234801561001057600080fd5b5060405161001d9061007e565b604051809103906000f080158015610039573d6000803e3d6000fd5b506000806101000a81548173ffffffffffffffffffffffffffffffffffffffff021916908373ffffffffffffffffffffffffffffffffffffffff16021790555061008b565b61014a806102cb83390190565b6102318061009a6000396000f3fe608060405234801561001057600080fd5b50600436106100365760003560e01c8063888ea2431461003b578063cab7f52114610069575b600080fd5b6100676004803603602081101561005157600080fd5b8101908080359060200190929190505050610073565b005b610071610179565b005b600081116100e9576040517f08c379a00000000000000000000000000000000000000000000000000000000081526004018080602001828103825260188152602001807f76616c75652073686f756c6420626520706f736974697665000000000000000081525060200191505060405180910390fd5b6000809054906101000a900473ffffffffffffffffffffffffffffffffffffffff1673ffffffffffffffffffffffffffffffffffffffff1663888ea243600183036040518263ffffffff1660e01b81526004018082815260200191505060006040518083038186803b15801561015e57600080fd5b505afa158015610172573d6000803e3d6000fd5b5050505050565b6000809054906101000a900473ffffffffffffffffffffffffffffffffffffffff1673ffffffffffffffffffffffffffffffffffffffff1663cab7f5216040518163ffffffff1660e01b8152600401600060405180830381600087803b1580156101e257600080fd5b505af11580156101f6573d6000803e3d6000fd5b5050505056fea265627a7a7231582041cb6ab933a05faffa4d00ff0d1dad4a2b22979da9b945d1c6c041ace865574664736f6c63430005100032608060405234801561001057600080fd5b5061012a806100206000396000f3fe6080604052348015600f57600080fd5b506004361060325760003560e01c8063888ea243146037578063cab7f521146062575b600080fd5b606060048036036020811015604b57600080fd5b8101908080359060200190929190505050606a565b005b606860e2565b005b6000811160df576040517f08c379a00000000000000000000000000000000000000000000000000000000081526004018080602001828103825260188152602001807f76616c75652073686f756c6420626520706f736974697665000000000000000081525060200191505060405180910390fd5b50565b600080815480929190600101919050555056fea265627a7a72315820381dcfe0ae00b487faa86a610c40676c2f9943d38e75789a86e4f78cb43e968e64736f6c63430005100032608060405234801561001057600080fd5b5061012a806100206000396000f3fe6080604052348015600f57600080fd5b506004361060325760003560e01c8063888ea243146037578063cab7f521146062575b600080fd5b606060048036036020811015604b57600080fd5b8101908080359060200190929190505050606a565b005b606860e2565b005b6000811160df576040517f08c379a00000000000000000000000000000000000000000000000000000000081526004018080602001828103825260188152602001807f76616c75652073686f756c6420626520706f736974697665000000000000000081525060200191505060405180910390fd5b50565b600080815480929190600101919050555056fea265627a7a72315820381dcfe0ae00b487faa86a610c40676c2f9943d38e75789a86e4f78cb43e968e64736f6c63430005100032",
  "source": "pragma solidity >=0.5.0 <0.6.0;\r\n\r\nimport \"./ContractB.sol\";\r\nimport \"./ContractC.sol\";\r\n\r\ncontract ContractA {\r\n    ContractB b;\r\n    ContractC c;\r\n    bytes32 hash;\r\n    \r\n    constructor() public {\r\n        b = new ContractB();\r\n        c = new ContractC();\r\n    }\r\n    \r\n    function() external payable { }\r\n    \r\n    function invoke() public {\r\n        b.invoke();\r\n        c.invoke();\r\n    }\r\n    \r\n    function transfer(address payable receiver, uint amount) public {\r\n        receiver.transfer(amount);\r\n    }\r\n    \r\n    function kill(address payable receiver) public {\r\n        selfdestruct(receiver);\r\n    }\r\n    \r\n    function success(uint value) view public {\r\n        require(value > 0, \"value should be positive\");\r\n        b.success(value - 1);\r\n    }\r\n    \r\n    function lotofwork(uint times) public {\r\n        for (uint k = 0; k < times; k++)\r\n            hash = keccak256(abi.encode(k));\r\n    }\r\n}\r\n\r\n",
  "sourcePath": "C:\\git\\RskApi\\samples\\commands\\contracts\\ContractA.sol",
  "compiler": {
    "name": "solc",
    "version": "0.5.16+commit.9c3226ce.Emscripten.clang"
  },
  "schemaVersion": "3.0.23",
  "updatedAt": "2021-02-19T17:08:56.405Z",
  "devdoc": {
    "methods": {}
  },
  "userdoc": {
    "methods": {}
  }
}