{
  "contractName": "ContractC",
  "abi": [
    {
      "constant": false,
      "inputs": [],
      "name": "invoke",
      "outputs": [],
      "payable": false,
      "stateMutability": "nonpayable",
      "type": "function"
    },
    {
      "constant": true,
      "inputs": [
        {
          "internalType": "uint256",
          "name": "value",
          "type": "uint256"
        }
      ],
      "name": "success",
      "outputs": [],
      "payable": false,
      "stateMutability": "pure",
      "type": "function"
    }
  ],
  "bytecode": "0x608060405234801561001057600080fd5b5061012a806100206000396000f3fe6080604052348015600f57600080fd5b506004361060325760003560e01c8063888ea243146037578063cab7f521146062575b600080fd5b606060048036036020811015604b57600080fd5b8101908080359060200190929190505050606a565b005b606860e2565b005b6000811160df576040517f08c379a00000000000000000000000000000000000000000000000000000000081526004018080602001828103825260188152602001807f76616c75652073686f756c6420626520706f736974697665000000000000000081525060200191505060405180910390fd5b50565b600080815480929190600101919050555056fea265627a7a72315820381dcfe0ae00b487faa86a610c40676c2f9943d38e75789a86e4f78cb43e968e64736f6c63430005100032",
  "source": "pragma solidity >=0.5.0 <0.6.0;\r\n\r\ncontract ContractC {\r\n    uint counter;\r\n    \r\n    function invoke() public {\r\n        counter++;\r\n    }\r\n    \r\n    function success(uint value) pure public {\r\n        require(value > 0, \"value should be positive\");\r\n    }\r\n}\r\n\r\n\r\n",
  "sourcePath": "C:\\git\\RskApi\\samples\\commands\\contracts\\ContractC.sol",
  "compiler": {
    "name": "solc",
    "version": "0.5.16+commit.9c3226ce.Emscripten.clang"
  },
  "schemaVersion": "3.0.23",
  "updatedAt": "2020-12-10T22:55:43.981Z",
  "devdoc": {
    "methods": {}
  },
  "userdoc": {
    "methods": {}
  }
}