{
  "contractName": "ContractC",
  "abi": [
    {
      "constant": false,
      "inputs": [],
      "name": "invoke",
      "outputs": [],
      "payable": false,
      "stateMutability": "nonpayable",
      "type": "function"
    },
    {
      "constant": false,
      "inputs": [
        {
          "name": "value",
          "type": "uint256"
        }
      ],
      "name": "success",
      "outputs": [],
      "payable": false,
      "stateMutability": "nonpayable",
      "type": "function"
    }
  ],
  "bytecode": "0x608060405234801561001057600080fd5b5061015d806100206000396000f3fe60806040526004361061004c576000357c0100000000000000000000000000000000000000000000000000000000900463ffffffff168063888ea24314610051578063cab7f5211461008c575b600080fd5b34801561005d57600080fd5b5061008a6004803603602081101561007457600080fd5b81019080803590602001909291905050506100a3565b005b34801561009857600080fd5b506100a161011e565b005b60008111151561011b576040517f08c379a00000000000000000000000000000000000000000000000000000000081526004018080602001828103825260188152602001807f76616c75652073686f756c6420626520706f736974697665000000000000000081525060200191505060405180910390fd5b50565b600080815480929190600101919050555056fea165627a7a72305820bb7e5d5d6c3f7780b3dae7ee7bedf68b7ddca01ccd960d496f6b4db12fc711d30029",
  "source": "pragma solidity >=0.5.0 <0.6.0;\r\n\r\ncontract ContractC {\r\n    uint counter;\r\n    \r\n    function invoke() public {\r\n        counter++;\r\n    }\r\n    \r\n    function success(uint value) public {\r\n        require(value > 0, \"value should be positive\");\r\n    }\r\n}\r\n\r\n\r\n",
  "sourcePath": "C:\\git\\RskApi\\samples\\commands\\contracts\\ContractC.sol",
  "compiler": {
    "name": "solc",
    "version": "0.5.0+commit.1d4f565a.Emscripten.clang"
  },
  "schemaVersion": "3.0.8",
  "updatedAt": "2019-11-16T15:29:02.740Z",
  "devdoc": {
    "methods": {}
  },
  "userdoc": {
    "methods": {}
  }
}