{
  "contractName": "ContractB",
  "abi": [
    {
      "inputs": [],
      "payable": false,
      "stateMutability": "nonpayable",
      "type": "constructor"
    },
    {
      "constant": false,
      "inputs": [],
      "name": "invoke",
      "outputs": [],
      "payable": false,
      "stateMutability": "nonpayable",
      "type": "function"
    },
    {
      "constant": true,
      "inputs": [
        {
          "internalType": "uint256",
          "name": "value",
          "type": "uint256"
        }
      ],
      "name": "success",
      "outputs": [],
      "payable": false,
      "stateMutability": "view",
      "type": "function"
    }
  ],
  "bytecode": "0x608060405234801561001057600080fd5b5060405161001d9061007e565b604051809103906000f080158015610039573d6000803e3d6000fd5b506000806101000a81548173ffffffffffffffffffffffffffffffffffffffff021916908373ffffffffffffffffffffffffffffffffffffffff16021790555061008b565b61014a806102cb83390190565b6102318061009a6000396000f3fe608060405234801561001057600080fd5b50600436106100365760003560e01c8063888ea2431461003b578063cab7f52114610069575b600080fd5b6100676004803603602081101561005157600080fd5b8101908080359060200190929190505050610073565b005b610071610179565b005b600081116100e9576040517f08c379a00000000000000000000000000000000000000000000000000000000081526004018080602001828103825260188152602001807f76616c75652073686f756c6420626520706f736974697665000000000000000081525060200191505060405180910390fd5b6000809054906101000a900473ffffffffffffffffffffffffffffffffffffffff1673ffffffffffffffffffffffffffffffffffffffff1663888ea243600183036040518263ffffffff1660e01b81526004018082815260200191505060006040518083038186803b15801561015e57600080fd5b505afa158015610172573d6000803e3d6000fd5b5050505050565b6000809054906101000a900473ffffffffffffffffffffffffffffffffffffffff1673ffffffffffffffffffffffffffffffffffffffff1663cab7f5216040518163ffffffff1660e01b8152600401600060405180830381600087803b1580156101e257600080fd5b505af11580156101f6573d6000803e3d6000fd5b5050505056fea265627a7a7231582041cb6ab933a05faffa4d00ff0d1dad4a2b22979da9b945d1c6c041ace865574664736f6c63430005100032608060405234801561001057600080fd5b5061012a806100206000396000f3fe6080604052348015600f57600080fd5b506004361060325760003560e01c8063888ea243146037578063cab7f521146062575b600080fd5b606060048036036020811015604b57600080fd5b8101908080359060200190929190505050606a565b005b606860e2565b005b6000811160df576040517f08c379a00000000000000000000000000000000000000000000000000000000081526004018080602001828103825260188152602001807f76616c75652073686f756c6420626520706f736974697665000000000000000081525060200191505060405180910390fd5b50565b600080815480929190600101919050555056fea265627a7a72315820381dcfe0ae00b487faa86a610c40676c2f9943d38e75789a86e4f78cb43e968e64736f6c63430005100032",
  "source": "pragma solidity >=0.5.0 <0.6.0;\r\n\r\nimport \"./ContractC.sol\";\r\n\r\ncontract ContractB {\r\n    ContractC c;\r\n    \r\n    constructor() public {\r\n        c = new ContractC();\r\n    }\r\n    \r\n    function invoke() public {\r\n        c.invoke();\r\n    }\r\n    \r\n    function success(uint value) view public {\r\n        require(value > 0, \"value should be positive\");\r\n        c.success(value - 1);\r\n    }\r\n}\r\n\r\n\r\n",
  "sourcePath": "C:\\git\\RskApi\\samples\\commands\\contracts\\ContractB.sol",
  "compiler": {
    "name": "solc",
    "version": "0.5.16+commit.9c3226ce.Emscripten.clang"
  },
  "schemaVersion": "3.0.23",
  "updatedAt": "2021-02-17T17:22:46.585Z",
  "devdoc": {
    "methods": {}
  },
  "userdoc": {
    "methods": {}
  }
}