{
  "contractName": "Counter",
  "abi": [
    {
      "constant": true,
      "inputs": [],
      "name": "counter",
      "outputs": [
        {
          "name": "",
          "type": "uint256"
        }
      ],
      "payable": false,
      "stateMutability": "view",
      "type": "function"
    },
    {
      "constant": false,
      "inputs": [],
      "name": "increment",
      "outputs": [],
      "payable": false,
      "stateMutability": "nonpayable",
      "type": "function"
    },
    {
      "constant": false,
      "inputs": [
        {
          "name": "value",
          "type": "uint256"
        }
      ],
      "name": "add",
      "outputs": [],
      "payable": false,
      "stateMutability": "nonpayable",
      "type": "function"
    },
    {
      "constant": true,
      "inputs": [],
      "name": "fail",
      "outputs": [],
      "payable": false,
      "stateMutability": "pure",
      "type": "function"
    }
  ],
  "bytecode": "0x608060405234801561001057600080fd5b506101ca806100206000396000f3fe608060405260043610610062576000357c0100000000000000000000000000000000000000000000000000000000900463ffffffff1680631003e2d21461006757806361bc221a146100a2578063a9cc4718146100cd578063d09de08a146100e4575b600080fd5b34801561007357600080fd5b506100a06004803603602081101561008a57600080fd5b81019080803590602001909291905050506100fb565b005b3480156100ae57600080fd5b506100b761010d565b6040518082815260200191505060405180910390f35b3480156100d957600080fd5b506100e2610113565b005b3480156100f057600080fd5b506100f961018b565b005b80600080828254019250508190555050565b60005481565b60001515610189576040517f08c379a000000000000000000000000000000000000000000000000000000000815260040180806020018281038252600a8152602001807f6661696c206572726f720000000000000000000000000000000000000000000081525060200191505060405180910390fd5b565b600080815480929190600101919050555056fea165627a7a72305820fb26bb26a99d16d6e7af699dfde4a91e3166e47b8ada41828695dd687bcf645c0029",
  "source": "pragma solidity >=0.5.0 <0.6.0;\r\n\r\ncontract Counter {\r\n    uint public counter;\r\n    \r\n    function increment() public {\r\n        counter++;\r\n    }\r\n    \r\n    function add(uint value) public {\r\n        counter += value;\r\n    }\r\n    \r\n    function fail() public pure {\r\n        require(false, \"fail error\");\r\n    }\r\n}\r\n\r\n\r\n",
  "sourcePath": "C:/git/RskApi/samples/commands/contracts/Counter.sol",
  "compiler": {
    "name": "solc",
    "version": "0.5.0+commit.1d4f565a.Emscripten.clang"
  },
  "schemaVersion": "3.0.8",
  "updatedAt": "2019-10-03T19:24:48.077Z",
  "devdoc": {
    "methods": {}
  },
  "userdoc": {
    "methods": {}
  }
}