{
  "contractName": "Counter",
  "abi": [
    {
      "constant": true,
      "inputs": [],
      "name": "counter",
      "outputs": [
        {
          "internalType": "uint256",
          "name": "",
          "type": "uint256"
        }
      ],
      "payable": false,
      "stateMutability": "view",
      "type": "function"
    },
    {
      "constant": false,
      "inputs": [],
      "name": "increment",
      "outputs": [],
      "payable": false,
      "stateMutability": "nonpayable",
      "type": "function"
    },
    {
      "constant": false,
      "inputs": [
        {
          "internalType": "uint256",
          "name": "value",
          "type": "uint256"
        }
      ],
      "name": "add",
      "outputs": [],
      "payable": false,
      "stateMutability": "nonpayable",
      "type": "function"
    },
    {
      "constant": false,
      "inputs": [],
      "name": "incrementFail",
      "outputs": [],
      "payable": false,
      "stateMutability": "nonpayable",
      "type": "function"
    },
    {
      "constant": true,
      "inputs": [],
      "name": "fail",
      "outputs": [],
      "payable": false,
      "stateMutability": "pure",
      "type": "function"
    }
  ],
  "bytecode": "0x608060405234801561001057600080fd5b5061029a806100206000396000f3fe608060405234801561001057600080fd5b50600436106100575760003560e01c80630e4d37f81461005c5780631003e2d21461006657806361bc221a14610094578063a9cc4718146100b2578063d09de08a146100bc575b600080fd5b6100646100c6565b005b6100926004803603602081101561007c57600080fd5b810190808035906020019092919050505061014d565b005b61009c6101d6565b6040518082815260200191505060405180910390f35b6100ba6101dc565b005b6100c4610252565b005b6000808154809291906001019190505550600061014b576040517f08c379a000000000000000000000000000000000000000000000000000000000815260040180806020018281038252600a8152602001807f6661696c206572726f720000000000000000000000000000000000000000000081525060200191505060405180910390fd5b565b60008114156101c4576040517f08c379a00000000000000000000000000000000000000000000000000000000081526004018080602001828103825260188152602001807f76616c75652073686f756c64206e6f74206265207a65726f000000000000000081525060200191505060405180910390fd5b80600080828254019250508190555050565b60005481565b6000610250576040517f08c379a000000000000000000000000000000000000000000000000000000000815260040180806020018281038252600a8152602001807f6661696c206572726f720000000000000000000000000000000000000000000081525060200191505060405180910390fd5b565b600080815480929190600101919050555056fea265627a7a72315820b6bc0a682c3ae62baec1cf85c147a153f847bffa4856e77a2f62516f4e446f5964736f6c63430005100032",
  "source": "pragma solidity >=0.5.0 <0.6.0;\r\n\r\ncontract Counter {\r\n    uint public counter;\r\n    \r\n    function increment() public {\r\n        counter++;\r\n    }\r\n    \r\n    function add(uint value) public {\r\n        require(value != 0, \"value should not be zero\");\r\n        counter += value;\r\n    }\r\n    \r\n    function incrementFail() public {\r\n        counter++;\r\n        require(false, \"fail error\");\r\n    }\r\n    \r\n    function fail() public pure {\r\n        require(false, \"fail error\");\r\n    }\r\n}\r\n\r\n\r\n",
  "sourcePath": "C:\\git\\RskApi\\samples\\commands\\contracts\\Counter.sol",
  "compiler": {
    "name": "solc",
    "version": "0.5.16+commit.9c3226ce.Emscripten.clang"
  },
  "schemaVersion": "3.0.23",
  "updatedAt": "2021-02-19T17:08:56.415Z",
  "devdoc": {
    "methods": {}
  },
  "userdoc": {
    "methods": {}
  }
}