{
  "contractName": "Emitter",
  "abi": [
    {
      "anonymous": false,
      "inputs": [],
      "name": "BeginEvents",
      "type": "event"
    },
    {
      "anonymous": false,
      "inputs": [
        {
          "indexed": true,
          "name": "token",
          "type": "address"
        },
        {
          "indexed": false,
          "name": "symbol",
          "type": "string"
        }
      ],
      "name": "Token",
      "type": "event"
    },
    {
      "anonymous": false,
      "inputs": [
        {
          "indexed": true,
          "name": "token",
          "type": "address"
        },
        {
          "indexed": true,
          "name": "receiver",
          "type": "address"
        },
        {
          "indexed": false,
          "name": "amount",
          "type": "uint256"
        }
      ],
      "name": "Cross",
      "type": "event"
    },
    {
      "anonymous": false,
      "inputs": [],
      "name": "EndEvents",
      "type": "event"
    },
    {
      "constant": false,
      "inputs": [
        {
          "name": "tokens",
          "type": "address[]"
        },
        {
          "name": "symbols",
          "type": "string[]"
        }
      ],
      "name": "emitTokenEvents",
      "outputs": [],
      "payable": false,
      "stateMutability": "nonpayable",
      "type": "function"
    },
    {
      "constant": false,
      "inputs": [
        {
          "name": "receivers",
          "type": "address[]"
        },
        {
          "name": "tokens",
          "type": "address[]"
        },
        {
          "name": "amounts",
          "type": "uint256[]"
        }
      ],
      "name": "emitCrossEvents",
      "outputs": [],
      "payable": false,
      "stateMutability": "nonpayable",
      "type": "function"
    }
  ],
  "bytecode": "0x608060405234801561001057600080fd5b506107df806100206000396000f3fe608060405234801561001057600080fd5b5060043610610053576000357c010000000000000000000000000000000000000000000000000000000090048063ae9698e714610058578063fd23927914610074575b600080fd5b610072600480360361006d919081019061052e565b610090565b005b61008e60048036036100899190810190610497565b610183565b005b6000825190507f875d966eda6487c7c1a52ef9d6ec077de2fe63a903c4ed02db0d11f4528a001160405160405180910390a160008090505b81811015610151578381815181106100dc57fe5b602002602001015173ffffffffffffffffffffffffffffffffffffffff167fe10e7fce45693f4d605d212ac900b44fa162e7b2d4c7a475cc2f4e63c6987fed84838151811061012757fe5b602002602001015160405161013c91906105e2565b60405180910390a280806001019150506100c8565b507f30beee9487f19272cea486f3940e1f4a5ce5d4f4fecb20dbf6979d63e695e5d760405160405180910390a1505050565b6000835190507f875d966eda6487c7c1a52ef9d6ec077de2fe63a903c4ed02db0d11f4528a001160405160405180910390a160008090505b8181101561026e578481815181106101cf57fe5b602002602001015173ffffffffffffffffffffffffffffffffffffffff168482815181106101f957fe5b602002602001015173ffffffffffffffffffffffffffffffffffffffff167fadfbae3b5ea3f4d9d325858fb3ff35602d53b7f91e4d98cc02b2baeb8abc12c985848151811061024457fe5b60200260200101516040516102599190610604565b60405180910390a380806001019150506101bb565b507f30beee9487f19272cea486f3940e1f4a5ce5d4f4fecb20dbf6979d63e695e5d760405160405180910390a150505050565b60006102ad8235610716565b905092915050565b600082601f8301126102c657600080fd5b81356102d96102d48261064c565b61061f565b915081818352602084019350602081019050838560208402820111156102fe57600080fd5b60005b8381101561032e578161031488826102a1565b845260208401935060208301925050600181019050610301565b5050505092915050565b600082601f83011261034957600080fd5b813561035c61035782610674565b61061f565b9150818183526020840193506020810190508360005b838110156103a25781358601610388888261042f565b845260208401935060208301925050600181019050610372565b5050505092915050565b600082601f8301126103bd57600080fd5b81356103d06103cb8261069c565b61061f565b915081818352602084019350602081019050838560208402820111156103f557600080fd5b60005b83811015610425578161040b8882610483565b8452602084019350602083019250506001810190506103f8565b5050505092915050565b600082601f83011261044057600080fd5b813561045361044e826106c4565b61061f565b9150808252602083016020830185838301111561046f57600080fd5b61047a838284610752565b50505092915050565b600061048f8235610748565b905092915050565b6000806000606084860312156104ac57600080fd5b600084013567ffffffffffffffff8111156104c657600080fd5b6104d2868287016102b5565b935050602084013567ffffffffffffffff8111156104ef57600080fd5b6104fb868287016102b5565b925050604084013567ffffffffffffffff81111561051857600080fd5b610524868287016103ac565b9150509250925092565b6000806040838503121561054157600080fd5b600083013567ffffffffffffffff81111561055b57600080fd5b610567858286016102b5565b925050602083013567ffffffffffffffff81111561058457600080fd5b61059085828601610338565b9150509250929050565b60006105a5826106f0565b6105af81856106fb565b93506105bf818560208601610761565b6105c881610794565b840191505092915050565b6105dc8161070c565b82525050565b600060208201905081810360008301526105fc818461059a565b905092915050565b600060208201905061061960008301846105d3565b92915050565b6000604051905081810181811067ffffffffffffffff8211171561064257600080fd5b8060405250919050565b600067ffffffffffffffff82111561066357600080fd5b602082029050602081019050919050565b600067ffffffffffffffff82111561068b57600080fd5b602082029050602081019050919050565b600067ffffffffffffffff8211156106b357600080fd5b602082029050602081019050919050565b600067ffffffffffffffff8211156106db57600080fd5b601f19601f8301169050602081019050919050565b600081519050919050565b600082825260208201905092915050565b6000819050919050565b600061072182610728565b9050919050565b600073ffffffffffffffffffffffffffffffffffffffff82169050919050565b6000819050919050565b82818337600083830152505050565b60005b8381101561077f578082015181840152602081019050610764565b8381111561078e576000848401525b50505050565b6000601f19601f830116905091905056fea265627a7a72305820e81f8600b54ad4e5a9dafc45484c6e6d78ad8e40088291c7442c0f4bcb1b541b6c6578706572696d656e74616cf50037",
  "source": "pragma solidity >=0.4.21 <0.6.0;\r\npragma experimental ABIEncoderV2;\r\n\r\ncontract Emitter {\r\n    event BeginEvents();\r\n    event Token(address indexed token, string symbol);\r\n    event Cross(address indexed token, address indexed receiver, uint256 amount);\r\n    event EndEvents();\r\n    \r\n    function emitTokenEvents(address[] memory tokens, string[] memory symbols) public {\r\n        uint nevents = tokens.length;\r\n        \r\n        emit BeginEvents();\r\n        \r\n        for (uint k = 0; k < nevents; k++)\r\n            emit Token(tokens[k], symbols[k]);\r\n            \r\n        emit EndEvents();\r\n    }\r\n    \r\n    function emitCrossEvents(address[] memory receivers, address[] memory tokens, uint256[] memory amounts) public {\r\n        uint nevents = receivers.length;\r\n        \r\n        emit BeginEvents();\r\n        \r\n        for (uint k = 0; k < nevents; k++)\r\n            emit Cross(tokens[k], receivers[k], amounts[k]);\r\n            \r\n        emit EndEvents();\r\n    }\r\n}\r\n\r\n",
  "sourcePath": "C:/git/tokenbridge/bridge/contracts/test/Emitter.sol",
  "compiler": {
    "name": "solc",
    "version": "0.5.7+commit.6da8b019.Emscripten.clang"
  },
  "schemaVersion": "3.0.8",
  "updatedAt": "2019-10-04T14:00:10.382Z",
  "devdoc": {
    "methods": {}
  },
  "userdoc": {
    "methods": {}
  }
}