{
  "contractName": "ERC1820Implementer",
  "abi": [
    {
      "constant": true,
      "inputs": [
        {
          "name": "interfaceHash",
          "type": "bytes32"
        },
        {
          "name": "account",
          "type": "address"
        }
      ],
      "name": "canImplementInterfaceForAddress",
      "outputs": [
        {
          "name": "",
          "type": "bytes32"
        }
      ],
      "payable": false,
      "stateMutability": "view",
      "type": "function"
    }
  ],
  "bytecode": "0x608060405234801561001057600080fd5b50610198806100206000396000f3fe608060405234801561001057600080fd5b5060043610610048576000357c010000000000000000000000000000000000000000000000000000000090048063249cb3fa1461004d575b600080fd5b6100996004803603604081101561006357600080fd5b8101908080359060200190929190803573ffffffffffffffffffffffffffffffffffffffff1690602001909291905050506100af565b6040518082815260200191505060405180910390f35b600080600084815260200190815260200160002060008373ffffffffffffffffffffffffffffffffffffffff1673ffffffffffffffffffffffffffffffffffffffff16815260200190815260200160002060009054906101000a900460ff1661011c576000600102610164565b60405160200180807f455243313832305f4143434550545f4d414749430000000000000000000000008152506014019050604051602081830303815290604052805190602001205b90509291505056fea165627a7a7230582050de178dbb1fd716eb0281d0bde6abd013a7d816ddae4f140ad7f956563d2a990029",
  "source": "pragma solidity ^0.5.0;\r\n\r\nimport \"./IERC1820Implementer.sol\";\r\n\r\n/**\r\n * @dev Implementation of the `IERC1820Implementer` interface.\r\n *\r\n * Contracts may inherit from this and call `_registerInterfaceForAddress` to\r\n * declare their willingness to be implementers.\r\n * `IERC1820Registry.setInterfaceImplementer` should then be called for the\r\n * registration to be complete.\r\n */\r\ncontract ERC1820Implementer is IERC1820Implementer {\r\n    bytes32 constant private ERC1820_ACCEPT_MAGIC = keccak256(abi.encodePacked(\"ERC1820_ACCEPT_MAGIC\"));\r\n\r\n    mapping(bytes32 => mapping(address => bool)) private _supportedInterfaces;\r\n\r\n    /**\r\n     * See `IERC1820Implementer.canImplementInterfaceForAddress`.\r\n     */\r\n    function canImplementInterfaceForAddress(bytes32 interfaceHash, address account) external view returns (bytes32) {\r\n        return _supportedInterfaces[interfaceHash][account] ? ERC1820_ACCEPT_MAGIC : bytes32(0x00);\r\n    }\r\n\r\n    /**\r\n     * @dev Declares the contract as willing to be an implementer of\r\n     * `interfaceHash` for `account`.\r\n     *\r\n     * See `IERC1820Registry.setInterfaceImplementer` and\r\n     * `IERC1820Registry.interfaceHash`.\r\n     */\r\n    function _registerInterfaceForAddress(bytes32 interfaceHash, address account) internal {\r\n        _supportedInterfaces[interfaceHash][account] = true;\r\n    }\r\n}\r\n",
  "sourcePath": "C:/git/tokenbridge/bridge/contracts/zeppelin/introspection/ERC1820Implementer.sol",
  "compiler": {
    "name": "solc",
    "version": "0.5.7+commit.6da8b019.Emscripten.clang"
  },
  "schemaVersion": "3.0.8",
  "updatedAt": "2019-10-04T14:00:10.436Z",
  "devdoc": {
    "details": "Implementation of the `IERC1820Implementer` interface.\r  * Contracts may inherit from this and call `_registerInterfaceForAddress` to\r declare their willingness to be implementers.\r `IERC1820Registry.setInterfaceImplementer` should then be called for the\r registration to be complete.\r",
    "methods": {}
  },
  "userdoc": {
    "methods": {
      "canImplementInterfaceForAddress(bytes32,address)": {
        "notice": "See `IERC1820Implementer.canImplementInterfaceForAddress`.\r"
      }
    }
  }
}