{
  "contractName": "EventsHelper",
  "abi": [
    {
      "constant": true,
      "inputs": [
        {
          "name": "receipt",
          "type": "bytes"
        },
        {
          "name": "origin",
          "type": "address"
        },
        {
          "name": "topic",
          "type": "bytes32"
        }
      ],
      "name": "getTokenEvents",
      "outputs": [
        {
          "name": "tokens",
          "type": "address[]"
        },
        {
          "name": "symbols",
          "type": "string[]"
        }
      ],
      "payable": false,
      "stateMutability": "pure",
      "type": "function"
    },
    {
      "constant": true,
      "inputs": [
        {
          "name": "receipt",
          "type": "bytes"
        },
        {
          "name": "origin",
          "type": "address"
        },
        {
          "name": "topic",
          "type": "bytes32"
        }
      ],
      "name": "getTransferEvents",
      "outputs": [
        {
          "name": "tokens",
          "type": "address[]"
        },
        {
          "name": "receivers",
          "type": "address[]"
        },
        {
          "name": "amounts",
          "type": "uint256[]"
        }
      ],
      "payable": false,
      "stateMutability": "pure",
      "type": "function"
    }
  ],
  "bytecode": "0x608060405234801561001057600080fd5b506119e7806100206000396000f3fe60806040526004361061004c576000357c0100000000000000000000000000000000000000000000000000000000900463ffffffff1680634e498997146100515780635780e74214610090575b600080fd5b34801561005d57600080fd5b50610078600480360361007391908101906115cd565b6100ce565b604051610087939291906117ac565b60405180910390f35b34801561009c57600080fd5b506100b760048036036100b291908101906115cd565b610286565b6040516100c59291906117f8565b60405180910390f35b6060806060806100df8787876103bf565b9050600081519050806040519080825280602002602001820160405280156101165781602001602082028038833980820191505090505b509450806040519080825280602002602001820160405280156101485781602001602082028038833980820191505090505b5093508060405190808252806020026020018201604052801561017a5781602001602082028038833980820191505090505b50925060008090505b8181101561027a5761019361141f565b83828151811015156101a157fe5b906020019060200201519050806000015187838151811015156101c057fe5b9060200190602002019073ffffffffffffffffffffffffffffffffffffffff16908173ffffffffffffffffffffffffffffffffffffffff16815250508060200151868381518110151561020f57fe5b9060200190602002019073ffffffffffffffffffffffffffffffffffffffff16908173ffffffffffffffffffffffffffffffffffffffff16815250508060400151858381518110151561025e57fe5b9060200190602002018181525050508080600101915050610183565b50505093509350939050565b60608060606102968686866106c8565b9050600081519050806040519080825280602002602001820160405280156102cd5781602001602082028038833980820191505090505b5093508060405190808252806020026020018201604052801561030457816020015b60608152602001906001900390816102ef5790505b50925060008090505b818110156103b45761031d61146d565b838281518110151561032b57fe5b9060200190602002015190508060000151868381518110151561034a57fe5b9060200190602002019073ffffffffffffffffffffffffffffffffffffffff16908173ffffffffffffffffffffffffffffffffffffffff16815250508060200151858381518110151561039957fe5b9060200190602002018190525050808060010191505061030d565b505050935093915050565b6060806103cd8560006109be565b90506060610415868360028151811015156103e457fe5b906020019060200201516020015184600281518110151561040157fe5b9060200190602002015160000151016109be565b90506000815190508060405190808252806020026020018201604052801561045757816020015b61044461149d565b81526020019060019003908161043c5790505b509350600080905060008090505b828110156106bc5760008082146104ba57846001830381518110151561048757fe5b906020019060200201516020015185600184038151811015156104a657fe5b9060200190602002015160000151016104d8565b8560038151811015156104c957fe5b90602001906020020151600001515b905060606104e68b836109be565b90508973ffffffffffffffffffffffffffffffffffffffff166105258c83600081518110151561051257fe5b9060200190602002015160000151610a82565b73ffffffffffffffffffffffffffffffffffffffff161415156105495750506106af565b606061058f8c83600081518110151561055e57fe5b906020019060200201516020015184600081518110151561057b57fe5b9060200190602002015160000151016109be565b9050896105b88d8360008151811015156105a557fe5b9060200190602002015160000151610aa2565b1415156105c7575050506106af565b6060604051908101604052806105fc8e600c8560018151811015156105e857fe5b906020019060200201516000015101610a82565b73ffffffffffffffffffffffffffffffffffffffff1681526020016106408e600c85600281518110151561062c57fe5b906020019060200201516000015101610a82565b73ffffffffffffffffffffffffffffffffffffffff1681526020016106818e85600281518110151561066e57fe5b9060200190602002015160000151610aa2565b60019004815250898681518110151561069657fe5b9060200190602002018190525084806001019550505050505b8080600101915050610465565b50505050509392505050565b6060806106d68560006109be565b9050606061071e868360028151811015156106ed57fe5b906020019060200201516020015184600281518110151561070a57fe5b9060200190602002015160000151016109be565b90506000815190508060405190808252806020026020018201604052801561076057816020015b61074d6114eb565b8152602001906001900390816107455790505b509350600080905060008090505b828110156109b25760008082146107c357846001830381518110151561079057fe5b906020019060200201516020015185600184038151811015156107af57fe5b9060200190602002015160000151016107e1565b8560038151811015156107d257fe5b90602001906020020151600001515b905060606107ef8b836109be565b90508973ffffffffffffffffffffffffffffffffffffffff1661082e8c83600081518110151561081b57fe5b9060200190602002015160000151610a82565b73ffffffffffffffffffffffffffffffffffffffff161415156108525750506109a5565b60606108988c83600081518110151561086757fe5b906020019060200201516020015184600081518110151561088457fe5b9060200190602002015160000151016109be565b9050896108c18d8360008151811015156108ae57fe5b9060200190602002015160000151610aa2565b1415156108d0575050506109a5565b60006108fb8d60208560028151811015156108e757fe5b906020019060200201516000015101610aa2565b60019004905060408051908101604052806109358f600c86600181518110151561092157fe5b906020019060200201516000015101610a82565b73ffffffffffffffffffffffffffffffffffffffff16815260200161097a8f604087600281518110151561096557fe5b90602001906020020151600001510185610ab3565b8152508a8781518110151561098b57fe5b906020019060200201819052508580600101965050505050505b808060010191505061076e565b50505050509392505050565b606060006109cc8484610b65565b905080604051908082528060200260200182016040528015610a0857816020015b6109f561151b565b8152602001906001900390816109ed5790505b509150610a13611535565b610a1d8585610bd4565b905060008160000151905060008090505b83811015610a7857610a408783610bd4565b9250828582815181101515610a5157fe5b90602001906020020181905250826020015183600001510191508080600101915050610a2e565b5050505092915050565b60006c010000000000000000000000008260208501015104905092915050565b600081602084010151905092915050565b606080826040519080825280601f01601f191660200182016040528015610ae95781602001600182028038833980820191505090505b50905060008085602088010191506020830190505b602085101515610b235781518152602081019050602082019150602085039450610afe565b6000851415610b3757829350505050610b5e565b60006001866020036101000a03905080198351168183511680821784525050839450505050505b9392505050565b6000610b6f611535565b610b798484610bd4565b905060008160000151905060008260200151836000015101905060008090505b81831015610bc7578080600101915050610bb38784610bd4565b935083602001518460000151019250610b99565b8094505050505092915050565b610bdc611535565b610be68383610c10565b816020018181525050818160200151610bff858561103e565b030181600001818152505092915050565b6000808383815181101515610c2157fe5b9060200101517f010000000000000000000000000000000000000000000000000000000000000090047f010000000000000000000000000000000000000000000000000000000000000002905060f77f010000000000000000000000000000000000000000000000000000000000000002817effffffffffffffffffffffffffffffffffffffffffffffffffffffffffffff19161115610da457600060f7827f010000000000000000000000000000000000000000000000000000000000000090040360ff169050600080600090505b82811015610d98576008829060020a02915086868260010101815181101515610d1657fe5b9060200101517f010000000000000000000000000000000000000000000000000000000000000090047f0100000000000000000000000000000000000000000000000000000000000000027f0100000000000000000000000000000000000000000000000000000000000000900460ff16820191508080600101915050610cf1565b50809350505050611038565b60bf7f010000000000000000000000000000000000000000000000000000000000000002817effffffffffffffffffffffffffffffffffffffffffffffffffffffffffffff19161115610e2657600160bf827f01000000000000000000000000000000000000000000000000000000000000009004030360ff16915050611038565b60b77f010000000000000000000000000000000000000000000000000000000000000002817effffffffffffffffffffffffffffffffffffffffffffffffffffffffffffff19161115610f5c57600060b7827f010000000000000000000000000000000000000000000000000000000000000090040360ff169050600080600090505b82811015610f50576008829060020a02915086868260010101815181101515610ece57fe5b9060200101517f010000000000000000000000000000000000000000000000000000000000000090047f0100000000000000000000000000000000000000000000000000000000000000027f0100000000000000000000000000000000000000000000000000000000000000900460ff16820191508080600101915050610ea9565b50809350505050611038565b60807f010000000000000000000000000000000000000000000000000000000000000002817effffffffffffffffffffffffffffffffffffffffffffffffffffffffffffff19161115610fdb576080817f010000000000000000000000000000000000000000000000000000000000000090040360ff16915050611038565b60807f010000000000000000000000000000000000000000000000000000000000000002817effffffffffffffffffffffffffffffffffffffffffffffffffffffffffffff19161415611032576000915050611038565b60019150505b92915050565b600080838381518110151561104f57fe5b9060200101517f010000000000000000000000000000000000000000000000000000000000000090047f010000000000000000000000000000000000000000000000000000000000000002905060f77f010000000000000000000000000000000000000000000000000000000000000002817effffffffffffffffffffffffffffffffffffffffffffffffffffffffffffff191611156111d757600060f7827f010000000000000000000000000000000000000000000000000000000000000090040360ff169050600080600090505b828110156111c6576008829060020a0291508686826001010181518110151561114457fe5b9060200101517f010000000000000000000000000000000000000000000000000000000000000090047f0100000000000000000000000000000000000000000000000000000000000000027f0100000000000000000000000000000000000000000000000000000000000000900460ff1682019150808060010191505061111f565b508082600101019350505050611419565b60bf7f010000000000000000000000000000000000000000000000000000000000000002817effffffffffffffffffffffffffffffffffffffffffffffffffffffffffffff191611156112565760bf817f010000000000000000000000000000000000000000000000000000000000000090040360ff16915050611419565b60b77f010000000000000000000000000000000000000000000000000000000000000002817effffffffffffffffffffffffffffffffffffffffffffffffffffffffffffff1916111561139157600060b7827f010000000000000000000000000000000000000000000000000000000000000090040360ff169050600080600090505b82811015611380576008829060020a029150868682600101018151811015156112fe57fe5b9060200101517f010000000000000000000000000000000000000000000000000000000000000090047f0100000000000000000000000000000000000000000000000000000000000000027f0100000000000000000000000000000000000000000000000000000000000000900460ff168201915080806001019150506112d9565b508082600101019350505050611419565b60807f010000000000000000000000000000000000000000000000000000000000000002817effffffffffffffffffffffffffffffffffffffffffffffffffffffffffffff191611156114135760016080827f01000000000000000000000000000000000000000000000000000000000000009004030160ff16915050611419565b60019150505b92915050565b606060405190810160405280600073ffffffffffffffffffffffffffffffffffffffff168152602001600073ffffffffffffffffffffffffffffffffffffffff168152602001600081525090565b6040805190810160405280600073ffffffffffffffffffffffffffffffffffffffff168152602001606081525090565b606060405190810160405280600073ffffffffffffffffffffffffffffffffffffffff168152602001600073ffffffffffffffffffffffffffffffffffffffff168152602001600081525090565b6040805190810160405280600073ffffffffffffffffffffffffffffffffffffffff168152602001606081525090565b604080519081016040528060008152602001600081525090565b604080519081016040528060008152602001600081525090565b600061155b823561193e565b905092915050565b600061156f8235611950565b905092915050565b600082601f830112151561158a57600080fd5b813561159d6115988261185c565b61182f565b915080825260208301602083018583830111156115b957600080fd5b6115c483828461195a565b50505092915050565b6000806000606084860312156115e257600080fd5b600084013567ffffffffffffffff8111156115fc57600080fd5b61160886828701611577565b93505060206116198682870161154f565b925050604061162a86828701611563565b9150509250925092565b61163d81611902565b82525050565b600061164e826118af565b80845260208401935061166083611888565b60005b8281101561169257611676868351611634565b61167f826118db565b9150602086019550600181019050611663565b50849250505092915050565b60006116a9826118ba565b808452602084019350836020820285016116c285611895565b60005b848110156116fb5783830388526116dd838351611767565b92506116e8826118e8565b91506020880197506001810190506116c5565b508196508694505050505092915050565b6000611717826118c5565b808452602084019350611729836118a2565b60005b8281101561175b5761173f86835161179d565b611748826118f5565b915060208601955060018101905061172c565b50849250505092915050565b6000611772826118d0565b808452611786816020860160208601611969565b61178f8161199c565b602085010191505092915050565b6117a681611934565b82525050565b600060608201905081810360008301526117c68186611643565b905081810360208301526117da8185611643565b905081810360408301526117ee818461170c565b9050949350505050565b600060408201905081810360008301526118128185611643565b90508181036020830152611826818461169e565b90509392505050565b6000604051905081810181811067ffffffffffffffff8211171561185257600080fd5b8060405250919050565b600067ffffffffffffffff82111561187357600080fd5b601f19601f8301169050602081019050919050565b6000602082019050919050565b6000602082019050919050565b6000602082019050919050565b600081519050919050565b600081519050919050565b600081519050919050565b600081519050919050565b6000602082019050919050565b6000602082019050919050565b6000602082019050919050565b600061190d82611914565b9050919050565b600073ffffffffffffffffffffffffffffffffffffffff82169050919050565b6000819050919050565b600061194982611914565b9050919050565b6000819050919050565b82818337600083830152505050565b60005b8381101561198757808201518184015260208101905061196c565b83811115611996576000848401525b50505050565b6000601f19601f830116905091905056fea265627a7a72305820575d4ca259aecf9878f1697eb917647888713e997fee559064dcc1ba47cce2746c6578706572696d656e74616cf50037",
  "source": "pragma solidity >=0.4.21 <0.6.0;\r\npragma experimental ABIEncoderV2;\r\n\r\nimport \"../EventsLibrary.sol\";\r\n\r\ncontract EventsHelper {\r\n    function getTokenEvents(bytes memory receipt, address origin, bytes32 topic) public pure returns(address[] memory tokens, string[] memory symbols) {\r\n        EventsLibrary.TokenEvent[] memory tevents = EventsLibrary.getTokenEvents(receipt, origin, topic);\r\n        \r\n        uint nevents = tevents.length;\r\n                \r\n        tokens = new address[](nevents);\r\n        symbols = new string[](nevents);\r\n        \r\n        for (uint k = 0; k < nevents; k++) {\r\n            EventsLibrary.TokenEvent memory tevent = tevents[k];\r\n            \r\n            tokens[k] = tevent.token;\r\n            symbols[k] = tevent.symbol;\r\n        }\r\n    }\r\n\r\n    function getTransferEvents(bytes memory receipt, address origin, bytes32 topic) public pure returns(address[] memory tokens, address[] memory receivers, uint256[] memory amounts) {\r\n        EventsLibrary.TransferEvent[] memory tevents = EventsLibrary.getTransferEvents(receipt, origin, topic);\r\n        \r\n        uint nevents = tevents.length;\r\n            \r\n        tokens = new address[](nevents);\r\n        receivers = new address[](nevents);\r\n        amounts = new uint[](nevents);\r\n        \r\n        for (uint k = 0; k < nevents; k++) {\r\n            EventsLibrary.TransferEvent memory tevent = tevents[k];\r\n            \r\n            tokens[k] = tevent.token;\r\n            receivers[k] = tevent.receiver;\r\n            amounts[k] = tevent.amount;\r\n        }\r\n    }\r\n}\r\n\r\n",
  "sourcePath": "C:/git/tokenbridge/bridge/contracts/test/EventsHelper.sol",
  "compiler": {
    "name": "solc",
    "version": "0.5.0+commit.1d4f565a.Emscripten.clang"
  },
  "schemaVersion": "3.0.8",
  "updatedAt": "2019-10-12T19:39:35.312Z",
  "devdoc": {
    "methods": {}
  },
  "userdoc": {
    "methods": {}
  }
}