{
  "contractName": "EventsProcessor",
  "abi": [
    {
      "constant": true,
      "inputs": [],
      "name": "tokenTopic",
      "outputs": [
        {
          "name": "",
          "type": "bytes32"
        }
      ],
      "payable": false,
      "stateMutability": "view",
      "type": "function"
    },
    {
      "constant": true,
      "inputs": [],
      "name": "prover",
      "outputs": [
        {
          "name": "",
          "type": "address"
        }
      ],
      "payable": false,
      "stateMutability": "view",
      "type": "function"
    },
    {
      "constant": true,
      "inputs": [],
      "name": "transferable",
      "outputs": [
        {
          "name": "",
          "type": "address"
        }
      ],
      "payable": false,
      "stateMutability": "view",
      "type": "function"
    },
    {
      "constant": true,
      "inputs": [],
      "name": "origin",
      "outputs": [
        {
          "name": "",
          "type": "address"
        }
      ],
      "payable": false,
      "stateMutability": "view",
      "type": "function"
    },
    {
      "constant": true,
      "inputs": [],
      "name": "transferTopic",
      "outputs": [
        {
          "name": "",
          "type": "bytes32"
        }
      ],
      "payable": false,
      "stateMutability": "view",
      "type": "function"
    },
    {
      "constant": true,
      "inputs": [
        {
          "name": "",
          "type": "bytes32"
        }
      ],
      "name": "processed",
      "outputs": [
        {
          "name": "",
          "type": "bool"
        }
      ],
      "payable": false,
      "stateMutability": "view",
      "type": "function"
    },
    {
      "inputs": [
        {
          "name": "_prover",
          "type": "address"
        },
        {
          "name": "_transferTopic",
          "type": "bytes32"
        },
        {
          "name": "_tokenTopic",
          "type": "bytes32"
        }
      ],
      "payable": false,
      "stateMutability": "nonpayable",
      "type": "constructor"
    },
    {
      "constant": false,
      "inputs": [
        {
          "name": "_transferable",
          "type": "address"
        }
      ],
      "name": "setTransferable",
      "outputs": [],
      "payable": false,
      "stateMutability": "nonpayable",
      "type": "function"
    },
    {
      "constant": false,
      "inputs": [
        {
          "name": "_origin",
          "type": "address"
        }
      ],
      "name": "setOrigin",
      "outputs": [],
      "payable": false,
      "stateMutability": "nonpayable",
      "type": "function"
    },
    {
      "constant": false,
      "inputs": [
        {
          "name": "blkhash",
          "type": "bytes32"
        },
        {
          "name": "receipt",
          "type": "bytes"
        },
        {
          "name": "prefixes",
          "type": "bytes[]"
        },
        {
          "name": "suffixes",
          "type": "bytes[]"
        }
      ],
      "name": "processReceipt",
      "outputs": [],
      "payable": false,
      "stateMutability": "nonpayable",
      "type": "function"
    }
  ],
  "bytecode": "0x60806040523480156200001157600080fd5b50604051606080620026d78339810180604052620000339190810190620000f7565b336000806101000a81548173ffffffffffffffffffffffffffffffffffffffff021916908373ffffffffffffffffffffffffffffffffffffffff16021790555082600160006101000a81548173ffffffffffffffffffffffffffffffffffffffff021916908373ffffffffffffffffffffffffffffffffffffffff16021790555081600481905550806005819055505050506200019f565b6000620000d9825162000181565b905092915050565b6000620000ef82516200018b565b905092915050565b6000806000606084860312156200010d57600080fd5b60006200011d86828701620000e1565b93505060206200013086828701620000cb565b92505060406200014386828701620000cb565b9150509250925092565b60006200015a8262000161565b9050919050565b600073ffffffffffffffffffffffffffffffffffffffff82169050919050565b6000819050919050565b600062000198826200014d565b9050919050565b61252880620001af6000396000f3fe608060405260043610610099576000357c0100000000000000000000000000000000000000000000000000000000900463ffffffff168063328df9b01461009e57806332a8f30f146100c957806347c484e9146100f457806392ff0d311461011d578063938b5f32146101485780639854b00d146101735780639d3340b71461019c578063c1f0808a146101c7578063f5e1c4de14610204575b600080fd5b3480156100aa57600080fd5b506100b361022d565b6040516100c091906121a9565b60405180910390f35b3480156100d557600080fd5b506100de610233565b6040516100eb919061221e565b60405180910390f35b34801561010057600080fd5b5061011b60048036036101169190810190611d77565b610259565b005b34801561012957600080fd5b506101326103c1565b60405161013f9190612239565b60405180910390f35b34801561015457600080fd5b5061015d6103e7565b60405161016a919061210c565b60405180910390f35b34801561017f57600080fd5b5061019a60048036036101959190810190611df2565b61040d565b005b3480156101a857600080fd5b506101b16108e7565b6040516101be91906121a9565b60405180910390f35b3480156101d357600080fd5b506101ee60048036036101e99190810190611dc9565b6108ed565b6040516101fb919061218e565b60405180910390f35b34801561021057600080fd5b5061022b60048036036102269190810190611e9d565b61090d565b005b60055481565b600160009054906101000a900473ffffffffffffffffffffffffffffffffffffffff1681565b6000809054906101000a900473ffffffffffffffffffffffffffffffffffffffff1673ffffffffffffffffffffffffffffffffffffffff163373ffffffffffffffffffffffffffffffffffffffff161415156102ea576040517f08c379a00000000000000000000000000000000000000000000000000000000081526004016102e1906122b4565b60405180910390fd5b600073ffffffffffffffffffffffffffffffffffffffff16600360009054906101000a900473ffffffffffffffffffffffffffffffffffffffff1673ffffffffffffffffffffffffffffffffffffffff1614151561037d576040517f08c379a000000000000000000000000000000000000000000000000000000000815260040161037490612294565b60405180910390fd5b80600360006101000a81548173ffffffffffffffffffffffffffffffffffffffff021916908373ffffffffffffffffffffffffffffffffffffffff16021790555050565b600260009054906101000a900473ffffffffffffffffffffffffffffffffffffffff1681565b600360009054906101000a900473ffffffffffffffffffffffffffffffffffffffff1681565b600084846040516020018083815260200182805190602001908083835b60208310151561044f578051825260208201915060208101905060208303925061042a565b6001836020036101000a038019825116818451168082178552505050505050905001925050506040516020818303038152906040528051906020012090506006600082815260200190815260200160002060009054906101000a900460ff16156104b957506108e1565b600160009054906101000a900473ffffffffffffffffffffffffffffffffffffffff1673ffffffffffffffffffffffffffffffffffffffff166355119bf9868686866040518563ffffffff167c010000000000000000000000000000000000000000000000000000000002815260040161053694939291906121c4565b60206040518083038186803b15801561054e57600080fd5b505afa158015610562573d6000803e3d6000fd5b505050506040513d601f19601f820116820180604052506105869190810190611da0565b15156105c7576040517f08c379a00000000000000000000000000000000000000000000000000000000081526004016105be90612274565b60405180910390fd5b60606105f885600360009054906101000a900473ffffffffffffffffffffffffffffffffffffffff16600554610a75565b905060008151905060008090505b8181101561074d57610616611ad5565b838281518110151561062457fe5b906020019060200201519050600073ffffffffffffffffffffffffffffffffffffffff16816000015173ffffffffffffffffffffffffffffffffffffffff1614151561073f57600260009054906101000a900473ffffffffffffffffffffffffffffffffffffffff1673ffffffffffffffffffffffffffffffffffffffff1663e44985bf826000015183602001516040518363ffffffff167c01000000000000000000000000000000000000000000000000000000000281526004016106eb92919061215e565b602060405180830381600087803b15801561070557600080fd5b505af1158015610719573d6000803e3d6000fd5b505050506040513d601f19601f8201168201806040525061073d9190810190611da0565b505b508080600101915050610606565b50606061077f87600360009054906101000a900473ffffffffffffffffffffffffffffffffffffffff16600454610d6b565b905060008151905060008090505b818110156108ae5761079d611b05565b83828151811015156107ab57fe5b906020019060200201519050600081604001511415156108a057600260009054906101000a900473ffffffffffffffffffffffffffffffffffffffff1673ffffffffffffffffffffffffffffffffffffffff16633395dc708260000151836020015184604001516040518463ffffffff167c010000000000000000000000000000000000000000000000000000000002815260040161084c93929190612127565b602060405180830381600087803b15801561086657600080fd5b505af115801561087a573d6000803e3d6000fd5b505050506040513d601f19601f8201168201806040525061089e9190810190611da0565b505b50808060010191505061078d565b5060016006600087815260200190815260200160002060006101000a81548160ff02191690831515021790555050505050505b50505050565b60045481565b60066020528060005260406000206000915054906101000a900460ff1681565b6000809054906101000a900473ffffffffffffffffffffffffffffffffffffffff1673ffffffffffffffffffffffffffffffffffffffff163373ffffffffffffffffffffffffffffffffffffffff1614151561099e576040517f08c379a0000000000000000000000000000000000000000000000000000000008152600401610995906122b4565b60405180910390fd5b600073ffffffffffffffffffffffffffffffffffffffff16600260009054906101000a900473ffffffffffffffffffffffffffffffffffffffff1673ffffffffffffffffffffffffffffffffffffffff16141515610a31576040517f08c379a0000000000000000000000000000000000000000000000000000000008152600401610a2890612254565b60405180910390fd5b80600260006101000a81548173ffffffffffffffffffffffffffffffffffffffff021916908373ffffffffffffffffffffffffffffffffffffffff16021790555050565b606080610a83856000611074565b90506060610acb86836002815181101515610a9a57fe5b9060200190602002015160200151846002815181101515610ab757fe5b906020019060200201516000015101611074565b905060008151905080604051908082528060200260200182016040528015610b0d57816020015b610afa611b53565b815260200190600190039081610af25790505b509350600080905060008090505b82811015610d5f576000808214610b70578460018303815181101515610b3d57fe5b90602001906020020151602001518560018403815181101515610b5c57fe5b906020019060200201516000015101610b8e565b856003815181101515610b7f57fe5b90602001906020020151600001515b90506060610b9c8b83611074565b90508973ffffffffffffffffffffffffffffffffffffffff16610bdb8c836000815181101515610bc857fe5b9060200190602002015160000151611138565b73ffffffffffffffffffffffffffffffffffffffff16141515610bff575050610d52565b6060610c458c836000815181101515610c1457fe5b9060200190602002015160200151846000815181101515610c3157fe5b906020019060200201516000015101611074565b905089610c6e8d836000815181101515610c5b57fe5b9060200190602002015160000151611158565b141515610c7d57505050610d52565b6000610ca88d6020856002815181101515610c9457fe5b906020019060200201516000015101611158565b6001900490506040805190810160405280610ce28f600c866001815181101515610cce57fe5b906020019060200201516000015101611138565b73ffffffffffffffffffffffffffffffffffffffff168152602001610d278f6040876002815181101515610d1257fe5b90602001906020020151600001510185611169565b8152508a87815181101515610d3857fe5b906020019060200201819052508580600101965050505050505b8080600101915050610b1b565b50505050509392505050565b606080610d79856000611074565b90506060610dc186836002815181101515610d9057fe5b9060200190602002015160200151846002815181101515610dad57fe5b906020019060200201516000015101611074565b905060008151905080604051908082528060200260200182016040528015610e0357816020015b610df0611b83565b815260200190600190039081610de85790505b509350600080905060008090505b82811015611068576000808214610e66578460018303815181101515610e3357fe5b90602001906020020151602001518560018403815181101515610e5257fe5b906020019060200201516000015101610e84565b856003815181101515610e7557fe5b90602001906020020151600001515b90506060610e928b83611074565b90508973ffffffffffffffffffffffffffffffffffffffff16610ed18c836000815181101515610ebe57fe5b9060200190602002015160000151611138565b73ffffffffffffffffffffffffffffffffffffffff16141515610ef557505061105b565b6060610f3b8c836000815181101515610f0a57fe5b9060200190602002015160200151846000815181101515610f2757fe5b906020019060200201516000015101611074565b905089610f648d836000815181101515610f5157fe5b9060200190602002015160000151611158565b141515610f735750505061105b565b606060405190810160405280610fa88e600c856001815181101515610f9457fe5b906020019060200201516000015101611138565b73ffffffffffffffffffffffffffffffffffffffff168152602001610fec8e600c856002815181101515610fd857fe5b906020019060200201516000015101611138565b73ffffffffffffffffffffffffffffffffffffffff16815260200161102d8e85600281518110151561101a57fe5b9060200190602002015160000151611158565b60019004815250898681518110151561104257fe5b9060200190602002018190525084806001019550505050505b8080600101915050610e11565b50505050509392505050565b60606000611082848461121b565b9050806040519080825280602002602001820160405280156110be57816020015b6110ab611bd1565b8152602001906001900390816110a35790505b5091506110c9611beb565b6110d3858561128a565b905060008160000151905060008090505b8381101561112e576110f6878361128a565b925082858281518110151561110757fe5b906020019060200201819052508260200151836000015101915080806001019150506110e4565b5050505092915050565b60006c010000000000000000000000008260208501015104905092915050565b600081602084010151905092915050565b606080826040519080825280601f01601f19166020018201604052801561119f5781602001600182028038833980820191505090505b50905060008085602088010191506020830190505b6020851015156111d957815181526020810190506020820191506020850394506111b4565b60008514156111ed57829350505050611214565b60006001866020036101000a03905080198351168183511680821784525050839450505050505b9392505050565b6000611225611beb565b61122f848461128a565b905060008160000151905060008260200151836000015101905060008090505b8183101561127d578080600101915050611269878461128a565b93508360200151846000015101925061124f565b8094505050505092915050565b611292611beb565b61129c83836112c6565b8160200181815250508181602001516112b585856116f4565b030181600001818152505092915050565b60008083838151811015156112d757fe5b9060200101517f010000000000000000000000000000000000000000000000000000000000000090047f010000000000000000000000000000000000000000000000000000000000000002905060f77f010000000000000000000000000000000000000000000000000000000000000002817effffffffffffffffffffffffffffffffffffffffffffffffffffffffffffff1916111561145a57600060f7827f010000000000000000000000000000000000000000000000000000000000000090040360ff169050600080600090505b8281101561144e576008829060020a029150868682600101018151811015156113cc57fe5b9060200101517f010000000000000000000000000000000000000000000000000000000000000090047f0100000000000000000000000000000000000000000000000000000000000000027f0100000000000000000000000000000000000000000000000000000000000000900460ff168201915080806001019150506113a7565b508093505050506116ee565b60bf7f010000000000000000000000000000000000000000000000000000000000000002817effffffffffffffffffffffffffffffffffffffffffffffffffffffffffffff191611156114dc57600160bf827f01000000000000000000000000000000000000000000000000000000000000009004030360ff169150506116ee565b60b77f010000000000000000000000000000000000000000000000000000000000000002817effffffffffffffffffffffffffffffffffffffffffffffffffffffffffffff1916111561161257600060b7827f010000000000000000000000000000000000000000000000000000000000000090040360ff169050600080600090505b82811015611606576008829060020a0291508686826001010181518110151561158457fe5b9060200101517f010000000000000000000000000000000000000000000000000000000000000090047f0100000000000000000000000000000000000000000000000000000000000000027f0100000000000000000000000000000000000000000000000000000000000000900460ff1682019150808060010191505061155f565b508093505050506116ee565b60807f010000000000000000000000000000000000000000000000000000000000000002817effffffffffffffffffffffffffffffffffffffffffffffffffffffffffffff19161115611691576080817f010000000000000000000000000000000000000000000000000000000000000090040360ff169150506116ee565b60807f010000000000000000000000000000000000000000000000000000000000000002817effffffffffffffffffffffffffffffffffffffffffffffffffffffffffffff191614156116e85760009150506116ee565b60019150505b92915050565b600080838381518110151561170557fe5b9060200101517f010000000000000000000000000000000000000000000000000000000000000090047f010000000000000000000000000000000000000000000000000000000000000002905060f77f010000000000000000000000000000000000000000000000000000000000000002817effffffffffffffffffffffffffffffffffffffffffffffffffffffffffffff1916111561188d57600060f7827f010000000000000000000000000000000000000000000000000000000000000090040360ff169050600080600090505b8281101561187c576008829060020a029150868682600101018151811015156117fa57fe5b9060200101517f010000000000000000000000000000000000000000000000000000000000000090047f0100000000000000000000000000000000000000000000000000000000000000027f0100000000000000000000000000000000000000000000000000000000000000900460ff168201915080806001019150506117d5565b508082600101019350505050611acf565b60bf7f010000000000000000000000000000000000000000000000000000000000000002817effffffffffffffffffffffffffffffffffffffffffffffffffffffffffffff1916111561190c5760bf817f010000000000000000000000000000000000000000000000000000000000000090040360ff16915050611acf565b60b77f010000000000000000000000000000000000000000000000000000000000000002817effffffffffffffffffffffffffffffffffffffffffffffffffffffffffffff19161115611a4757600060b7827f010000000000000000000000000000000000000000000000000000000000000090040360ff169050600080600090505b82811015611a36576008829060020a029150868682600101018151811015156119b457fe5b9060200101517f010000000000000000000000000000000000000000000000000000000000000090047f0100000000000000000000000000000000000000000000000000000000000000027f0100000000000000000000000000000000000000000000000000000000000000900460ff1682019150808060010191505061198f565b508082600101019350505050611acf565b60807f010000000000000000000000000000000000000000000000000000000000000002817effffffffffffffffffffffffffffffffffffffffffffffffffffffffffffff19161115611ac95760016080827f01000000000000000000000000000000000000000000000000000000000000009004030160ff16915050611acf565b60019150505b92915050565b6040805190810160405280600073ffffffffffffffffffffffffffffffffffffffff168152602001606081525090565b606060405190810160405280600073ffffffffffffffffffffffffffffffffffffffff168152602001600073ffffffffffffffffffffffffffffffffffffffff168152602001600081525090565b6040805190810160405280600073ffffffffffffffffffffffffffffffffffffffff168152602001606081525090565b606060405190810160405280600073ffffffffffffffffffffffffffffffffffffffff168152602001600073ffffffffffffffffffffffffffffffffffffffff168152602001600081525090565b604080519081016040528060008152602001600081525090565b604080519081016040528060008152602001600081525090565b6000611c118235612419565b905092915050565b600082601f8301121515611c2c57600080fd5b8135611c3f611c3a82612301565b6122d4565b9150818183526020840193506020810190508360005b83811015611c855781358601611c6b8882611cb7565b845260208401935060208301925050600181019050611c55565b5050505092915050565b6000611c9b825161242b565b905092915050565b6000611caf8235612437565b905092915050565b600082601f8301121515611cca57600080fd5b8135611cdd611cd882612329565b6122d4565b91508082526020830160208301858383011115611cf957600080fd5b611d0483828461249b565b50505092915050565b600082601f8301121515611d2057600080fd5b8135611d33611d2e82612355565b6122d4565b91508082526020830160208301858383011115611d4f57600080fd5b611d5a83828461249b565b50505092915050565b6000611d6f8235612441565b905092915050565b600060208284031215611d8957600080fd5b6000611d9784828501611c05565b91505092915050565b600060208284031215611db257600080fd5b6000611dc084828501611c8f565b91505092915050565b600060208284031215611ddb57600080fd5b6000611de984828501611ca3565b91505092915050565b60008060008060808587031215611e0857600080fd5b6000611e1687828801611ca3565b945050602085013567ffffffffffffffff811115611e3357600080fd5b611e3f87828801611d0d565b935050604085013567ffffffffffffffff811115611e5c57600080fd5b611e6887828801611c19565b925050606085013567ffffffffffffffff811115611e8557600080fd5b611e9187828801611c19565b91505092959194509250565b600060208284031215611eaf57600080fd5b6000611ebd84828501611d63565b91505092915050565b611ecf816123c7565b82525050565b6000611ee08261238e565b80845260208401935083602082028501611ef985612381565b60005b84811015611f32578383038852611f14838351611f97565b9250611f1f826123ba565b9150602088019750600181019050611efc565b508196508694505050505092915050565b611f4c816123d9565b82525050565b611f5b816123e5565b82525050565b6000611f6c826123a4565b808452611f808160208601602086016124aa565b611f89816124dd565b602085010191505092915050565b6000611fa282612399565b808452611fb68160208601602086016124aa565b611fbf816124dd565b602085010191505092915050565b611fd681612453565b82525050565b611fe581612477565b82525050565b6000611ff6826123af565b80845261200a8160208601602086016124aa565b612013816124dd565b602085010191505092915050565b6000601982527f54727920746f207265736574207472616e7366657261626c65000000000000006020830152604082019050919050565b6000600f82527f496e76616c6964207265636569707400000000000000000000000000000000006020830152604082019050919050565b6000601382527f54727920746f207265736574206f726967696e000000000000000000000000006020830152604082019050919050565b6000601782527f53656e646572206973206e6f7420746865206f776e65720000000000000000006020830152604082019050919050565b6121068161240f565b82525050565b60006020820190506121216000830184611ec6565b92915050565b600060608201905061213c6000830186611ec6565b6121496020830185611ec6565b61215660408301846120fd565b949350505050565b60006040820190506121736000830185611ec6565b81810360208301526121858184611feb565b90509392505050565b60006020820190506121a36000830184611f43565b92915050565b60006020820190506121be6000830184611f52565b92915050565b60006080820190506121d96000830187611f52565b81810360208301526121eb8186611f61565b905081810360408301526121ff8185611ed5565b905081810360608301526122138184611ed5565b905095945050505050565b60006020820190506122336000830184611fcd565b92915050565b600060208201905061224e6000830184611fdc565b92915050565b6000602082019050818103600083015261226d81612021565b9050919050565b6000602082019050818103600083015261228d81612058565b9050919050565b600060208201905081810360008301526122ad8161208f565b9050919050565b600060208201905081810360008301526122cd816120c6565b9050919050565b6000604051905081810181811067ffffffffffffffff821117156122f757600080fd5b8060405250919050565b600067ffffffffffffffff82111561231857600080fd5b602082029050602081019050919050565b600067ffffffffffffffff82111561234057600080fd5b601f19601f8301169050602081019050919050565b600067ffffffffffffffff82111561236c57600080fd5b601f19601f8301169050602081019050919050565b6000602082019050919050565b600081519050919050565b600081519050919050565b600081519050919050565b600081519050919050565b6000602082019050919050565b60006123d2826123ef565b9050919050565b60008115159050919050565b6000819050919050565b600073ffffffffffffffffffffffffffffffffffffffff82169050919050565b6000819050919050565b6000612424826123ef565b9050919050565b60008115159050919050565b6000819050919050565b600061244c826123c7565b9050919050565b600061245e82612465565b9050919050565b6000612470826123ef565b9050919050565b600061248282612489565b9050919050565b6000612494826123ef565b9050919050565b82818337600083830152505050565b60005b838110156124c85780820151818401526020810190506124ad565b838111156124d7576000848401525b50505050565b6000601f19601f830116905091905056fea265627a7a72305820158526e9a9002d820c6c3880f7a665212ea0b69a7ecebb3fe43c83a97e7bc0056c6578706572696d656e74616cf50037",
  "source": "pragma solidity >=0.4.21 <0.6.0;\r\npragma experimental ABIEncoderV2;\r\n\r\nimport \"./ReceiptProver.sol\";\r\nimport \"./EventsLibrary.sol\";\r\nimport \"./Transferable.sol\";\r\n\r\ncontract EventsProcessor {\r\n    address owner;\r\n\r\n    ReceiptProver public prover;\r\n    Transferable public transferable;\r\n    address public origin;\r\n    bytes32 public transferTopic;\r\n    bytes32 public tokenTopic;\r\n    \r\n    mapping (bytes32 => bool) public processed;\r\n    \r\n    constructor(ReceiptProver _prover, bytes32 _transferTopic, bytes32 _tokenTopic) public {\r\n        owner = msg.sender;\r\n        prover = _prover;\r\n        transferTopic = _transferTopic;\r\n        tokenTopic = _tokenTopic;\r\n    }\r\n    \r\n    modifier onlyOwner() {\r\n        require(msg.sender == owner, \"Sender is not the owner\");\r\n        _;\r\n    }\r\n\r\n    function setTransferable(Transferable _transferable) public onlyOwner {\r\n        require(address(transferable) == address(0), \"Try to reset transferable\");\r\n        transferable = _transferable;\r\n    }\r\n\r\n    function setOrigin(address _origin) public onlyOwner {\r\n        require(address(origin) == address(0), \"Try to reset origin\");\r\n        origin = _origin;\r\n    }\r\n    \r\n    function processReceipt(bytes32 blkhash, bytes memory receipt, bytes[] memory prefixes, bytes[] memory suffixes) public {\r\n        bytes32 hash = keccak256(abi.encodePacked(blkhash, receipt));\r\n        \r\n        // TODO consider require\r\n        if (processed[hash])\r\n            return;\r\n            \r\n        require(prover.receiptIsValid(blkhash, receipt, prefixes, suffixes), \"Invalid receipt\");\r\n\r\n        EventsLibrary.TokenEvent[] memory tkevents = EventsLibrary.getTokenEvents(receipt, origin, tokenTopic);\r\n        uint ntkevents = tkevents.length;\r\n        \r\n        for (uint k = 0; k < ntkevents; k++) {\r\n            EventsLibrary.TokenEvent memory tkevent = tkevents[k];\r\n            \r\n            if (tkevent.token != address(0))\r\n                transferable.processToken(tkevent.token, tkevent.symbol);\r\n        }\r\n        \r\n        EventsLibrary.TransferEvent[] memory tevents = EventsLibrary.getTransferEvents(receipt, origin, transferTopic);\r\n        uint nevents = tevents.length;\r\n        \r\n        for (uint k = 0; k < nevents; k++) {\r\n            EventsLibrary.TransferEvent memory tevent = tevents[k];\r\n            \r\n            if (tevent.amount != 0)\r\n                transferable.acceptTransfer(tevent.token, tevent.receiver, tevent.amount);\r\n        }\r\n        \r\n        processed[hash] = true;\r\n    }\r\n}\r\n\r\n",
  "sourcePath": "C:/git/tokenbridge/bridge/contracts/EventsProcessor.sol",
  "compiler": {
    "name": "solc",
    "version": "0.5.0+commit.1d4f565a.Emscripten.clang"
  },
  "schemaVersion": "3.0.8",
  "updatedAt": "2019-10-12T19:39:35.186Z",
  "devdoc": {
    "methods": {}
  },
  "userdoc": {
    "methods": {}
  }
}