{
  "contractName": "Extended",
  "abi": [
    {
      "constant": false,
      "inputs": [],
      "name": "extended",
      "outputs": [],
      "payable": false,
      "stateMutability": "nonpayable",
      "type": "function"
    }
  ],
  "bytecode": "0x6080604052348015600f57600080fd5b50608d8061001e6000396000f3fe608060405260043610603f576000357c0100000000000000000000000000000000000000000000000000000000900463ffffffff1680636f3921ee146044575b600080fd5b348015604f57600080fd5b5060566058565b005b60016000602aa156fea165627a7a72305820f0792ec320465574be0b4fda5b19672eb917c6b6573dfe8cb0a8db230e8332c60029",
  "source": "pragma solidity >=0.5.0 <0.6.0;\r\n\r\ncontract Extended {\r\n    function extended() public {\r\n        assembly {\r\n            log1(42,0,1)\r\n        }\r\n    }\r\n}",
  "sourcePath": "C:/git/RskApi/samples/commands/contracts/Extended.sol",
  "compiler": {
    "name": "solc",
    "version": "0.5.0+commit.1d4f565a.Emscripten.clang"
  },
  "schemaVersion": "3.0.8",
  "updatedAt": "2019-12-19T11:32:49.781Z",
  "devdoc": {
    "methods": {}
  },
  "userdoc": {
    "methods": {}
  }
}