{
  "contractName": "Extended",
  "abi": [
    {
      "constant": false,
      "inputs": [],
      "name": "extended",
      "outputs": [],
      "payable": false,
      "stateMutability": "nonpayable",
      "type": "function"
    }
  ],
  "bytecode": "0x6080604052348015600f57600080fd5b50607380601d6000396000f3fe6080604052348015600f57600080fd5b506004361060285760003560e01c80636f3921ee14602d575b600080fd5b60336035565b005b60016000602aa156fea265627a7a723158200f00b53884094d707d2e5282244c2eefb3058fd1897f622f1e44ec06c008eaab64736f6c63430005100032",
  "source": "pragma solidity >=0.5.0 <0.6.0;\r\n\r\ncontract Extended {\r\n    function extended() public {\r\n        assembly {\r\n            log1(42,0,1)\r\n        }\r\n    }\r\n}",
  "sourcePath": "C:\\git\\RskApi\\samples\\commands\\contracts\\Extended.sol",
  "compiler": {
    "name": "solc",
    "version": "0.5.16+commit.9c3226ce.Emscripten.clang"
  },
  "schemaVersion": "3.0.23",
  "updatedAt": "2020-04-09T19:10:27.013Z",
  "devdoc": {
    "methods": {}
  },
  "userdoc": {
    "methods": {}
  }
}