{
  "contractName": "Jumps",
  "abi": [
    {
      "constant": false,
      "inputs": [],
      "name": "jumps",
      "outputs": [],
      "payable": false,
      "stateMutability": "nonpayable",
      "type": "function"
    }
  ],
  "bytecode": "0x6080604052348015600f57600080fd5b50608d8061001e6000396000f3fe608060405260043610603f576000357c0100000000000000000000000000000000000000000000000000000000900463ffffffff168063aabcc7ba146044575b600080fd5b348015604f57600080fd5b5060566058565b005b60016000602aa156fea165627a7a72305820636101362c12a9a3b8779f56863a45da171002723c90927b16f6ed78ce6bfc5d0029",
  "source": "pragma solidity >=0.5.0 <0.6.0;\r\n\r\ncontract Jumps {\r\n    function jumps() public {\r\n        assembly {\r\n            log1(42,0,1)\r\n        }\r\n    }\r\n}",
  "sourcePath": "C:/git/RskApi/samples/commands/contracts/Jumps.sol",
  "compiler": {
    "name": "solc",
    "version": "0.5.0+commit.1d4f565a.Emscripten.clang"
  },
  "schemaVersion": "3.0.8",
  "updatedAt": "2019-12-19T10:23:58.439Z",
  "devdoc": {
    "methods": {}
  },
  "userdoc": {
    "methods": {}
  }
}