{
  "contractName": "MMR",
  "abi": [
    {
      "constant": true,
      "inputs": [],
      "name": "nblock",
      "outputs": [
        {
          "name": "",
          "type": "uint256"
        }
      ],
      "payable": false,
      "stateMutability": "view",
      "type": "function"
    },
    {
      "constant": true,
      "inputs": [],
      "name": "initialBlock",
      "outputs": [
        {
          "name": "",
          "type": "uint256"
        }
      ],
      "payable": false,
      "stateMutability": "view",
      "type": "function"
    },
    {
      "constant": true,
      "inputs": [],
      "name": "nhash",
      "outputs": [
        {
          "name": "",
          "type": "bytes32"
        }
      ],
      "payable": false,
      "stateMutability": "view",
      "type": "function"
    },
    {
      "constant": true,
      "inputs": [
        {
          "name": "",
          "type": "uint256"
        }
      ],
      "name": "hashes",
      "outputs": [
        {
          "name": "",
          "type": "bytes32"
        }
      ],
      "payable": false,
      "stateMutability": "view",
      "type": "function"
    },
    {
      "constant": true,
      "inputs": [],
      "name": "nhashes",
      "outputs": [
        {
          "name": "",
          "type": "uint256"
        }
      ],
      "payable": false,
      "stateMutability": "view",
      "type": "function"
    },
    {
      "inputs": [],
      "payable": false,
      "stateMutability": "nonpayable",
      "type": "constructor"
    },
    {
      "anonymous": false,
      "inputs": [
        {
          "indexed": false,
          "name": "noblock",
          "type": "uint256"
        },
        {
          "indexed": false,
          "name": "blockhash",
          "type": "bytes32"
        },
        {
          "indexed": false,
          "name": "mmr",
          "type": "bytes32"
        }
      ],
      "name": "MerkleMountainRange",
      "type": "event"
    },
    {
      "constant": false,
      "inputs": [],
      "name": "calculate",
      "outputs": [],
      "payable": false,
      "stateMutability": "nonpayable",
      "type": "function"
    }
  ],
  "bytecode": "0x608060405234801561001057600080fd5b5043600181905550436000819055506103f28061002e6000396000f3fe608060405260043610610078576000357c0100000000000000000000000000000000000000000000000000000000900463ffffffff1680632c2d0b9a1461007d5780632cb15864146100a857806346344e2e146100d3578063501895ae146100fe578063a8dfc96f1461014d578063ca77ab6514610178575b600080fd5b34801561008957600080fd5b5061009261018f565b6040518082815260200191505060405180910390f35b3480156100b457600080fd5b506100bd610195565b6040518082815260200191505060405180910390f35b3480156100df57600080fd5b506100e861019b565b6040518082815260200191505060405180910390f35b34801561010a57600080fd5b506101376004803603602081101561012157600080fd5b81019080803590602001909291905050506101a1565b6040518082815260200191505060405180910390f35b34801561015957600080fd5b506101626101bb565b6040518082815260200191505060405180910390f35b34801561018457600080fd5b5061018d6101c1565b005b60015481565b60005481565b60025481565b6004816040811015156101b057fe5b016000915090505481565b60035481565b60004390505b6001548111156101de576101d96101e1565b6101c7565b50565b6000600154409050600081905060008090505b60408110156102b357600060048260408110151561020e57fe5b015460019004141561024c578160048260408110151561022a57fe5b018190555060035460018201111561024757600181016003819055505b6102b3565b60048160408110151561025b57fe5b015482604051602001808381526020018281526020019250505060405160208183030381529060405280519060200120915060006001026004826040811015156102a157fe5b018190555080806001019150506101f4565b50600160008154809291906001019190505550600080600090505b60035481101561036e5760006004826040811015156102e957fe5b01546001900414156102fa57610361565b600060010282141561031e5760048160408110151561031557fe5b01549150610360565b60048160408110151561032d57fe5b01548260405160200180838152602001828152602001925050506040516020818303038152906040528051906020012091505b5b80806001019150506102ce565b50806002819055507f01c02a151f540beee60caf5a75dea7dc9ca5a650d5df945c8c9358ee519fbe776001548460025460405180848152602001838152602001828152602001935050505060405180910390a150505056fea165627a7a7230582012aa24da823be21b805e95313178d4b06f797b02f0d5cfa9095863a23793b7820029",
  "source": "pragma solidity >=0.4.21 <0.6.0;\r\n\r\ncontract MMR {\r\n    uint constant NHASHES = 64;\r\n    uint public initialBlock;\r\n    \r\n    uint public nblock;\r\n    bytes32 public nhash;\r\n    \r\n    uint public nhashes;\r\n    bytes32[NHASHES] public hashes;\r\n    \r\n    event MerkleMountainRange(uint noblock, bytes32 blockhash, bytes32 mmr);\r\n    \r\n    constructor() public {\r\n        nblock = block.number;\r\n        initialBlock = block.number;\r\n    }\r\n    \r\n    function calculate() public {\r\n        uint current = block.number;\r\n        \r\n        while (current > nblock)\r\n            calculateBlock();\r\n    }\r\n    \r\n    function calculateBlock() private {\r\n        bytes32 bhash = blockhash(nblock);\r\n        bytes32 hash = bhash;\r\n        \r\n        for (uint k = 0; k < NHASHES; k++) {\r\n            if (uint(hashes[k]) == 0) {\r\n                hashes[k] = hash;\r\n                \r\n                if (k + 1 > nhashes)\r\n                    nhashes = k + 1;\r\n                    \r\n                break;\r\n            }\r\n            \r\n            hash = keccak256(abi.encodePacked(hashes[k], hash));\r\n            hashes[k] = 0;\r\n        }\r\n        \r\n        nblock++;\r\n        \r\n        bytes32 newhash;\r\n        \r\n        for (uint k = 0; k < nhashes; k++) {\r\n            if (uint(hashes[k]) == 0)\r\n                continue;\r\n            \r\n            if (newhash == bytes32(0))\r\n                newhash = hashes[k];\r\n            else\r\n                newhash = keccak256(abi.encodePacked(hashes[k], newhash));\r\n        }\r\n        \r\n        nhash = newhash;\r\n        \r\n        emit MerkleMountainRange(nblock, bhash, nhash);\r\n    }\r\n}\r\n\r\n",
  "sourcePath": "C:/git/tokenbridge/bridge/contracts/MMR.sol",
  "compiler": {
    "name": "solc",
    "version": "0.5.0+commit.1d4f565a.Emscripten.clang"
  },
  "schemaVersion": "3.0.8",
  "updatedAt": "2019-10-12T19:39:35.196Z",
  "devdoc": {
    "methods": {}
  },
  "userdoc": {
    "methods": {}
  }
}