{
  "contractName": "MMRProver",
  "abi": [
    {
      "constant": true,
      "inputs": [],
      "name": "blockRecorder",
      "outputs": [
        {
          "name": "",
          "type": "address"
        }
      ],
      "payable": false,
      "stateMutability": "view",
      "type": "function"
    },
    {
      "constant": true,
      "inputs": [],
      "name": "initialBlock",
      "outputs": [
        {
          "name": "",
          "type": "uint256"
        }
      ],
      "payable": false,
      "stateMutability": "view",
      "type": "function"
    },
    {
      "constant": true,
      "inputs": [
        {
          "name": "",
          "type": "bytes32"
        }
      ],
      "name": "proofs",
      "outputs": [
        {
          "name": "blockNumber",
          "type": "uint256"
        },
        {
          "name": "blockHash",
          "type": "bytes32"
        },
        {
          "name": "mmrRoot",
          "type": "bytes32"
        }
      ],
      "payable": false,
      "stateMutability": "view",
      "type": "function"
    },
    {
      "constant": true,
      "inputs": [],
      "name": "owner",
      "outputs": [
        {
          "name": "",
          "type": "address"
        }
      ],
      "payable": false,
      "stateMutability": "view",
      "type": "function"
    },
    {
      "inputs": [],
      "payable": false,
      "stateMutability": "nonpayable",
      "type": "constructor"
    },
    {
      "constant": false,
      "inputs": [
        {
          "name": "recorder",
          "type": "address"
        }
      ],
      "name": "setBlockRecorder",
      "outputs": [],
      "payable": false,
      "stateMutability": "nonpayable",
      "type": "function"
    },
    {
      "constant": false,
      "inputs": [
        {
          "name": "initial",
          "type": "uint256"
        }
      ],
      "name": "setInitialBlock",
      "outputs": [],
      "payable": false,
      "stateMutability": "nonpayable",
      "type": "function"
    },
    {
      "constant": true,
      "inputs": [
        {
          "name": "blockNumber",
          "type": "uint256"
        },
        {
          "name": "blockHash",
          "type": "bytes32"
        },
        {
          "name": "mmrRoot",
          "type": "bytes32"
        }
      ],
      "name": "getProofId",
      "outputs": [
        {
          "name": "",
          "type": "bytes32"
        }
      ],
      "payable": false,
      "stateMutability": "pure",
      "type": "function"
    },
    {
      "constant": false,
      "inputs": [
        {
          "name": "blockNumber",
          "type": "uint256"
        },
        {
          "name": "blockHash",
          "type": "bytes32"
        },
        {
          "name": "mmrRoot",
          "type": "bytes32"
        }
      ],
      "name": "initProcessProof",
      "outputs": [],
      "payable": false,
      "stateMutability": "nonpayable",
      "type": "function"
    },
    {
      "constant": false,
      "inputs": [
        {
          "name": "blockNumber",
          "type": "uint256"
        },
        {
          "name": "blockHash",
          "type": "bytes32"
        },
        {
          "name": "mmrRoot",
          "type": "bytes32"
        },
        {
          "name": "otherBlockNumber",
          "type": "uint256"
        },
        {
          "name": "initial",
          "type": "bytes"
        },
        {
          "name": "prefixes",
          "type": "bytes[]"
        },
        {
          "name": "suffixes",
          "type": "bytes[]"
        }
      ],
      "name": "processBlockProof",
      "outputs": [
        {
          "name": "",
          "type": "bool"
        }
      ],
      "payable": false,
      "stateMutability": "nonpayable",
      "type": "function"
    },
    {
      "constant": true,
      "inputs": [
        {
          "name": "blockNumber",
          "type": "uint256"
        },
        {
          "name": "blockHash",
          "type": "bytes32"
        },
        {
          "name": "mmrRoot",
          "type": "bytes32"
        }
      ],
      "name": "isProved",
      "outputs": [
        {
          "name": "",
          "type": "bool"
        }
      ],
      "payable": false,
      "stateMutability": "view",
      "type": "function"
    },
    {
      "constant": true,
      "inputs": [
        {
          "name": "blockNumber",
          "type": "uint256"
        },
        {
          "name": "blockHash",
          "type": "bytes32"
        },
        {
          "name": "mmrRoot",
          "type": "bytes32"
        }
      ],
      "name": "getProofStatus",
      "outputs": [
        {
          "name": "blocksToProve",
          "type": "uint256[]"
        },
        {
          "name": "proved",
          "type": "bool[]"
        }
      ],
      "payable": false,
      "stateMutability": "view",
      "type": "function"
    },
    {
      "constant": true,
      "inputs": [
        {
          "name": "finalmmr",
          "type": "bytes32"
        },
        {
          "name": "initial",
          "type": "bytes"
        },
        {
          "name": "prefixes",
          "type": "bytes[]"
        },
        {
          "name": "suffixes",
          "type": "bytes[]"
        }
      ],
      "name": "mmrIsValid",
      "outputs": [
        {
          "name": "",
          "type": "bool"
        }
      ],
      "payable": false,
      "stateMutability": "pure",
      "type": "function"
    },
    {
      "constant": true,
      "inputs": [
        {
          "name": "blockHash",
          "type": "bytes32"
        },
        {
          "name": "blockNumber",
          "type": "uint256"
        }
      ],
      "name": "getBlocksToProve",
      "outputs": [
        {
          "name": "blocksToProve",
          "type": "uint256[]"
        }
      ],
      "payable": false,
      "stateMutability": "view",
      "type": "function"
    },
    {
      "constant": true,
      "inputs": [
        {
          "name": "x",
          "type": "uint256"
        }
      ],
      "name": "log_2",
      "outputs": [
        {
          "name": "y",
          "type": "uint256"
        }
      ],
      "payable": false,
      "stateMutability": "pure",
      "type": "function"
    }
  ],
  "bytecode": "0x608060405234801561001057600080fd5b50336000806101000a81548173ffffffffffffffffffffffffffffffffffffffff021916908373ffffffffffffffffffffffffffffffffffffffff160217905550611bb0806100606000396000f3fe6080604052600436106100cf576000357c0100000000000000000000000000000000000000000000000000000000900463ffffffff168062ff2fb1146100d457806307d62c46146101115780630bacd9c51461013c57806316064b96146101795780631bdf3d60146101a25780632cb15864146101df578063444d95b01461020a5780634a6e628a14610249578063550f35691461028657806387f04a17146102c35780638da5cb5b146102ec578063cff078b314610317578063eabb289814610355578063eaddd42814610392575b600080fd5b3480156100e057600080fd5b506100fb60048036036100f691908101906114c1565b6103bb565b6040516101089190611982565b60405180910390f35b34801561011d57600080fd5b506101266105e7565b6040516101339190611907565b60405180910390f35b34801561014857600080fd5b50610163600480360361015e919081019061145c565b61060d565b6040516101709190611878565b60405180910390f35b34801561018557600080fd5b506101a0600480360361019b91908101906114ea565b610728565b005b3480156101ae57600080fd5b506101c960048036036101c491908101906114ea565b61081b565b6040516101d691906118ec565b60405180910390f35b3480156101eb57600080fd5b506101f461085d565b6040516102019190611982565b60405180910390f35b34801561021657600080fd5b50610231600480360361022c9190810190611388565b610863565b6040516102409392919061199d565b60405180910390f35b34801561025557600080fd5b50610270600480360361026b91908101906113b1565b61088d565b60405161027d91906118d1565b60405180910390f35b34801561029257600080fd5b506102ad60048036036102a89190810190611539565b6108ab565b6040516102ba91906118d1565b60405180910390f35b3480156102cf57600080fd5b506102ea60048036036102e59190810190611498565b610acf565b005b3480156102f857600080fd5b50610301610ba4565b60405161030e919061185d565b60405180910390f35b34801561032357600080fd5b5061033e600480360361033991908101906114ea565b610bc9565b60405161034c92919061189a565b60405180910390f35b34801561036157600080fd5b5061037c600480360361037791908101906114ea565b610d14565b60405161038991906118d1565b60405180910390f35b34801561039e57600080fd5b506103b960048036036103b491908101906114c1565b610d4f565b005b60008160018303925060028304831792506004830483179250601083048317925061010083048317925062010000830483179250640100000000830483179250680100000000000000008304831792507001000000000000000000000000000000008304831792506001830192506040517ff8f9cbfae6cc78fbefe7cdc3a1793dfcf4f0e8bbd8cec470b6a28a7a5a3e1efd81527ff5ecf1b3e9debc68e1d9cfabc5997135bfb7a7a3938b7b606b5b4b3f2f1f0ffe60208201527ff6e4ed9ff2d6b458eadcdf97bd91692de2d4da8fd2d0ac50c6ae9a827252361660408201527fc8c0b887b0a8a4489c948c7f847c6125746c645c544c444038302820181008ff60608201527ff7cae577eec2a03cf3bad76fb589591debb2dd67e0aa9834bea6925f6a4a2e0e60808201527fe39ed557db96902cd38ed14fad815115c786af479b7e8324736353433727170760a08201527fc976c13bb96e881cb166a933a55e490d9d56952b8d4e801485467d236242260660c08201527f753a6d1b65325d0c552a4d1345224105391a310b29122104190a11030902010060e082015261010081016040527e818283848586878898a8b8c8d8e8f929395969799a9b9d9e9faaeb6bedeeff7f01000000000000000000000000000000000000000000000000000000000000008082870204818160ff038501510495507f8000000000000000000000000000000000000000000000000000000000000000851161010002860195505050505050919050565b600260009054906101000a900473ffffffffffffffffffffffffffffffffffffffff1681565b60606001548210151515610656576040517f08c379a000000000000000000000000000000000000000000000000000000000815260040161064d90611962565b60405180910390fd5b600061066560015484036103bb565b9050600181016040519080825280602002602001820160405280156106995781602001602082028038833980820191505090505b50915060008160015485038115156106ad57fe5b04905060008090505b828110156106ff578186600190048115156106cd57fe5b06818302016001540184828151811015156106e457fe5b906020019060200201818152505080806001019150506106b6565b5083838381518110151561070f57fe5b9060200190602002018181525050829250505092915050565b600061073584848461081b565b9050600060036000838152602001908152602001600020905060008160000154141515610763575050610816565b848160000181905550838160010181905550828160020181905550610788848661060d565b81600301908051906020019061079f9291906111b8565b5060008160030180549050905060008090505b8181101561081157826004016000908060018154018082558091505090600182039060005260206000209060209182820401919006909192909190916101000a81548160ff0219169083151502179055505080806001019150506107b2565b505050505b505050565b60008383836040516020018084815260200183815260200182815260200193505050506040516020818303038152906040528051906020012090509392505050565b60015481565b60036020528060005260406000206000915090508060000154908060010154908060020154905083565b60008061089b858585610dea565b9050858114915050949350505050565b6000806108b989898961081b565b905060006003600083815260200190815260200160002090506000816000015414156108ea57600092505050610ac4565b6108f4818861106d565b1561090457600192505050610ac4565b8987141561095b57610917866000611115565b8914151561095a576040517f08c379a000000000000000000000000000000000000000000000000000000000815260040161095190611942565b60405180910390fd5b5b6109678887878761088d565b151561097857600092505050610ac4565b60008160030180549050905060008090505b81811015610a03578883600301828154811015156109a457fe5b906000526020600020015414156109f657600183600401828154811015156109c857fe5b90600052602060002090602091828204019190066101000a81548160ff021916908315150217905550610a03565b808060010191505061098a565b50610a0d82611126565b15610ac057600260009054906101000a900473ffffffffffffffffffffffffffffffffffffffff1673ffffffffffffffffffffffffffffffffffffffff16633172616683600101546040518263ffffffff167c0100000000000000000000000000000000000000000000000000000000028152600401610a8d91906118ec565b600060405180830381600087803b158015610aa757600080fd5b505af1158015610abb573d6000803e3d6000fd5b505050505b5050505b979650505050505050565b3373ffffffffffffffffffffffffffffffffffffffff166000809054906101000a900473ffffffffffffffffffffffffffffffffffffffff1673ffffffffffffffffffffffffffffffffffffffff16141515610b60576040517f08c379a0000000000000000000000000000000000000000000000000000000008152600401610b5790611922565b60405180910390fd5b80600260006101000a81548173ffffffffffffffffffffffffffffffffffffffff021916908373ffffffffffffffffffffffffffffffffffffffff16021790555050565b6000809054906101000a900473ffffffffffffffffffffffffffffffffffffffff1681565b6060806000610bd986868661081b565b9050600060036000838152602001908152602001600020905060008160030180549050905080604051908082528060200260200182016040528015610c2d5781602001602082028038833980820191505090505b50945080604051908082528060200260200182016040528015610c5f5781602001602082028038833980820191505090505b50935060008090505b81811015610d08578260030181815481101515610c8157fe5b90600052602060002001548682815181101515610c9a57fe5b90602001906020020181815250508260040181815481101515610cb957fe5b90600052602060002090602091828204019190069054906101000a900460ff168582815181101515610ce757fe5b90602001906020020190151590811515815250508080600101915050610c68565b50505050935093915050565b600080610d2285858561081b565b90506000600360008381526020019081526020016000209050610d4481611126565b925050509392505050565b3373ffffffffffffffffffffffffffffffffffffffff166000809054906101000a900473ffffffffffffffffffffffffffffffffffffffff1673ffffffffffffffffffffffffffffffffffffffff16141515610de0576040517f08c379a0000000000000000000000000000000000000000000000000000000008152600401610dd790611922565b60405180910390fd5b8060018190555050565b600080835190506000846000815181101515610e0257fe5b9060200190602002015186856000815181101515610e1c57fe5b906020019060200201516040516020018084805190602001908083835b602083101515610e5e5780518252602082019150602081019050602083039250610e39565b6001836020036101000a03801982511681845116808217855250505050505090500183805190602001908083835b602083101515610eb15780518252602082019150602081019050602083039250610e8c565b6001836020036101000a03801982511681845116808217855250505050505090500182805190602001908083835b602083101515610f045780518252602082019150602081019050602083039250610edf565b6001836020036101000a03801982511681845116808217855250505050505090500193505050506040516020818303038152906040528051906020012090506000600190505b82811015611060578581815181101515610f6057fe5b90602001906020020151828683815181101515610f7957fe5b906020019060200201516040516020018084805190602001908083835b602083101515610fbb5780518252602082019150602081019050602083039250610f96565b6001836020036101000a03801982511681845116808217855250505050505090500183815260200182805190602001908083835b6020831015156110145780518252602082019150602081019050602083039250610fef565b6001836020036101000a03801982511681845116808217855250505050505090500193505050506040516020818303038152906040528051906020012091508080600101915050610f4a565b5080925050509392505050565b60008083600001541415611084576000905061110f565b60008360030180549050905060008090505b81811015611108578385600301828154811015156110b057fe5b906000526020600020015414156110fb5784600401818154811015156110d257fe5b90600052602060002090602091828204019190069054906101000a900460ff169250505061110f565b8080600101915050611096565b5060009150505b92915050565b600081602084010151905092915050565b6000808260000154141561113d57600090506111b3565b60008260030180549050905060008090505b818110156111ac5760001515846004018281548110151561116c57fe5b90600052602060002090602091828204019190069054906101000a900460ff161515141561119f576000925050506111b3565b808060010191505061114f565b5060019150505b919050565b8280548282559060005260206000209081019282156111f4579160200282015b828111156111f35782518255916020019190600101906111d8565b5b5090506112019190611205565b5090565b61122791905b8082111561122357600081600090555060010161120b565b5090565b90565b600082601f830112151561123d57600080fd5b813561125061124b82611a01565b6119d4565b9150818183526020840193506020810190508360005b83811015611296578135860161127c88826112b4565b845260208401935060208301925050600181019050611266565b5050505092915050565b60006112ac8235611b1d565b905092915050565b600082601f83011215156112c757600080fd5b81356112da6112d582611a29565b6119d4565b915080825260208301602083018583830111156112f657600080fd5b611301838284611b67565b50505092915050565b600082601f830112151561131d57600080fd5b813561133061132b82611a55565b6119d4565b9150808252602083016020830185838301111561134c57600080fd5b611357838284611b67565b50505092915050565b600061136c8235611b27565b905092915050565b60006113808235611b39565b905092915050565b60006020828403121561139a57600080fd5b60006113a8848285016112a0565b91505092915050565b600080600080608085870312156113c757600080fd5b60006113d5878288016112a0565b945050602085013567ffffffffffffffff8111156113f257600080fd5b6113fe8782880161130a565b935050604085013567ffffffffffffffff81111561141b57600080fd5b6114278782880161122a565b925050606085013567ffffffffffffffff81111561144457600080fd5b6114508782880161122a565b91505092959194509250565b6000806040838503121561146f57600080fd5b600061147d858286016112a0565b925050602061148e85828601611374565b9150509250929050565b6000602082840312156114aa57600080fd5b60006114b884828501611360565b91505092915050565b6000602082840312156114d357600080fd5b60006114e184828501611374565b91505092915050565b6000806000606084860312156114ff57600080fd5b600061150d86828701611374565b935050602061151e868287016112a0565b925050604061152f868287016112a0565b9150509250925092565b600080600080600080600060e0888a03121561155457600080fd5b60006115628a828b01611374565b97505060206115738a828b016112a0565b96505060406115848a828b016112a0565b95505060606115958a828b01611374565b945050608088013567ffffffffffffffff8111156115b257600080fd5b6115be8a828b0161130a565b93505060a088013567ffffffffffffffff8111156115db57600080fd5b6115e78a828b0161122a565b92505060c088013567ffffffffffffffff81111561160457600080fd5b6116108a828b0161122a565b91505092959891949750929550565b61162881611acb565b82525050565b600061163982611a9b565b80845260208401935061164b83611a81565b60005b8281101561167d576116618683516116e4565b61166a82611ab1565b915060208601955060018101905061164e565b50849250505092915050565b600061169482611aa6565b8084526020840193506116a683611a8e565b60005b828110156116d8576116bc86835161184e565b6116c582611abe565b91506020860195506001810190506116a9565b50849250505092915050565b6116ed81611add565b82525050565b6116fc81611ae9565b82525050565b61170b81611b43565b82525050565b6000602182527f4f6e6c79206f776e65722063616e2063616c6c20746869732066756e6374696f60208301527f6e000000000000000000000000000000000000000000000000000000000000006040830152606082019050919050565b6000604882527f476976656e20426c6f636b2048617368206973206e6f74207468652073616d6560208301527f206173207468652048617368206f627461696e65642066726f6d20746865207260408301527f617720426c6f636b0000000000000000000000000000000000000000000000006060830152608082019050919050565b6000603082527f426c6f636b204e756d6265722063616e206265206c6f776572207468616e207460208301527f686520496e697469616c20426c6f636b000000000000000000000000000000006040830152606082019050919050565b61185781611b13565b82525050565b6000602082019050611872600083018461161f565b92915050565b600060208201905081810360008301526118928184611689565b905092915050565b600060408201905081810360008301526118b48185611689565b905081810360208301526118c8818461162e565b90509392505050565b60006020820190506118e660008301846116e4565b92915050565b600060208201905061190160008301846116f3565b92915050565b600060208201905061191c6000830184611702565b92915050565b6000602082019050818103600083015261193b81611711565b9050919050565b6000602082019050818103600083015261195b8161176e565b9050919050565b6000602082019050818103600083015261197b816117f1565b9050919050565b6000602082019050611997600083018461184e565b92915050565b60006060820190506119b2600083018661184e565b6119bf60208301856116f3565b6119cc60408301846116f3565b949350505050565b6000604051905081810181811067ffffffffffffffff821117156119f757600080fd5b8060405250919050565b600067ffffffffffffffff821115611a1857600080fd5b602082029050602081019050919050565b600067ffffffffffffffff821115611a4057600080fd5b601f19601f8301169050602081019050919050565b600067ffffffffffffffff821115611a6c57600080fd5b601f19601f8301169050602081019050919050565b6000602082019050919050565b6000602082019050919050565b600081519050919050565b600081519050919050565b6000602082019050919050565b6000602082019050919050565b6000611ad682611af3565b9050919050565b60008115159050919050565b6000819050919050565b600073ffffffffffffffffffffffffffffffffffffffff82169050919050565b6000819050919050565b6000819050919050565b6000611b3282611acb565b9050919050565b6000819050919050565b6000611b4e82611b55565b9050919050565b6000611b6082611af3565b9050919050565b8281833760008383015250505056fea265627a7a72305820668ede5e846e2f2e781a3303865ceb3597d75db43ec040391d04549df974273c6c6578706572696d656e74616cf50037",
  "source": "pragma solidity >=0.4.21 <0.6.0;\r\npragma experimental ABIEncoderV2;\r\n\r\nimport \"./ProofLibrary.sol\";\r\nimport \"./BlockRecorder.sol\";\r\nimport \"./RlpLibrary.sol\";\r\n\r\ncontract MMRProver {\r\n    address public owner;\r\n    uint public initialBlock;\r\n    BlockRecorder public blockRecorder;\r\n    \r\n    struct ProofData {\r\n        uint blockNumber;\r\n        bytes32 blockHash;\r\n        bytes32 mmrRoot;\r\n        uint[] blocksToProve;\r\n        bool[] proved;\r\n    }\r\n    \r\n    mapping (bytes32 => ProofData) public proofs;\r\n    \r\n    modifier onlyOwner() {\r\n        require(owner == msg.sender, \"Only owner can call this function\");\r\n        _;\r\n    }\r\n    \r\n    constructor() public {\r\n        owner = msg.sender;\r\n    }\r\n    \r\n    function setBlockRecorder(BlockRecorder recorder) public onlyOwner {\r\n        blockRecorder = recorder;\r\n    }\r\n    \r\n    function setInitialBlock(uint initial) public onlyOwner {\r\n        initialBlock = initial;\r\n    }\r\n    \r\n    function getProofId(uint blockNumber, bytes32 blockHash, bytes32 mmrRoot) public pure returns (bytes32) {\r\n        return keccak256(abi.encodePacked(blockNumber, blockHash, mmrRoot));\r\n    }\r\n    \r\n    function initProcessProof(uint blockNumber, bytes32 blockHash, bytes32 mmrRoot) public {\r\n        bytes32 proofId = getProofId(blockNumber, blockHash, mmrRoot);\r\n        \r\n        ProofData storage proof = proofs[proofId];\r\n        \r\n        if (proof.blockNumber != 0)\r\n            return;\r\n            \r\n        proof.blockNumber = blockNumber;\r\n        proof.blockHash = blockHash;\r\n        proof.mmrRoot = mmrRoot;\r\n        proof.blocksToProve = getBlocksToProve(blockHash, blockNumber);\r\n        \r\n        uint ntoprove = proof.blocksToProve.length;\r\n        \r\n        for (uint k = 0; k < ntoprove; k++)\r\n            proof.proved.push(false);\r\n    }\r\n    \r\n    function processBlockProof(uint blockNumber, bytes32 blockHash, bytes32 mmrRoot, uint otherBlockNumber, bytes memory initial, bytes[] memory prefixes, bytes[] memory suffixes) public returns (bool) {\r\n        bytes32 proofId = getProofId(blockNumber, blockHash, mmrRoot);\r\n        \r\n        ProofData storage proof = proofs[proofId];\r\n        \r\n        if (proof.blockNumber == 0)\r\n            return false;\r\n            \r\n        if (alreadyProved(proof, otherBlockNumber))\r\n            return true;\r\n            \r\n        if (otherBlockNumber == blockNumber)\r\n            require(blockHash == RlpLibrary.rlpItemToBytes32(initial, 0), \"Given Block Hash is not the same as the Hash obtained from the raw Block\");\r\n            \r\n        if (!mmrIsValid(mmrRoot, initial, prefixes, suffixes))\r\n            return false;\r\n                        \r\n        uint ntoprove = proof.blocksToProve.length;\r\n        \r\n        for (uint k = 0; k < ntoprove; k++)\r\n            if (proof.blocksToProve[k] == otherBlockNumber) {\r\n                proof.proved[k] = true;\r\n                break;\r\n            }\r\n            \r\n        if (allBlocksProved(proof))\r\n            blockRecorder.mmrProved(proof.blockHash);\r\n    }\r\n    \r\n    function allBlocksProved(ProofData storage proof) private view returns (bool) {\r\n        if (proof.blockNumber == 0)\r\n            return false;\r\n            \r\n        uint nblocks = proof.blocksToProve.length;\r\n        \r\n        for (uint k = 0; k < nblocks; k++)\r\n            if (proof.proved[k] == false)\r\n                return false;\r\n                \r\n        return true;\r\n    }\r\n    \r\n    function isProved(uint blockNumber, bytes32 blockHash, bytes32 mmrRoot) public view returns (bool) {\r\n        bytes32 proofId = getProofId(blockNumber, blockHash, mmrRoot);\r\n        \r\n        ProofData storage proof = proofs[proofId];\r\n\r\n        return allBlocksProved(proof);\r\n    }\r\n    \r\n    function getProofStatus(uint blockNumber, bytes32 blockHash, bytes32 mmrRoot) public view returns (uint[] memory blocksToProve, bool[] memory proved) {\r\n        bytes32 proofId = getProofId(blockNumber, blockHash, mmrRoot);\r\n        \r\n        ProofData storage proof = proofs[proofId];\r\n        \r\n        uint nblocks = proof.blocksToProve.length;\r\n        \r\n        blocksToProve = new uint[](nblocks);\r\n        proved = new bool[](nblocks);\r\n        \r\n        for (uint k = 0; k < nblocks; k++) {\r\n            blocksToProve[k] = proof.blocksToProve[k];\r\n            proved[k] = proof.proved[k];\r\n        }\r\n    }\r\n    \r\n    function alreadyProved(ProofData storage proof, uint otherBlockNumber) private view returns (bool) {\r\n        if (proof.blockNumber == 0)\r\n            return false;\r\n            \r\n        uint ntoprove = proof.blocksToProve.length;\r\n            \r\n        for (uint k = 0; k < ntoprove; k++)\r\n            if (proof.blocksToProve[k] == otherBlockNumber)\r\n                return proof.proved[k];\r\n                \r\n        return false;\r\n    }\r\n\r\n    function mmrIsValid(bytes32 finalmmr, bytes memory initial, bytes[] memory prefixes, bytes[] memory suffixes) public pure returns (bool) {\r\n        bytes32 root = ProofLibrary.calculateRoot(initial, prefixes, suffixes);\r\n        return root == finalmmr;\r\n    }\r\n\r\n    function getBlocksToProve(bytes32 blockHash, uint256 blockNumber) public view returns (uint256[] memory blocksToProve) {\r\n        //TODO this is an example, implement actual fiat-shamir transform to get the blocks\r\n        require(blockNumber >= initialBlock, \"Block Number can be lower than the Initial Block\");\r\n        uint blocksCount = log_2(blockNumber - initialBlock);\r\n        blocksToProve = new uint256[](blocksCount + 1);\r\n        uint256 jump = (blockNumber - initialBlock) / blocksCount;\r\n        \r\n        for(uint i = 0; i < blocksCount; i++){\r\n            blocksToProve[i] = initialBlock + (jump * i + uint256(blockHash) % jump);\r\n        }\r\n        \r\n        blocksToProve[blocksCount] = blockNumber;\r\n        \r\n        return blocksToProve;\r\n    }\r\n\r\n    function log_2(uint x) public pure returns (uint y) {\r\n        //efficient (< 700 gas) way to calculate the ceiling of log_2: https://ethereum.stackovernet.com/es/q/2476#text_a30168\r\n        assembly {\r\n           let arg := x\r\n           x := sub(x,1)\r\n           x := or(x, div(x, 0x02))\r\n           x := or(x, div(x, 0x04))\r\n           x := or(x, div(x, 0x10))\r\n           x := or(x, div(x, 0x100))\r\n           x := or(x, div(x, 0x10000))\r\n           x := or(x, div(x, 0x100000000))\r\n           x := or(x, div(x, 0x10000000000000000))\r\n           x := or(x, div(x, 0x100000000000000000000000000000000))\r\n           x := add(x, 1)\r\n           let m := mload(0x40)\r\n           mstore(m,           0xf8f9cbfae6cc78fbefe7cdc3a1793dfcf4f0e8bbd8cec470b6a28a7a5a3e1efd)\r\n           mstore(add(m,0x20), 0xf5ecf1b3e9debc68e1d9cfabc5997135bfb7a7a3938b7b606b5b4b3f2f1f0ffe)\r\n           mstore(add(m,0x40), 0xf6e4ed9ff2d6b458eadcdf97bd91692de2d4da8fd2d0ac50c6ae9a8272523616)\r\n           mstore(add(m,0x60), 0xc8c0b887b0a8a4489c948c7f847c6125746c645c544c444038302820181008ff)\r\n           mstore(add(m,0x80), 0xf7cae577eec2a03cf3bad76fb589591debb2dd67e0aa9834bea6925f6a4a2e0e)\r\n           mstore(add(m,0xa0), 0xe39ed557db96902cd38ed14fad815115c786af479b7e83247363534337271707)\r\n           mstore(add(m,0xc0), 0xc976c13bb96e881cb166a933a55e490d9d56952b8d4e801485467d2362422606)\r\n           mstore(add(m,0xe0), 0x753a6d1b65325d0c552a4d1345224105391a310b29122104190a110309020100)\r\n           mstore(0x40, add(m, 0x100))\r\n           let magic := 0x818283848586878898a8b8c8d8e8f929395969799a9b9d9e9faaeb6bedeeff\r\n           let shift := 0x100000000000000000000000000000000000000000000000000000000000000\r\n           let a := div(mul(x, magic), shift)\r\n           y := div(mload(add(m,sub(255,a))), shift)\r\n           y := add(y, mul(256, gt(arg, 0x8000000000000000000000000000000000000000000000000000000000000000)))\r\n        }\r\n    }\r\n}\r\n\r\n",
  "sourcePath": "C:/git/tokenbridge/bridge/contracts/MMRProver.sol",
  "compiler": {
    "name": "solc",
    "version": "0.5.0+commit.1d4f565a.Emscripten.clang"
  },
  "schemaVersion": "3.0.8",
  "updatedAt": "2019-10-12T19:39:35.227Z",
  "devdoc": {
    "methods": {}
  },
  "userdoc": {
    "methods": {}
  }
}