{
  "contractName": "ProofHelper",
  "abi": [
    {
      "constant": true,
      "inputs": [
        {
          "name": "content",
          "type": "bytes"
        },
        {
          "name": "prefixes",
          "type": "bytes[]"
        },
        {
          "name": "sufixes",
          "type": "bytes[]"
        }
      ],
      "name": "calculateRoot",
      "outputs": [
        {
          "name": "",
          "type": "bytes32"
        }
      ],
      "payable": false,
      "stateMutability": "pure",
      "type": "function"
    }
  ],
  "bytecode": "0x608060405234801561001057600080fd5b506105ff806100206000396000f3fe608060405260043610610041576000357c0100000000000000000000000000000000000000000000000000000000900463ffffffff1680633fbddff514610046575b600080fd5b34801561005257600080fd5b5061006d6004803603610068919081019061043e565b610083565b60405161007a91906104e4565b60405180910390f35b6000610090848484610099565b90509392505050565b6000808351905060008460008151811015156100b157fe5b90602001906020020151868560008151811015156100cb57fe5b906020019060200201516040516020018084805190602001908083835b60208310151561010d57805182526020820191506020810190506020830392506100e8565b6001836020036101000a03801982511681845116808217855250505050505090500183805190602001908083835b602083101515610160578051825260208201915060208101905060208303925061013b565b6001836020036101000a03801982511681845116808217855250505050505090500182805190602001908083835b6020831015156101b3578051825260208201915060208101905060208303925061018e565b6001836020036101000a03801982511681845116808217855250505050505090500193505050506040516020818303038152906040528051906020012090506000600190505b8281101561030f57858181518110151561020f57fe5b9060200190602002015182868381518110151561022857fe5b906020019060200201516040516020018084805190602001908083835b60208310151561026a5780518252602082019150602081019050602083039250610245565b6001836020036101000a03801982511681845116808217855250505050505090500183815260200182805190602001908083835b6020831015156102c3578051825260208201915060208101905060208303925061029e565b6001836020036101000a038019825116818451168082178552505050505050905001935050505060405160208183030381529060405280519060200120915080806001019150506101f9565b5080925050509392505050565b600082601f830112151561032f57600080fd5b813561034261033d8261052c565b6104ff565b9150818183526020840193506020810190508360005b83811015610388578135860161036e8882610392565b845260208401935060208301925050600181019050610358565b5050505092915050565b600082601f83011215156103a557600080fd5b81356103b86103b382610554565b6104ff565b915080825260208301602083018583830111156103d457600080fd5b6103df8382846105b6565b50505092915050565b600082601f83011215156103fb57600080fd5b813561040e61040982610580565b6104ff565b9150808252602083016020830185838301111561042a57600080fd5b6104358382846105b6565b50505092915050565b60008060006060848603121561045357600080fd5b600084013567ffffffffffffffff81111561046d57600080fd5b610479868287016103e8565b935050602084013567ffffffffffffffff81111561049657600080fd5b6104a28682870161031c565b925050604084013567ffffffffffffffff8111156104bf57600080fd5b6104cb8682870161031c565b9150509250925092565b6104de816105ac565b82525050565b60006020820190506104f960008301846104d5565b92915050565b6000604051905081810181811067ffffffffffffffff8211171561052257600080fd5b8060405250919050565b600067ffffffffffffffff82111561054357600080fd5b602082029050602081019050919050565b600067ffffffffffffffff82111561056b57600080fd5b601f19601f8301169050602081019050919050565b600067ffffffffffffffff82111561059757600080fd5b601f19601f8301169050602081019050919050565b6000819050919050565b8281833760008383015250505056fea265627a7a723058209f583191acda087584f79540f5b0e4a1f1c3dea91b1062b8ab6ca8664d9afd4e6c6578706572696d656e74616cf50037",
  "source": "pragma solidity >=0.4.21 <0.6.0;\r\npragma experimental ABIEncoderV2;\r\n\r\nimport \"../ProofLibrary.sol\";\r\n\r\ncontract ProofHelper {\r\n    function calculateRoot(bytes memory content, bytes[] memory prefixes, bytes[] memory sufixes) public pure returns (bytes32) {\r\n        return ProofLibrary.calculateRoot(content, prefixes, sufixes);\r\n    }\r\n}\r\n\r\n",
  "sourcePath": "C:/git/tokenbridge/bridge/contracts/test/ProofHelper.sol",
  "compiler": {
    "name": "solc",
    "version": "0.5.0+commit.1d4f565a.Emscripten.clang"
  },
  "schemaVersion": "3.0.8",
  "updatedAt": "2019-10-12T19:39:35.327Z",
  "devdoc": {
    "methods": {}
  },
  "userdoc": {
    "methods": {}
  }
}