{
  "contractName": "ReceiptProver",
  "abi": [
    {
      "constant": true,
      "inputs": [],
      "name": "blockRecorder",
      "outputs": [
        {
          "name": "",
          "type": "address"
        }
      ],
      "payable": false,
      "stateMutability": "view",
      "type": "function"
    },
    {
      "inputs": [
        {
          "name": "recorder",
          "type": "address"
        }
      ],
      "payable": false,
      "stateMutability": "nonpayable",
      "type": "constructor"
    },
    {
      "constant": true,
      "inputs": [
        {
          "name": "blkhash",
          "type": "bytes32"
        },
        {
          "name": "receipt",
          "type": "bytes"
        },
        {
          "name": "prefixes",
          "type": "bytes[]"
        },
        {
          "name": "suffixes",
          "type": "bytes[]"
        }
      ],
      "name": "receiptIsValid",
      "outputs": [
        {
          "name": "",
          "type": "bool"
        }
      ],
      "payable": false,
      "stateMutability": "view",
      "type": "function"
    }
  ],
  "bytecode": "0x608060405234801561001057600080fd5b50604051602080610ae7833981018060405261002f9190810190610089565b806000806101000a81548173ffffffffffffffffffffffffffffffffffffffff021916908373ffffffffffffffffffffffffffffffffffffffff160217905550506100f6565b600061008182516100e4565b905092915050565b60006020828403121561009b57600080fd5b60006100a984828501610075565b91505092915050565b60006100bd826100c4565b9050919050565b600073ffffffffffffffffffffffffffffffffffffffff82169050919050565b60006100ef826100b2565b9050919050565b6109e2806101056000396000f3fe60806040526004361061004c576000357c0100000000000000000000000000000000000000000000000000000000900463ffffffff16806307d62c461461005157806355119bf91461007c575b600080fd5b34801561005d57600080fd5b506100666100b9565b6040516100739190610841565b60405180910390f35b34801561008857600080fd5b506100a3600480360361009e91908101906106fc565b6100de565b6040516100b0919061080b565b60405180910390f35b6000809054906101000a900473ffffffffffffffffffffffffffffffffffffffff1681565b60008060009054906101000a900473ffffffffffffffffffffffffffffffffffffffff1673ffffffffffffffffffffffffffffffffffffffff1663abc36f36866040518263ffffffff167c01000000000000000000000000000000000000000000000000000000000281526004016101569190610826565b60206040518083038186803b15801561016e57600080fd5b505afa158015610182573d6000803e3d6000fd5b505050506040513d601f19601f820116820180604052506101a691908101906106aa565b15156101e7576040517f08c379a00000000000000000000000000000000000000000000000000000000081526004016101de9061085c565b60405180910390fd5b60006101f48585856102c9565b9050806000809054906101000a900473ffffffffffffffffffffffffffffffffffffffff1673ffffffffffffffffffffffffffffffffffffffff16630b80d022886040518263ffffffff167c010000000000000000000000000000000000000000000000000000000002815260040161026d9190610826565b60206040518083038186803b15801561028557600080fd5b505afa158015610299573d6000803e3d6000fd5b505050506040513d601f19601f820116820180604052506102bd91908101906106d3565b14915050949350505050565b6000808351905060008460008151811015156102e157fe5b90602001906020020151868560008151811015156102fb57fe5b906020019060200201516040516020018084805190602001908083835b60208310151561033d5780518252602082019150602081019050602083039250610318565b6001836020036101000a03801982511681845116808217855250505050505090500183805190602001908083835b602083101515610390578051825260208201915060208101905060208303925061036b565b6001836020036101000a03801982511681845116808217855250505050505090500182805190602001908083835b6020831015156103e357805182526020820191506020810190506020830392506103be565b6001836020036101000a03801982511681845116808217855250505050505090500193505050506040516020818303038152906040528051906020012090506000600190505b8281101561053f57858181518110151561043f57fe5b9060200190602002015182868381518110151561045857fe5b906020019060200201516040516020018084805190602001908083835b60208310151561049a5780518252602082019150602081019050602083039250610475565b6001836020036101000a03801982511681845116808217855250505050505090500183815260200182805190602001908083835b6020831015156104f357805182526020820191506020810190506020830392506104ce565b6001836020036101000a03801982511681845116808217855250505050505090500193505050506040516020818303038152906040528051906020012091508080600101915050610429565b5080925050509392505050565b600082601f830112151561055f57600080fd5b813561057261056d826108a9565b61087c565b9150818183526020840193506020810190508360005b838110156105b8578135860161059e88826105fe565b845260208401935060208301925050600181019050610588565b5050505092915050565b60006105ce825161095f565b905092915050565b60006105e2823561096b565b905092915050565b60006105f6825161096b565b905092915050565b600082601f830112151561061157600080fd5b813561062461061f826108d1565b61087c565b9150808252602083016020830185838301111561064057600080fd5b61064b838284610999565b50505092915050565b600082601f830112151561066757600080fd5b813561067a610675826108fd565b61087c565b9150808252602083016020830185838301111561069657600080fd5b6106a1838284610999565b50505092915050565b6000602082840312156106bc57600080fd5b60006106ca848285016105c2565b91505092915050565b6000602082840312156106e557600080fd5b60006106f3848285016105ea565b91505092915050565b6000806000806080858703121561071257600080fd5b6000610720878288016105d6565b945050602085013567ffffffffffffffff81111561073d57600080fd5b61074987828801610654565b935050604085013567ffffffffffffffff81111561076657600080fd5b6107728782880161054c565b925050606085013567ffffffffffffffff81111561078f57600080fd5b61079b8782880161054c565b91505092959194509250565b6107b081610929565b82525050565b6107bf81610935565b82525050565b6107ce81610975565b82525050565b6000601f82527f426c6f636b20686173206e6f74206265656e207265636f7264656420796574006020830152604082019050919050565b600060208201905061082060008301846107a7565b92915050565b600060208201905061083b60008301846107b6565b92915050565b600060208201905061085660008301846107c5565b92915050565b60006020820190508181036000830152610875816107d4565b9050919050565b6000604051905081810181811067ffffffffffffffff8211171561089f57600080fd5b8060405250919050565b600067ffffffffffffffff8211156108c057600080fd5b602082029050602081019050919050565b600067ffffffffffffffff8211156108e857600080fd5b601f19601f8301169050602081019050919050565b600067ffffffffffffffff82111561091457600080fd5b601f19601f8301169050602081019050919050565b60008115159050919050565b6000819050919050565b600073ffffffffffffffffffffffffffffffffffffffff82169050919050565b60008115159050919050565b6000819050919050565b600061098082610987565b9050919050565b60006109928261093f565b9050919050565b8281833760008383015250505056fea265627a7a72305820e52dd08c40052209dfdec06e42d37e4aa23fe132a123ce9f8cbe6d29917a12796c6578706572696d656e74616cf50037",
  "source": "pragma solidity >=0.4.21 <0.6.0;\r\npragma experimental ABIEncoderV2;\r\n\r\nimport \"./BlockRecorder.sol\";\r\nimport \"./ProofLibrary.sol\";\r\n\r\nimport \"./RlpLibrary.sol\";\r\n\r\ncontract ReceiptProver {\r\n    BlockRecorder public blockRecorder;\r\n    \r\n    constructor(BlockRecorder recorder) public {\r\n        blockRecorder = recorder;\r\n    }\r\n    \r\n    function receiptIsValid(bytes32 blkhash, bytes memory receipt, bytes[] memory prefixes, bytes[] memory suffixes) public view returns (bool) {\r\n        require(blockRecorder.getBlockMMRProved(blkhash), \"Block has not been recorded yet\");\r\n        \r\n        bytes32 receiptRoot = ProofLibrary.calculateRoot(receipt, prefixes, suffixes);\r\n        \r\n        return blockRecorder.getBlockReceiptRoot(blkhash) == receiptRoot;\r\n    }\r\n}\r\n\r\n",
  "sourcePath": "C:\\git\\tokenbridge\\bridge\\contracts\\ReceiptProver.sol",
  "compiler": {
    "name": "solc",
    "version": "0.5.0+commit.1d4f565a.Emscripten.clang"
  },
  "schemaVersion": "3.0.8",
  "updatedAt": "2019-10-12T19:39:35.265Z",
  "devdoc": {
    "methods": {}
  },
  "userdoc": {
    "methods": {}
  }
}