{
  "contractName": "RecursiveChild",
  "abi": [
    {
      "inputs": [
        {
          "internalType": "contract RecursiveInterface",
          "name": "parent",
          "type": "address"
        }
      ],
      "payable": false,
      "stateMutability": "nonpayable",
      "type": "constructor"
    },
    {
      "constant": true,
      "inputs": [],
      "name": "counter",
      "outputs": [
        {
          "internalType": "uint256",
          "name": "",
          "type": "uint256"
        }
      ],
      "payable": false,
      "stateMutability": "view",
      "type": "function"
    },
    {
      "constant": true,
      "inputs": [],
      "name": "recursive",
      "outputs": [
        {
          "internalType": "contract RecursiveInterface",
          "name": "",
          "type": "address"
        }
      ],
      "payable": false,
      "stateMutability": "view",
      "type": "function"
    },
    {
      "constant": false,
      "inputs": [
        {
          "internalType": "uint256",
          "name": "level",
          "type": "uint256"
        }
      ],
      "name": "increment",
      "outputs": [],
      "payable": false,
      "stateMutability": "nonpayable",
      "type": "function"
    }
  ],
  "bytecode": "0x608060405234801561001057600080fd5b506040516102853803806102858339818101604052602081101561003357600080fd5b810190808051906020019092919050505080600160006101000a81548173ffffffffffffffffffffffffffffffffffffffff021916908373ffffffffffffffffffffffffffffffffffffffff160217905550506101f0806100956000396000f3fe608060405234801561001057600080fd5b50600436106100415760003560e01c806361bc221a146100465780637cf5dab01461006457806399c93b7b14610092575b600080fd5b61004e6100dc565b6040518082815260200191505060405180910390f35b6100906004803603602081101561007a57600080fd5b81019080803590602001909291905050506100e2565b005b61009a610195565b604051808273ffffffffffffffffffffffffffffffffffffffff1673ffffffffffffffffffffffffffffffffffffffff16815260200191505060405180910390f35b60005481565b60008114156100f057610192565b6000808154809291906001019190505550600160009054906101000a900473ffffffffffffffffffffffffffffffffffffffff1673ffffffffffffffffffffffffffffffffffffffff16637cf5dab0600183036040518263ffffffff1660e01b815260040180828152602001915050600060405180830381600087803b15801561017957600080fd5b505af115801561018d573d6000803e3d6000fd5b505050505b50565b600160009054906101000a900473ffffffffffffffffffffffffffffffffffffffff168156fea265627a7a72315820fcf11fb16267f8707a34d30e6b2c980491bc4c79582a4b80c3d0958f83f4e3b964736f6c63430005100032",
  "source": "pragma solidity >=0.5.0 <0.6.0;\r\n\r\nimport \"./RecursiveInterface.sol\";\r\n\r\ncontract RecursiveChild is RecursiveInterface {\r\n    uint public counter;\r\n    RecursiveInterface public recursive;\r\n    \r\n    constructor (RecursiveInterface parent) public {\r\n        recursive = parent;\r\n    }\r\n    \r\n    function increment(uint level) public {\r\n        if (level == 0)\r\n            return;\r\n            \r\n        counter++;\r\n        \r\n        recursive.increment(level - 1);\r\n    }\r\n}\r\n\r\n",
  "sourcePath": "C:\\git\\RskApi\\samples\\commands\\contracts\\RecursiveChild.sol",
  "compiler": {
    "name": "solc",
    "version": "0.5.16+commit.9c3226ce.Emscripten.clang"
  },
  "schemaVersion": "3.0.23",
  "updatedAt": "2021-02-14T15:24:49.692Z",
  "devdoc": {
    "methods": {}
  },
  "userdoc": {
    "methods": {}
  }
}