{
  "contractName": "RlpHelper",
  "abi": [
    {
      "constant": true,
      "inputs": [
        {
          "name": "data",
          "type": "bytes"
        },
        {
          "name": "offset",
          "type": "uint256"
        }
      ],
      "name": "getRlpTotalLength",
      "outputs": [
        {
          "name": "",
          "type": "uint256"
        }
      ],
      "payable": false,
      "stateMutability": "pure",
      "type": "function"
    },
    {
      "constant": true,
      "inputs": [
        {
          "name": "data",
          "type": "bytes"
        },
        {
          "name": "offset",
          "type": "uint256"
        }
      ],
      "name": "getRlpLength",
      "outputs": [
        {
          "name": "",
          "type": "uint256"
        }
      ],
      "payable": false,
      "stateMutability": "pure",
      "type": "function"
    },
    {
      "constant": true,
      "inputs": [
        {
          "name": "data",
          "type": "bytes"
        },
        {
          "name": "offset",
          "type": "uint256"
        }
      ],
      "name": "getRlpOffset",
      "outputs": [
        {
          "name": "",
          "type": "uint256"
        }
      ],
      "payable": false,
      "stateMutability": "pure",
      "type": "function"
    },
    {
      "constant": true,
      "inputs": [
        {
          "name": "data",
          "type": "bytes"
        },
        {
          "name": "offset",
          "type": "uint256"
        }
      ],
      "name": "getRlpItem",
      "outputs": [
        {
          "name": "itemOffset",
          "type": "uint256"
        },
        {
          "name": "itemLength",
          "type": "uint256"
        }
      ],
      "payable": false,
      "stateMutability": "pure",
      "type": "function"
    },
    {
      "constant": true,
      "inputs": [
        {
          "name": "data",
          "type": "bytes"
        },
        {
          "name": "offset",
          "type": "uint256"
        }
      ],
      "name": "getRlpNumItems",
      "outputs": [
        {
          "name": "",
          "type": "uint256"
        }
      ],
      "payable": false,
      "stateMutability": "pure",
      "type": "function"
    },
    {
      "constant": true,
      "inputs": [
        {
          "name": "data",
          "type": "bytes"
        },
        {
          "name": "offset",
          "type": "uint256"
        }
      ],
      "name": "getRlpItems",
      "outputs": [
        {
          "name": "offsets",
          "type": "uint256[]"
        },
        {
          "name": "lengths",
          "type": "uint256[]"
        }
      ],
      "payable": false,
      "stateMutability": "pure",
      "type": "function"
    },
    {
      "constant": true,
      "inputs": [
        {
          "name": "data",
          "type": "bytes"
        },
        {
          "name": "offset",
          "type": "uint256"
        },
        {
          "name": "length",
          "type": "uint256"
        }
      ],
      "name": "rlpItemToBytes",
      "outputs": [
        {
          "name": "",
          "type": "bytes"
        }
      ],
      "payable": false,
      "stateMutability": "pure",
      "type": "function"
    },
    {
      "constant": true,
      "inputs": [
        {
          "name": "data",
          "type": "bytes"
        },
        {
          "name": "offset",
          "type": "uint256"
        }
      ],
      "name": "rlpItemToAddress",
      "outputs": [
        {
          "name": "",
          "type": "address"
        }
      ],
      "payable": false,
      "stateMutability": "pure",
      "type": "function"
    },
    {
      "constant": true,
      "inputs": [
        {
          "name": "data",
          "type": "bytes"
        },
        {
          "name": "offset",
          "type": "uint256"
        }
      ],
      "name": "rlpItemToBytes32",
      "outputs": [
        {
          "name": "",
          "type": "bytes32"
        }
      ],
      "payable": false,
      "stateMutability": "pure",
      "type": "function"
    },
    {
      "constant": true,
      "inputs": [
        {
          "name": "data",
          "type": "bytes"
        },
        {
          "name": "offset",
          "type": "uint256"
        },
        {
          "name": "length",
          "type": "uint256"
        }
      ],
      "name": "rlpItemToUint256",
      "outputs": [
        {
          "name": "",
          "type": "uint256"
        }
      ],
      "payable": false,
      "stateMutability": "pure",
      "type": "function"
    }
  ],
  "bytecode": "0x608060405234801561001057600080fd5b506117c4806100206000396000f3fe6080604052600436106100a4576000357c0100000000000000000000000000000000000000000000000000000000900463ffffffff1680631afe4eb1146100a95780634236f9d51461018f57806350f7ff58146102a1578063584305ed146103875780635f35eb3a146104f65780636747c3bc1461064b5780638207a0801461073157806399aa32751461081e578063b1844f9f14610904578063c24275bd146109f4575b600080fd5b3480156100b557600080fd5b50610179600480360360408110156100cc57600080fd5b81019080803590602001906401000000008111156100e957600080fd5b8201836020820111156100fb57600080fd5b8035906020019184600183028401116401000000008311171561011d57600080fd5b91908080601f016020809104026020016040519081016040528093929190818152602001838380828437600081840152601f19601f82011690508083019250505050505050919291929080359060200190929190505050610ada565b6040518082815260200191505060405180910390f35b34801561019b57600080fd5b5061025f600480360360408110156101b257600080fd5b81019080803590602001906401000000008111156101cf57600080fd5b8201836020820111156101e157600080fd5b8035906020019184600183028401116401000000008311171561020357600080fd5b91908080601f016020809104026020016040519081016040528093929190818152602001838380828437600081840152601f19601f82011690508083019250505050505050919291929080359060200190929190505050610aee565b604051808273ffffffffffffffffffffffffffffffffffffffff1673ffffffffffffffffffffffffffffffffffffffff16815260200191505060405180910390f35b3480156102ad57600080fd5b50610371600480360360408110156102c457600080fd5b81019080803590602001906401000000008111156102e157600080fd5b8201836020820111156102f357600080fd5b8035906020019184600183028401116401000000008311171561031557600080fd5b91908080601f016020809104026020016040519081016040528093929190818152602001838380828437600081840152601f19601f82011690508083019250505050505050919291929080359060200190929190505050610b02565b6040518082815260200191505060405180910390f35b34801561039357600080fd5b50610457600480360360408110156103aa57600080fd5b81019080803590602001906401000000008111156103c757600080fd5b8201836020820111156103d957600080fd5b803590602001918460018302840111640100000000831117156103fb57600080fd5b91908080601f016020809104026020016040519081016040528093929190818152602001838380828437600081840152601f19601f82011690508083019250505050505050919291929080359060200190929190505050610b16565b604051808060200180602001838103835285818151815260200191508051906020019060200280838360005b8381101561049e578082015181840152602081019050610483565b50505050905001838103825284818151815260200191508051906020019060200280838360005b838110156104e05780820151818401526020810190506104c5565b5050505090500194505050505060405180910390f35b34801561050257600080fd5b506105d06004803603606081101561051957600080fd5b810190808035906020019064010000000081111561053657600080fd5b82018360208201111561054857600080fd5b8035906020019184600183028401116401000000008311171561056a57600080fd5b91908080601f016020809104026020016040519081016040528093929190818152602001838380828437600081840152601f19601f8201169050808301925050505050505091929192908035906020019092919080359060200190929190505050610c26565b6040518080602001828103825283818151815260200191508051906020019080838360005b838110156106105780820151818401526020810190506105f5565b50505050905090810190601f16801561063d5780820380516001836020036101000a031916815260200191505b509250505060405180910390f35b34801561065757600080fd5b5061071b6004803603604081101561066e57600080fd5b810190808035906020019064010000000081111561068b57600080fd5b82018360208201111561069d57600080fd5b803590602001918460018302840111640100000000831117156106bf57600080fd5b91908080601f016020809104026020016040519081016040528093929190818152602001838380828437600081840152601f19601f82011690508083019250505050505050919291929080359060200190929190505050610c3c565b6040518082815260200191505060405180910390f35b34801561073d57600080fd5b506108016004803603604081101561075457600080fd5b810190808035906020019064010000000081111561077157600080fd5b82018360208201111561078357600080fd5b803590602001918460018302840111640100000000831117156107a557600080fd5b91908080601f016020809104026020016040519081016040528093929190818152602001838380828437600081840152601f19601f82011690508083019250505050505050919291929080359060200190929190505050610c50565b604051808381526020018281526020019250505060405180910390f35b34801561082a57600080fd5b506108ee6004803603604081101561084157600080fd5b810190808035906020019064010000000081111561085e57600080fd5b82018360208201111561087057600080fd5b8035906020019184600183028401116401000000008311171561089257600080fd5b91908080601f016020809104026020016040519081016040528093929190818152602001838380828437600081840152601f19601f82011690508083019250505050505050919291929080359060200190929190505050610c7d565b6040518082815260200191505060405180910390f35b34801561091057600080fd5b506109de6004803603606081101561092757600080fd5b810190808035906020019064010000000081111561094457600080fd5b82018360208201111561095657600080fd5b8035906020019184600183028401116401000000008311171561097857600080fd5b91908080601f016020809104026020016040519081016040528093929190818152602001838380828437600081840152601f19601f8201169050808301925050505050505091929192908035906020019092919080359060200190929190505050610c91565b6040518082815260200191505060405180910390f35b348015610a0057600080fd5b50610ac460048036036040811015610a1757600080fd5b8101908080359060200190640100000000811115610a3457600080fd5b820183602082011115610a4657600080fd5b80359060200191846001830284011164010000000083111715610a6857600080fd5b91908080601f016020809104026020016040519081016040528093929190818152602001838380828437600081840152601f19601f82011690508083019250505050505050919291929080359060200190929190505050610ca7565b6040518082815260200191505060405180910390f35b6000610ae68383610cbb565b905092915050565b6000610afa8383610cdc565b905092915050565b6000610b0e8383610cfc565b905092915050565b6060806060610b25858561112a565b905060008151905080604051908082528060200260200182016040528015610b5c5781602001602082028038833980820191505090505b50935080604051908082528060200260200182016040528015610b8e5781602001602082028038833980820191505090505b50925060008090505b81811015610c1c578281815181101515610bad57fe5b90602001906020020151600001518582815181101515610bc957fe5b90602001906020020181815250508281815181101515610be557fe5b90602001906020020151602001518482815181101515610c0157fe5b90602001906020020181815250508080600101915050610b97565b5050509250929050565b6060610c338484846111ee565b90509392505050565b6000610c4883836112a0565b905092915050565b600080610c5b611764565b610c658585611681565b90508060000151816020015192509250509250929050565b6000610c8983836116bd565b905092915050565b6000610c9e84848461172c565b90509392505050565b6000610cb38383611753565b905092915050565b600081610cc88484610cfc565b610cd285856112a0565b0301905092915050565b60006c010000000000000000000000008260208501015104905092915050565b6000808383815181101515610d0d57fe5b9060200101517f010000000000000000000000000000000000000000000000000000000000000090047f010000000000000000000000000000000000000000000000000000000000000002905060f77f010000000000000000000000000000000000000000000000000000000000000002817effffffffffffffffffffffffffffffffffffffffffffffffffffffffffffff19161115610e9057600060f7827f010000000000000000000000000000000000000000000000000000000000000090040360ff169050600080600090505b82811015610e84576008829060020a02915086868260010101815181101515610e0257fe5b9060200101517f010000000000000000000000000000000000000000000000000000000000000090047f0100000000000000000000000000000000000000000000000000000000000000027f0100000000000000000000000000000000000000000000000000000000000000900460ff16820191508080600101915050610ddd565b50809350505050611124565b60bf7f010000000000000000000000000000000000000000000000000000000000000002817effffffffffffffffffffffffffffffffffffffffffffffffffffffffffffff19161115610f1257600160bf827f01000000000000000000000000000000000000000000000000000000000000009004030360ff16915050611124565b60b77f010000000000000000000000000000000000000000000000000000000000000002817effffffffffffffffffffffffffffffffffffffffffffffffffffffffffffff1916111561104857600060b7827f010000000000000000000000000000000000000000000000000000000000000090040360ff169050600080600090505b8281101561103c576008829060020a02915086868260010101815181101515610fba57fe5b9060200101517f010000000000000000000000000000000000000000000000000000000000000090047f0100000000000000000000000000000000000000000000000000000000000000027f0100000000000000000000000000000000000000000000000000000000000000900460ff16820191508080600101915050610f95565b50809350505050611124565b60807f010000000000000000000000000000000000000000000000000000000000000002817effffffffffffffffffffffffffffffffffffffffffffffffffffffffffffff191611156110c7576080817f010000000000000000000000000000000000000000000000000000000000000090040360ff16915050611124565b60807f010000000000000000000000000000000000000000000000000000000000000002817effffffffffffffffffffffffffffffffffffffffffffffffffffffffffffff1916141561111e576000915050611124565b60019150505b92915050565b6060600061113884846116bd565b90508060405190808252806020026020018201604052801561117457816020015b61116161177e565b8152602001906001900390816111595790505b50915061117f611764565b6111898585611681565b905060008160000151905060008090505b838110156111e4576111ac8783611681565b92508285828151811015156111bd57fe5b9060200190602002018190525082602001518360000151019150808060010191505061119a565b5050505092915050565b606080826040519080825280601f01601f1916602001820160405280156112245781602001600182028038833980820191505090505b50905060008085602088010191506020830190505b60208510151561125e5781518152602081019050602082019150602085039450611239565b600085141561127257829350505050611299565b60006001866020036101000a03905080198351168183511680821784525050839450505050505b9392505050565b60008083838151811015156112b157fe5b9060200101517f010000000000000000000000000000000000000000000000000000000000000090047f010000000000000000000000000000000000000000000000000000000000000002905060f77f010000000000000000000000000000000000000000000000000000000000000002817effffffffffffffffffffffffffffffffffffffffffffffffffffffffffffff1916111561143957600060f7827f010000000000000000000000000000000000000000000000000000000000000090040360ff169050600080600090505b82811015611428576008829060020a029150868682600101018151811015156113a657fe5b9060200101517f010000000000000000000000000000000000000000000000000000000000000090047f0100000000000000000000000000000000000000000000000000000000000000027f0100000000000000000000000000000000000000000000000000000000000000900460ff16820191508080600101915050611381565b50808260010101935050505061167b565b60bf7f010000000000000000000000000000000000000000000000000000000000000002817effffffffffffffffffffffffffffffffffffffffffffffffffffffffffffff191611156114b85760bf817f010000000000000000000000000000000000000000000000000000000000000090040360ff1691505061167b565b60b77f010000000000000000000000000000000000000000000000000000000000000002817effffffffffffffffffffffffffffffffffffffffffffffffffffffffffffff191611156115f357600060b7827f010000000000000000000000000000000000000000000000000000000000000090040360ff169050600080600090505b828110156115e2576008829060020a0291508686826001010181518110151561156057fe5b9060200101517f010000000000000000000000000000000000000000000000000000000000000090047f0100000000000000000000000000000000000000000000000000000000000000027f0100000000000000000000000000000000000000000000000000000000000000900460ff1682019150808060010191505061153b565b50808260010101935050505061167b565b60807f010000000000000000000000000000000000000000000000000000000000000002817effffffffffffffffffffffffffffffffffffffffffffffffffffffffffffff191611156116755760016080827f01000000000000000000000000000000000000000000000000000000000000009004030160ff1691505061167b565b60019150505b92915050565b611689611764565b6116938383610cfc565b8160200181815250508181602001516116ac85856112a0565b030181600001818152505092915050565b60006116c7611764565b6116d18484611681565b905060008160000151905060008260200151836000015101905060008090505b8183101561171f57808060010191505061170b8784611681565b9350836020015184600001510192506116f1565b8094505050505092915050565b6000826020850101519050816020036101000a8181151561174957fe5b0490509392505050565b600081602084010151905092915050565b604080519081016040528060008152602001600081525090565b60408051908101604052806000815260200160008152509056fea165627a7a72305820d50581c125dbdd3a730731c8e78e93e9535785f1c8b465d353d293fc8091fdb70029",
  "source": "pragma solidity >=0.4.21 <0.6.0;\r\n\r\nimport \"../RlpLibrary.sol\";\r\n\r\ncontract RlpHelper {\r\n    function getRlpTotalLength(bytes memory data, uint offset) public pure returns (uint) {\r\n        return RlpLibrary.getRlpTotalLength(data, offset);\r\n    }\r\n    \r\n    function getRlpLength(bytes memory data, uint offset) public pure returns (uint) {\r\n        return RlpLibrary.getRlpLength(data, offset);\r\n    }\r\n    \r\n    function getRlpOffset(bytes memory data, uint offset) public pure returns (uint) {\r\n        return RlpLibrary.getRlpOffset(data, offset);\r\n    }\r\n    \r\n    function getRlpItem(bytes memory data, uint offset) public pure returns (uint itemOffset, uint itemLength) {\r\n        RlpLibrary.RlpItem memory item = RlpLibrary.getRlpItem(data, offset);\r\n        \r\n        return (item.offset, item.length);\r\n    }\r\n    \r\n    function getRlpNumItems(bytes memory data, uint offset) public pure returns (uint) {\r\n        return RlpLibrary.getRlpNumItems(data, offset);\r\n    }\r\n    \r\n    function getRlpItems(bytes memory data, uint offset) public pure returns (uint[] memory offsets, uint[] memory lengths) {\r\n        RlpLibrary.RlpItem[] memory items = RlpLibrary.getRlpItems(data, offset);\r\n        \r\n        uint nitems = items.length;\r\n        \r\n        offsets = new uint[](nitems);\r\n        lengths = new uint[](nitems);\r\n        \r\n        for (uint k = 0; k < nitems; k++) {\r\n            offsets[k] = items[k].offset;\r\n            lengths[k] = items[k].length;\r\n        }\r\n    }\r\n    \r\n    function rlpItemToBytes(bytes memory data, uint offset, uint length) public pure returns (bytes memory) {\r\n        return RlpLibrary.rlpItemToBytes(data, offset, length);\r\n    }\r\n    \r\n    function rlpItemToAddress(bytes memory data, uint offset) public pure returns(address) {\r\n        return RlpLibrary.rlpItemToAddress(data, offset);\r\n    }\r\n    \r\n    function rlpItemToBytes32(bytes memory data, uint offset) public pure returns(bytes32) {\r\n        return RlpLibrary.rlpItemToBytes32(data, offset);\r\n    }\r\n    \r\n    function rlpItemToUint256(bytes memory data, uint offset, uint length) public pure returns(uint256) {\r\n        return RlpLibrary.rlpItemToUint256(data, offset, length);\r\n    }\r\n}\r\n\r\n",
  "sourcePath": "C:/git/tokenbridge/bridge/contracts/test/RlpHelper.sol",
  "compiler": {
    "name": "solc",
    "version": "0.5.0+commit.1d4f565a.Emscripten.clang"
  },
  "schemaVersion": "3.0.8",
  "updatedAt": "2019-10-12T19:39:35.327Z",
  "devdoc": {
    "methods": {}
  },
  "userdoc": {
    "methods": {}
  }
}