{
  "contractName": "RskPowHelper",
  "abi": [
    {
      "constant": true,
      "inputs": [
        {
          "name": "difficulty",
          "type": "uint256"
        },
        {
          "name": "bitcoinMergedMiningHeader",
          "type": "bytes"
        }
      ],
      "name": "isValid",
      "outputs": [
        {
          "name": "",
          "type": "bool"
        }
      ],
      "payable": false,
      "stateMutability": "pure",
      "type": "function"
    },
    {
      "constant": true,
      "inputs": [
        {
          "name": "bitcoinMergedMiningHeader",
          "type": "bytes"
        }
      ],
      "name": "getBitcoinBlockHash",
      "outputs": [
        {
          "name": "blockHash",
          "type": "bytes32"
        }
      ],
      "payable": false,
      "stateMutability": "pure",
      "type": "function"
    },
    {
      "constant": true,
      "inputs": [
        {
          "name": "difficulty",
          "type": "uint256"
        }
      ],
      "name": "difficultyToTarget",
      "outputs": [
        {
          "name": "target",
          "type": "bytes32"
        }
      ],
      "payable": false,
      "stateMutability": "pure",
      "type": "function"
    }
  ],
  "bytecode": "0x608060405234801561001057600080fd5b5061086a806100206000396000f3fe608060405260043610610057576000357c0100000000000000000000000000000000000000000000000000000000900463ffffffff1680636f40eed81461005c578063b5c836fc14610146578063ddadeb7514610195575b600080fd5b34801561006857600080fd5b5061012c6004803603604081101561007f57600080fd5b8101908080359060200190929190803590602001906401000000008111156100a657600080fd5b8201836020820111156100b857600080fd5b803590602001918460018302840111640100000000831117156100da57600080fd5b91908080601f016020809104026020016040519081016040528093929190818152602001838380828437600081840152601f19601f820116905080830192505050505050509192919290505050610271565b604051808215151515815260200191505060405180910390f35b34801561015257600080fd5b5061017f6004803603602081101561016957600080fd5b8101908080359060200190929190505050610285565b6040518082815260200191505060405180910390f35b3480156101a157600080fd5b5061025b600480360360208110156101b857600080fd5b81019080803590602001906401000000008111156101d557600080fd5b8201836020820111156101e757600080fd5b8035906020019184600183028401116401000000008311171561020957600080fd5b91908080601f016020809104026020016040519081016040528093929190818152602001838380828437600081840152601f19601f820116905080830192505050505050509192919290505050610297565b6040518082815260200191505060405180910390f35b600061027d83836102a9565b905092915050565b600061029082610371565b9050919050565b60006102a2826103ae565b9050919050565b60006050825114151561034a576040517f08c379a000000000000000000000000000000000000000000000000000000000815260040180806020018281038252602a8152602001807f426974636f696e4d65726765644d696e696e67486561646572206d757374206281526020017f652038302062797465730000000000000000000000000000000000000000000081525060400191505060405180910390fd5b6000610355836103ae565b9050600061036285610371565b90508082109250505092915050565b60008060001990506000839050600381101561038c57600390505b61039f818361055290919063ffffffff16565b60010292508292505050919050565b60006060600280846040518082805190602001908083835b6020831015156103eb57805182526020820191506020810190506020830392506103c6565b6001836020036101000a038019825116818451168082178552505050505050905001915050602060405180830381855afa15801561042d573d6000803e3d6000fd5b5050506040513d602081101561044257600080fd5b8101908080519060200190929190505050604051602001808281526020019150506040516020818303038152906040526040518082805190602001908083835b6020831015156104a75780518252602082019150602081019050602083039250610482565b6001836020036101000a038019825116818451168082178552505050505050905001915050602060405180830381855afa1580156104e9573d6000803e3d6000fd5b5050506040513d60208110156104fe57600080fd5b810190808051906020019092919050505060405160200180828152602001915050604051602081830303815290604052905061054761054082600060206105e5565b6000610785565b915081915050919050565b600080821115156105cb576040517f08c379a000000000000000000000000000000000000000000000000000000000815260040180806020018281038252601a8152602001807f536166654d6174683a206469766973696f6e206279207a65726f00000000000081525060200191505060405180910390fd5b600082848115156105d857fe5b0490508091505092915050565b6060818301845110151515610688576040517f08c379a00000000000000000000000000000000000000000000000000000000081526004018080602001828103825260308152602001807f5265766572736520737461727420706c7573206c656e677468206c617267657281526020017f207468616e2062797465732073697a650000000000000000000000000000000081525060400191505060405180910390fd5b6060826040519080825280601f01601f1916602001820160405280156106bd5781602001600182028038833980820191505090505b50905060008090505b8381101561077957858186018151811015156106de57fe5b9060200101517f010000000000000000000000000000000000000000000000000000000000000090047f0100000000000000000000000000000000000000000000000000000000000000028282600187030381518110151561073c57fe5b9060200101907effffffffffffffffffffffffffffffffffffffffffffffffffffffffffffff1916908160001a90535080806001019150506106c6565b50809150509392505050565b600060208201835110151515610829576040517f08c379a000000000000000000000000000000000000000000000000000000000815260040180806020018281038252602a8152602001807f746f42797465733332206279746573206c656e677468206d757374206265206181526020017f74206c656173742033320000000000000000000000000000000000000000000081525060400191505060405180910390fd5b6000826020850101519050809150509291505056fea165627a7a72305820ae469e81c770176d8357f36b22155c2a5c06de40d8a9341c1f07f6cf51fe32760029",
  "source": "pragma solidity >=0.4.21 <0.6.0;\r\n\r\nimport \"../RskPowLibrary.sol\";\r\n\r\ncontract RskPowHelper {\r\n    function isValid(uint256 difficulty, bytes memory bitcoinMergedMiningHeader) public pure returns (bool) {\r\n        return RskPowLibrary.isValid(difficulty, bitcoinMergedMiningHeader);\r\n    }\r\n    \r\n    function getBitcoinBlockHash(bytes memory bitcoinMergedMiningHeader) public pure returns (bytes32 blockHash) {\r\n        return RskPowLibrary.getBitcoinBlockHash(bitcoinMergedMiningHeader);\r\n    }\r\n    \r\n    function difficultyToTarget(uint256 difficulty) public pure returns (bytes32 target) {\r\n        return RskPowLibrary.difficultyToTarget(difficulty);\r\n    }\r\n}\r\n\r\n",
  "sourcePath": "C:/git/tokenbridge/bridge/contracts/test/RskPowHelper.sol",
  "compiler": {
    "name": "solc",
    "version": "0.5.0+commit.1d4f565a.Emscripten.clang"
  },
  "schemaVersion": "3.0.8",
  "updatedAt": "2019-10-12T19:39:35.343Z",
  "devdoc": {
    "methods": {}
  },
  "userdoc": {
    "methods": {}
  }
}