{
  "contractName": "SimpleTransferable",
  "abi": [
    {
      "constant": true,
      "inputs": [],
      "name": "ntokens",
      "outputs": [
        {
          "name": "",
          "type": "uint256"
        }
      ],
      "payable": false,
      "stateMutability": "view",
      "type": "function"
    },
    {
      "constant": true,
      "inputs": [
        {
          "name": "",
          "type": "uint256"
        }
      ],
      "name": "amounts",
      "outputs": [
        {
          "name": "",
          "type": "uint256"
        }
      ],
      "payable": false,
      "stateMutability": "view",
      "type": "function"
    },
    {
      "constant": true,
      "inputs": [
        {
          "name": "",
          "type": "uint256"
        }
      ],
      "name": "tokens",
      "outputs": [
        {
          "name": "",
          "type": "address"
        }
      ],
      "payable": false,
      "stateMutability": "view",
      "type": "function"
    },
    {
      "constant": true,
      "inputs": [
        {
          "name": "",
          "type": "uint256"
        }
      ],
      "name": "newtokens",
      "outputs": [
        {
          "name": "",
          "type": "address"
        }
      ],
      "payable": false,
      "stateMutability": "view",
      "type": "function"
    },
    {
      "constant": true,
      "inputs": [],
      "name": "ntransfers",
      "outputs": [
        {
          "name": "",
          "type": "uint256"
        }
      ],
      "payable": false,
      "stateMutability": "view",
      "type": "function"
    },
    {
      "constant": true,
      "inputs": [
        {
          "name": "",
          "type": "uint256"
        }
      ],
      "name": "receivers",
      "outputs": [
        {
          "name": "",
          "type": "address"
        }
      ],
      "payable": false,
      "stateMutability": "view",
      "type": "function"
    },
    {
      "constant": true,
      "inputs": [
        {
          "name": "",
          "type": "uint256"
        }
      ],
      "name": "symbols",
      "outputs": [
        {
          "name": "",
          "type": "string"
        }
      ],
      "payable": false,
      "stateMutability": "view",
      "type": "function"
    },
    {
      "constant": false,
      "inputs": [
        {
          "name": "token",
          "type": "address"
        },
        {
          "name": "receiver",
          "type": "address"
        },
        {
          "name": "amount",
          "type": "uint256"
        }
      ],
      "name": "acceptTransfer",
      "outputs": [
        {
          "name": "",
          "type": "bool"
        }
      ],
      "payable": false,
      "stateMutability": "nonpayable",
      "type": "function"
    },
    {
      "constant": false,
      "inputs": [
        {
          "name": "token",
          "type": "address"
        },
        {
          "name": "symbol",
          "type": "string"
        }
      ],
      "name": "processToken",
      "outputs": [
        {
          "name": "",
          "type": "bool"
        }
      ],
      "payable": false,
      "stateMutability": "nonpayable",
      "type": "function"
    }
  ],
  "bytecode": "0x608060405234801561001057600080fd5b506108e1806100206000396000f3fe608060405234801561001057600080fd5b50600436106100b0576000357c010000000000000000000000000000000000000000000000000000000090048063ad54543c11610083578063ad54543c14610209578063bab85fdd14610277578063bfd772fc14610295578063ccce413b14610303578063e44985bf146103aa576100b0565b8063296c4c4b146100b55780633395dc70146100d357806345f0a44f146101595780634f64b2be1461019b575b600080fd5b6100bd61049d565b6040518082815260200191505060405180910390f35b61013f600480360360608110156100e957600080fd5b81019080803573ffffffffffffffffffffffffffffffffffffffff169060200190929190803573ffffffffffffffffffffffffffffffffffffffff169060200190929190803590602001909291905050506104a3565b604051808215151515815260200191505060405180910390f35b6101856004803603602081101561016f57600080fd5b81019080803590602001909291905050506105b9565b6040518082815260200191505060405180910390f35b6101c7600480360360208110156101b157600080fd5b81019080803590602001909291905050506105da565b604051808273ffffffffffffffffffffffffffffffffffffffff1673ffffffffffffffffffffffffffffffffffffffff16815260200191505060405180910390f35b6102356004803603602081101561021f57600080fd5b8101908080359060200190929190505050610616565b604051808273ffffffffffffffffffffffffffffffffffffffff1673ffffffffffffffffffffffffffffffffffffffff16815260200191505060405180910390f35b61027f610652565b6040518082815260200191505060405180910390f35b6102c1600480360360208110156102ab57600080fd5b8101908080359060200190929190505050610658565b604051808273ffffffffffffffffffffffffffffffffffffffff1673ffffffffffffffffffffffffffffffffffffffff16815260200191505060405180910390f35b61032f6004803603602081101561031957600080fd5b8101908080359060200190929190505050610694565b6040518080602001828103825283818151815260200191508051906020019080838360005b8381101561036f578082015181840152602081019050610354565b50505050905090810190601f16801561039c5780820380516001836020036101000a031916815260200191505b509250505060405180910390f35b610483600480360360408110156103c057600080fd5b81019080803573ffffffffffffffffffffffffffffffffffffffff169060200190929190803590602001906401000000008111156103fd57600080fd5b82018360208201111561040f57600080fd5b8035906020019184600183028401116401000000008311171561043157600080fd5b91908080601f016020809104026020016040519081016040528093929190818152602001838380828437600081840152601f19601f82011690508083019250505050505050919291929050505061074d565b604051808215151515815260200191505060405180910390f35b60045481565b600060018490806001815401808255809150509060018203906000526020600020016000909192909190916101000a81548173ffffffffffffffffffffffffffffffffffffffff021916908373ffffffffffffffffffffffffffffffffffffffff1602179055505060028390806001815401808255809150509060018203906000526020600020016000909192909190916101000a81548173ffffffffffffffffffffffffffffffffffffffff021916908373ffffffffffffffffffffffffffffffffffffffff1602179055505060038290806001815401808255809150509060018203906000526020600020016000909192909190915055506000808154809291906001019190505550600190509392505050565b600381815481106105c657fe5b906000526020600020016000915090505481565b600181815481106105e757fe5b906000526020600020016000915054906101000a900473ffffffffffffffffffffffffffffffffffffffff1681565b6005818154811061062357fe5b906000526020600020016000915054906101000a900473ffffffffffffffffffffffffffffffffffffffff1681565b60005481565b6002818154811061066557fe5b906000526020600020016000915054906101000a900473ffffffffffffffffffffffffffffffffffffffff1681565b600681815481106106a157fe5b906000526020600020016000915090508054600181600116156101000203166002900480601f0160208091040260200160405190810160405280929190818152602001828054600181600116156101000203166002900480156107455780601f1061071a57610100808354040283529160200191610745565b820191906000526020600020905b81548152906001019060200180831161072857829003601f168201915b505050505081565b600060058390806001815401808255809150509060018203906000526020600020016000909192909190916101000a81548173ffffffffffffffffffffffffffffffffffffffff021916908373ffffffffffffffffffffffffffffffffffffffff1602179055505060068290806001815401808255809150509060018203906000526020600020016000909192909190915090805190602001906107f2929190610810565b50506004600081548092919060010191905055506001905092915050565b828054600181600116156101000203166002900490600052602060002090601f016020900481019282601f1061085157805160ff191683800117855561087f565b8280016001018555821561087f579182015b8281111561087e578251825591602001919060010190610863565b5b50905061088c9190610890565b5090565b6108b291905b808211156108ae576000816000905550600101610896565b5090565b9056fea165627a7a723058205b0cb0afe73ef329273fbc39ca6e44ee66c558855db2bc8316be851b6cfeab0c0029",
  "source": "pragma solidity >=0.4.21 <0.6.0;\r\n\r\nimport \"../Transferable.sol\";\r\n\r\ncontract SimpleTransferable is Transferable {\r\n    uint public ntransfers;\r\n    address[] public tokens;\r\n    address[] public receivers;\r\n    uint[] public amounts;\r\n    \r\n    uint public ntokens;\r\n    address[] public newtokens;\r\n    string[] public symbols;\r\n    \r\n    function acceptTransfer(address token, address receiver, uint256 amount) public returns(bool) {\r\n        tokens.push(token);\r\n        receivers.push(receiver);\r\n        amounts.push(amount);\r\n        ntransfers++;\r\n        \r\n        return true;\r\n    }\r\n    \r\n    function processToken(address token, string memory symbol) public returns (bool) {\r\n        newtokens.push(token);\r\n        symbols.push(symbol);\r\n        ntokens++;\r\n        \r\n        return true;\r\n    }\r\n}\r\n\r\n",
  "sourcePath": "C:/git/tokenbridge/bridge/contracts/test/BasicTransferable.sol",
  "compiler": {
    "name": "solc",
    "version": "0.5.7+commit.6da8b019.Emscripten.clang"
  },
  "schemaVersion": "3.0.8",
  "updatedAt": "2019-10-04T14:00:10.377Z",
  "devdoc": {
    "methods": {}
  },
  "userdoc": {
    "methods": {}
  }
}