{
  "contractName": "TokenTimelock",
  "abi": [
    {
      "inputs": [
        {
          "name": "token",
          "type": "address"
        },
        {
          "name": "beneficiary",
          "type": "address"
        },
        {
          "name": "releaseTime",
          "type": "uint256"
        }
      ],
      "payable": false,
      "stateMutability": "nonpayable",
      "type": "constructor"
    },
    {
      "constant": true,
      "inputs": [],
      "name": "token",
      "outputs": [
        {
          "name": "",
          "type": "address"
        }
      ],
      "payable": false,
      "stateMutability": "view",
      "type": "function"
    },
    {
      "constant": true,
      "inputs": [],
      "name": "beneficiary",
      "outputs": [
        {
          "name": "",
          "type": "address"
        }
      ],
      "payable": false,
      "stateMutability": "view",
      "type": "function"
    },
    {
      "constant": true,
      "inputs": [],
      "name": "releaseTime",
      "outputs": [
        {
          "name": "",
          "type": "uint256"
        }
      ],
      "payable": false,
      "stateMutability": "view",
      "type": "function"
    },
    {
      "constant": false,
      "inputs": [],
      "name": "release",
      "outputs": [],
      "payable": false,
      "stateMutability": "nonpayable",
      "type": "function"
    }
  ],
  "bytecode": "0x608060405234801561001057600080fd5b506040516060806109148339810180604052606081101561003057600080fd5b810190808051906020019092919080519060200190929190805190602001909291905050504281116100ad576040517f08c379a00000000000000000000000000000000000000000000000000000000081526004018080602001828103825260328152602001806108e26032913960400191505060405180910390fd5b826000806101000a81548173ffffffffffffffffffffffffffffffffffffffff021916908373ffffffffffffffffffffffffffffffffffffffff16021790555081600160006101000a81548173ffffffffffffffffffffffffffffffffffffffff021916908373ffffffffffffffffffffffffffffffffffffffff1602179055508060028190555050505061079b806101476000396000f3fe608060405234801561001057600080fd5b5060043610610069576000357c01000000000000000000000000000000000000000000000000000000009004806338af3eed1461006e57806386d1a69f146100b8578063b91d4001146100c2578063fc0c546a146100e0575b600080fd5b61007661012a565b604051808273ffffffffffffffffffffffffffffffffffffffff1673ffffffffffffffffffffffffffffffffffffffff16815260200191505060405180910390f35b6100c0610154565b005b6100ca610372565b6040518082815260200191505060405180910390f35b6100e861037c565b604051808273ffffffffffffffffffffffffffffffffffffffff1673ffffffffffffffffffffffffffffffffffffffff16815260200191505060405180910390f35b6000600160009054906101000a900473ffffffffffffffffffffffffffffffffffffffff16905090565b6002544210156101af576040517f08c379a00000000000000000000000000000000000000000000000000000000081526004018080602001828103825260328152602001806106f16032913960400191505060405180910390fd5b60008060009054906101000a900473ffffffffffffffffffffffffffffffffffffffff1673ffffffffffffffffffffffffffffffffffffffff166370a08231306040518263ffffffff167c0100000000000000000000000000000000000000000000000000000000028152600401808273ffffffffffffffffffffffffffffffffffffffff1673ffffffffffffffffffffffffffffffffffffffff16815260200191505060206040518083038186803b15801561026b57600080fd5b505afa15801561027f573d6000803e3d6000fd5b505050506040513d602081101561029557600080fd5b8101908080519060200190929190505050905060008111610301576040517f08c379a000000000000000000000000000000000000000000000000000000000815260040180806020018281038252602381526020018061074d6023913960400191505060405180910390fd5b61036f600160009054906101000a900473ffffffffffffffffffffffffffffffffffffffff16826000809054906101000a900473ffffffffffffffffffffffffffffffffffffffff1673ffffffffffffffffffffffffffffffffffffffff166103a59092919063ffffffff16565b50565b6000600254905090565b60008060009054906101000a900473ffffffffffffffffffffffffffffffffffffffff16905090565b61048d838473ffffffffffffffffffffffffffffffffffffffff1663a9059cbb90507c0100000000000000000000000000000000000000000000000000000000028484604051602401808373ffffffffffffffffffffffffffffffffffffffff1673ffffffffffffffffffffffffffffffffffffffff16815260200182815260200192505050604051602081830303815290604052907bffffffffffffffffffffffffffffffffffffffffffffffffffffffff19166020820180517bffffffffffffffffffffffffffffffffffffffffffffffffffffffff8381831617835250505050610492565b505050565b6104b18273ffffffffffffffffffffffffffffffffffffffff166106dd565b610523576040517f08c379a000000000000000000000000000000000000000000000000000000000815260040180806020018281038252601f8152602001807f5361666545524332303a2063616c6c20746f206e6f6e2d636f6e74726163740081525060200191505060405180910390fd5b600060608373ffffffffffffffffffffffffffffffffffffffff16836040518082805190602001908083835b60208310610572578051825260208201915060208101905060208303925061054f565b6001836020036101000a0380198251168184511680821785525050505050509050019150506000604051808303816000865af19150503d80600081146105d4576040519150601f19603f3d011682016040523d82523d6000602084013e6105d9565b606091505b509150915081610651576040517f08c379a00000000000000000000000000000000000000000000000000000000081526004018080602001828103825260208152602001807f5361666545524332303a206c6f772d6c6576656c2063616c6c206661696c656481525060200191505060405180910390fd5b6000815111156106d75780806020019051602081101561067057600080fd5b81019080805190602001909291905050506106d6576040517f08c379a000000000000000000000000000000000000000000000000000000000815260040180806020018281038252602a815260200180610723602a913960400191505060405180910390fd5b5b50505050565b600080823b90506000811191505091905056fe546f6b656e54696d656c6f636b3a2063757272656e742074696d65206973206265666f72652072656c656173652074696d655361666545524332303a204552433230206f7065726174696f6e20646964206e6f742073756363656564546f6b656e54696d656c6f636b3a206e6f20746f6b656e7320746f2072656c65617365a165627a7a723058204313352e9917ac1d23e8ff283d51cb6d65876c06f6a8ec7c0eb9a66b1b8b35950029546f6b656e54696d656c6f636b3a2072656c656173652074696d65206973206265666f72652063757272656e742074696d65",
  "source": "pragma solidity ^0.5.0;\r\n\r\nimport \"./SafeERC20.sol\";\r\n\r\n/**\r\n * @title TokenTimelock\r\n * @dev TokenTimelock is a token holder contract that will allow a\r\n * beneficiary to extract the tokens after a given release time.\r\n */\r\ncontract TokenTimelock {\r\n    using SafeERC20 for IERC20;\r\n\r\n    // ERC20 basic token contract being held\r\n    IERC20 private _token;\r\n\r\n    // beneficiary of tokens after they are released\r\n    address private _beneficiary;\r\n\r\n    // timestamp when token release is enabled\r\n    uint256 private _releaseTime;\r\n\r\n    constructor (IERC20 token, address beneficiary, uint256 releaseTime) public {\r\n        // solhint-disable-next-line not-rely-on-time\r\n        require(releaseTime > block.timestamp, \"TokenTimelock: release time is before current time\");\r\n        _token = token;\r\n        _beneficiary = beneficiary;\r\n        _releaseTime = releaseTime;\r\n    }\r\n\r\n    /**\r\n     * @return the token being held.\r\n     */\r\n    function token() public view returns (IERC20) {\r\n        return _token;\r\n    }\r\n\r\n    /**\r\n     * @return the beneficiary of the tokens.\r\n     */\r\n    function beneficiary() public view returns (address) {\r\n        return _beneficiary;\r\n    }\r\n\r\n    /**\r\n     * @return the time when the tokens are released.\r\n     */\r\n    function releaseTime() public view returns (uint256) {\r\n        return _releaseTime;\r\n    }\r\n\r\n    /**\r\n     * @notice Transfers tokens held by timelock to beneficiary.\r\n     */\r\n    function release() public {\r\n        // solhint-disable-next-line not-rely-on-time\r\n        require(block.timestamp >= _releaseTime, \"TokenTimelock: current time is before release time\");\r\n\r\n        uint256 amount = _token.balanceOf(address(this));\r\n        require(amount > 0, \"TokenTimelock: no tokens to release\");\r\n\r\n        _token.safeTransfer(_beneficiary, amount);\r\n    }\r\n}\r\n",
  "sourcePath": "C:/git/tokenbridge/bridge/contracts/zeppelin/token/ERC20/TokenTimelock.sol",
  "compiler": {
    "name": "solc",
    "version": "0.5.7+commit.6da8b019.Emscripten.clang"
  },
  "schemaVersion": "3.0.8",
  "updatedAt": "2019-10-04T14:00:10.464Z",
  "devdoc": {
    "details": "TokenTimelock is a token holder contract that will allow a\r beneficiary to extract the tokens after a given release time.\r",
    "methods": {
      "beneficiary()": {
        "return": "the beneficiary of the tokens.\r"
      },
      "releaseTime()": {
        "return": "the time when the tokens are released.\r"
      },
      "token()": {
        "return": "the token being held.\r"
      }
    },
    "title": "TokenTimelock\r"
  },
  "userdoc": {
    "methods": {
      "release()": {
        "notice": "Transfers tokens held by timelock to beneficiary.\r"
      }
    }
  }
}