{
  "contractName": "UpdateStorage",
  "abi": [
    {
      "constant": true,
      "inputs": [
        {
          "internalType": "uint256",
          "name": "",
          "type": "uint256"
        }
      ],
      "name": "values",
      "outputs": [
        {
          "internalType": "uint256",
          "name": "",
          "type": "uint256"
        }
      ],
      "payable": false,
      "stateMutability": "view",
      "type": "function"
    },
    {
      "constant": false,
      "inputs": [
        {
          "internalType": "uint256",
          "name": "position",
          "type": "uint256"
        },
        {
          "internalType": "uint256",
          "name": "value",
          "type": "uint256"
        }
      ],
      "name": "setValue",
      "outputs": [],
      "payable": false,
      "stateMutability": "nonpayable",
      "type": "function"
    }
  ],
  "bytecode": "0x608060405234801561001057600080fd5b5061010d806100206000396000f3fe6080604052348015600f57600080fd5b506004361060325760003560e01c80635e383d211460375780637b8d56e3146076575b600080fd5b606060048036036020811015604b57600080fd5b810190808035906020019092919050505060ab565b6040518082815260200191505060405180910390f35b60a960048036036040811015608a57600080fd5b81019080803590602001909291908035906020019092919050505060c2565b005b6000816064811060b757fe5b016000915090505481565b806000836064811060cf57fe5b0181905550505056fea265627a7a72315820481f4c61724afb8677951b5b73da54e3ca80e3c89a3d11ad4d4a59e80e51f21464736f6c63430005100032",
  "source": "pragma solidity >=0.5.0 <0.6.0;\r\n\r\ncontract UpdateStorage {\r\n    uint[100] public values;\r\n    \r\n    function setValue(uint position, uint value) public {\r\n        values[position] = value;\r\n    }\r\n}",
  "sourcePath": "C:\\git\\RskApi\\samples\\commands\\contracts\\UpdateStorage.sol",
  "compiler": {
    "name": "solc",
    "version": "0.5.16+commit.9c3226ce.Emscripten.clang"
  },
  "schemaVersion": "3.0.23",
  "updatedAt": "2021-02-17T17:22:46.600Z",
  "devdoc": {
    "methods": {}
  },
  "userdoc": {
    "methods": {}
  }
}